:020000040800F2
:100000004812002045010008ED0F0008150D0008FA
:10001000E90F0008E30100082127000800000000A4
:10002000000000000000000000000000CD150008E6
:10003000950900080000000025120008AD1F000807
:100040005F0100085F0100085F0100085F01000810
:100050005F0100085F0100085F0100085F01000800
:100060005F0100085F0100085F0100085F010008F0
:100070005F0100085F0100085F0100085F010008E0
:100080005F0100085F0100085F0100085F010008D0
:10009000652600085F0100085F0100085F01000895
:1000A0005F0100085F0100085F0100085F010008B0
:1000B0005F0100085F0100085F0100085F010008A0
:1000C0005F0100085F0100085F0100085F01000890
:1000D0005F01000809210008912100085F01000864
:1000E0005F0100085F010008E12300085F010008CC
:1000F0005F0100085F0100085F0100085F01000860
:100100005F0100085F0100085F0100085F0100084F
:100110005F0100085F0100085F0100085F0100083F
:100120005F0100085F0100085F0100085F0100082F
:10013000DFF80CD000F018F8004800479D2A0008AE
:10014000481200200648804706480047FEE7FEE7C1
:10015000FEE7FEE7FEE7FEE7FEE7FEE7FEE7FEE777
:100160004920000831010008064C074D06E0E06810
:1001700040F0010394E8070098471034AC42F6D3EE
:10018000FFF7DAFF802B0008A02B000870B58C1851
:1001900010F8015B15F0070301D110F8013B2A119B
:1001A00006D110F8012B03E010F8016B01F8016B88
:1001B0005B1EF9D12B0705D40023521E0DD401F884
:1001C000013BFAE710F8013BCB1A921C03E013F84D
:1001D000015B01F8015B521EF9D5A142D8D3002082
:1001E00070BD00BFFEE70146CAB20B1243EA02200F
:1001F0007047000008B50020009022E19748008871
:1002000000F00F00964908700846007800287CD15D
:1002100094480068944908800846008800F030003F
:10022000924908809048008800F440508E49088028
:100230008C4909684BF6BF7201EA020080F4005055
:1002400080F0200040F4004141F08001854A1160B7
:100250008248008800F0100090BB1046006848F605
:100260000F7108401146086000F056FD7D4909688D
:100270004BF6BF7201EA02007B49098801F4805104
:1002800009B180F480507849098801F4005109B11E
:1002900080F400507549098801F0100109B180F01F
:1002A00010007249098801F0200109B180F0200096
:1002B00081B241F4004141F080016A4A116008BDF9
:1002C000FFE76848006880B20090BDF8000000F4C5
:1002D0000060B0B363480068C0F30E0048F68F7149
:1002E00008406049086001F039FB5E4909684BF637
:1002F000BF7201EA02005C49098801F4805109B12A
:1003000080F480505849098800E056E001F400511B
:1003100009B180F400505549098801F0100109B174
:1003200080F010005149098801F0200109B180F0E6
:10033000200081B241F4004141F08001494A11603E
:10034000BDE7FFE7BDF8000000F40040002878D0CA
:1003500044480068C0F30E0048F68F7108404149D8
:10036000086000F023FF3F4909684BF6BF7201EABD
:1003700002003D49098801F4805109B180F48050A0
:100380003949098801F4005109B180F40050374916
:10039000098801F0100109B180F010003349098883
:1003A00001F0200109B180F0200081B241F4004148
:1003B00041F080012B4A116081E7294800782C49DF
:1003C00001EB8000D0F8000C80B20090BDF8000076
:1003D00000F40040C0B12248007801EB8000D0F862
:1003E000000CC0F30E0048F68F7108401C490978D4
:1003F0001F4A02EB8101C1F8000C19490978491E16
:100400001C4A52F821008047BDF8000000F080002F
:10041000B8B113480078164901EB8000D0F8000C01
:1004200048F60F7108400E490978114A02EB810124
:10043000C1F8000C0A490978491E0F4A52F82100F8
:10044000804708484430006880B20449088000F4BE
:10045000004000287FF4D2AE00BF30E75C000020EF
:1004600044010020005C0040580100205A01002097
:100470000050004084000020680000200B4A02EB7E
:100480008001D1F8001C01F4804171B102EB8001C0
:10049000D1F8001C48F68F7211404CF280021143D3
:1004A000024B03EB8002C2F8001C70470050004072
:1004B0000B4A02EB8001D1F8001C01F0400171B140
:1004C00002EB8001D1F8001C48F68F72114048F20F
:1004D000C0021143024B03EB8002C2F8001C7047BC
:1004E00000500040084A02EB8001D1F8001C48F699
:1004F0008F62114048F280021143034B03EB8002EC
:10050000C2F8001C704700000050004010B50446BF
:10051000204601F0E1FD10BD01B500F039FD9DF868
:10052000000001F0C1FD0121684602F0EDF808BDB0
:10053000F8B507460C4615461E460121042000F07A
:10054000F9FE0121082000F0F5FE0121102000F045
:10055000F1FE0121202000F0EDFE0121802000F0BD
:10056000E9FE684600F081FB8DF803508DF80260CB
:10057000A0B2ADF800006946384600F095FAF8BD23
:100580002DE9F0472848006800F110052E8826481C
:100590000068077AD6B9042F18D1244800780128BA
:1005A0000FD100212248006880B2801C214A42F805
:1005B000101030202049088000BF00201B4908701F
:1005C00003E0072710201C49088027E0AC88A642DA
:1005D00001D8042000E002200746B44200D9344686
:1005E000A0B2A96888478046002000F069FB8146D8
:1005F000A2B24946404602F095F8A1B2002001F0AF
:1006000099F82888001B288068882044688030205A
:100610000949088000020949088000BF02490968A9
:100620000F72BDE8F0870000480100204201002061
:10063000505C0040006000405A010020580100203A
:100640002DE9F0412848006800F110042688A068D0
:10065000C0B1BEB1A588B54200D93546A8B2A168DF
:10066000884707462088401B208060882844608097
:10067000002000F003FB8046AAB24146384600F055
:10068000BDFD00BF208850B14FF44050174908808D
:100690000021084601F04EF83020154908802088D6
:1006A000A188884204DB03200F490968087218E01A
:1006B0002088002804DD05200B490968087210E035
:1006C000208870B906200849096808720021094885
:1006D000006880B2801C084A42F81010302004499B
:1006E0000880BDE8F081000048010020580100208A
:1006F0005A010020505C0040006000402DE9F84F96
:100700009B48006845780027BA46062D1BD19848BB
:100710000068007800F07F00002813D19449096830
:100720008878012803D193490968CF690AE0022833
:1007300003D1904909680F6A04E0032802D18D496A
:1007400009684F6A94E0002D64D1894800684088A8
:1007500000285FD186480068C08802285AD18448A2
:1007600000680079002855D181480068007800F0C1
:100770007F0028B97E480068808808B97E4F77E0FE
:100780007B480068007800F07F00012810D178498C
:1007900009684879774909688A69002190470028E3
:1007A00066D173480068807A002861D0724F5FE09C
:1007B0006F480068007800F07F00022858D16C482C
:1007C0000068407900F00F0669480068407900F041
:1007D000700967480068407900F0800038B16749C7
:1007E00001EB8600D0F8000C00F0300806E0634909
:1007F00001EB8600D0F8000C00F440586048007807
:10080000B04235D9B9F1000F32D1B8F1000F2FD075
:10081000594F2DE0082D07D155480068007800F0A9
:100820007F0028BB574F23E00A2D21D15048006894
:10083000007800F07F0001281AD14D480068807AC6
:10084000B0B14B480068408890B9494800680079C9
:1008500070B947480068C088012809D1444909682F
:100860004879444909688A690021904700B9464F90
:1008700057B13F480068A0F812A03D480068876162
:100880000020B84700240FE0394A12685078394AEE
:100890001268116988470446032C05D109203449A0
:1008A00009680872BDE8F88F31480068008A4FF681
:1008B000FF71884204D109202D4909680872F1E7C7
:1008C000022C03D02A480068008A20B90820284951
:1008D00009680872E6E726480068007800F08000A2
:1008E000E0B323480068C088009021480068008A6F
:1008F0000099884204D91E4900980968088223E0BB
:100900001B480068008A1A490968C98888421BDAAE
:1009100017480068008A1749096891F82C10884226
:1009200003DA0020194908700EE011480068008AB7
:100930001049096891F82C1090FBF1F201FB1200AC
:1009400010B90120114908700A48006890F82C106D
:10095000074800688182FFF713FE07E0FFE70320E6
:1009600003490968087200030949088000BF99E734
:10097000480100204C010020FD1B000800500040F1
:10098000AC000020811B0008D11B000842010020A0
:10099000580100207047000010B500240F4800786F
:1009A000012819D140210E4801F0A2FE84B2002C8A
:1009B0000FDD2246C0210A4801F0B4FE2146012085
:1009C00000F0B8FE012000F0E3FE002005490860B9
:1009D00002E000200149087010BD00005400002012
:1009E0008C0D00205800002010B50649032001F0AE
:1009F00067FE84B22146034801F044FE032000F064
:100A00006FFE10BDCC0D002001490860704700004A
:100A100014040140002123498279002A3AD00A4671
:100A2000126803689A430B461A600A1D126803682D
:100A30009A430B1D1A60027911440A6803681A432D
:100A40000A60184A0832126803689A43154B083343
:100A50001A601A1D126803689A43124B0C331A600D
:100A60004279102A0ED11A1F126803681A430D4BDF
:100A700008331A601A1D126803681A43094B0C33B5
:100A80001A600DE00749427911440A6803681A4365
:100A90000A6005E0027911440A6803689A430A6013
:100AA00070470000000401402DE9F0410246002596
:100AB0000026002000230024002791F803C00CF03A
:100AC0000F0591F803C00CF0100CBCF1000F03D01F
:100AD00091F802C04CEA050591F800C0BCF1000F86
:100AE00031D0146800202BE04FF0010C0CFA00F319
:100AF000B1F800C00CEA03069E4220D183004FF0FB
:100B00000F0C0CFA03F7BC4305FA03FC4CEA04048F
:100B100091F803C0BCF1280F06D14FF0010C0CFA7C
:100B200000FCC2F814C00AE091F803C0BCF1480F01
:100B300005D14FF0010C0CFA00FCC2F810C0401CAB
:100B40000828D1D31460B1F800C0BCF1FF0F34DD28
:100B5000546800202EE000F1080C4FF0010808FA5C
:100B60000CF3B1F800C00CEA03069E4221D18300C9
:100B70004FF00F0C0CFA03F7BC4305FA03FC4CEAE8
:100B8000040491F803C0BCF1280F05D100F1080C52
:100B900008FA0CF8C2F8148091F803C0BCF1480FB1
:100BA00007D100F1080C4FF0010808FA0CF8C2F860
:100BB0001080401C0828CED35460BDE8F0810000AE
:100BC000F0B50A46002300240021002500F000466D
:100BD000B6F1004F02D11D4EF16901E01B4E716864
:100BE000C0F3034583B200F44016B6F5401F08D1A8
:100BF00021F07061154E766826F07066134F7E60A6
:100C000012E000F48016B6F5801F06D1032606FA1E
:100C100005F4A14341F0706106E0460D360103FA88
:100C200006F6B14341F0706122B1460D360103FA78
:100C300006F6314300F00046B6F1004F02D1034EF4
:100C4000F16101E0014E7160F0BD00000000014063
:100C500002460020D3680B400BB1012000E00020C9
:100C6000704741617047016170474FF6FF71018025
:100C7000022181700421C1707047000001460548BF
:100C8000006880B200EBC100001D034A32F810007A
:100C900080B27047505C004000600040014606484A
:100CA000006880B200EBC100801D044A32F81000D9
:100CB000C0F3090070470000505C00400060004035
:100CC00001460548006880B200EBC100034A32F8D3
:100CD000100080B270470000505C0040006000408F
:100CE00070B50A480468001D0568001D0668344494
:100CF00054B108220649204600F0FCF804220449B9
:100D00001031284600F0F6F870BD0000E8F7FF1F2C
:100D10002E00002000BFFEE710B518480068047AD6
:100D2000022C01D0042C05D1FFF72AFC13480068DF
:100D3000047A1CE0062C19D1104800684078052878
:100D40000ED10E480068007800F07F0040B90B49D2
:100D50000968C87800F044FC09490968086A8047B6
:100D60000849096888688047082400E00824034986
:100D700009680C7200F058FA10BD0000480100200C
:100D8000540100204C01002010B586B0044601211A
:100D900044F2040000F0EEFA4FF40070ADF81400D5
:100DA00018208DF8170003208DF8160005A9224899
:100DB000FFF77AFE4FF48060ADF8140004208DF840
:100DC000170005A91C48FFF76FFE01940020ADF83D
:100DD0000800ADF80A00ADF80C00ADF810000C20CA
:100DE000ADF80E0001A9154801F08AFA002240F280
:100DF0002771124801F05EFA012240F225510F4896
:100E000001F058FA40210D4801F006FA01210B4883
:100E100001F01AFA25208DF8000001208DF801005C
:100E200007208DF8020001208DF80300684600F0CD
:100E3000DFF806B010BD0000000801400038014096
:100E400010B586B004460121274800F083FA04203B
:100E5000ADF8140018208DF8170003208DF8160047
:100E600005A92248FFF720FE0820ADF81400042051
:100E70008DF8170005A91D48FFF716FE0194002004
:100E8000ADF80800ADF80A00ADF80C00ADF81000A0
:100E90000C20ADF80E0001A9154801F031FA00222E
:100EA00040F22771124801F005FA012240F2255163
:100EB0000F4801F0FFF940210D4801F0ADF9012183
:100EC0000B4801F0C1F926208DF8000001208DF8B3
:100ED000010008208DF8020001208DF8030068460B
:100EE00000F086F806B010BD0400020000080140C2
:100EF0000044004030B50B46002100BF16E00A2434
:100F0000B4EB107F05D9302404EB107403F81140C2
:100F100005E0412404EB10740A3C03F81140000181
:100F200000254C00641C1D554C1CE1B29142E6DBCF
:100F300030BD000010B50121084600F01BFA012168
:100F40000848FFF73DFE0121042000F0F3F90123DA
:100F50001022D1020448FFF7EBFA01200349087080
:100F600010BD000000023000000801400A0000200F
:100F700010B50548007808B9FFF7DCFF4FF40041D1
:100F80000248FFF770FE10BD0A0000200008014073
:100F900010B50B48007808B9FFF7CCFF4FF40041BB
:100FA0000848FFF755FE28B14FF400410548FFF708
:100FB00058FE04E04FF400410248FFF754FE10BD14
:100FC0000A000020000801400548817A19B1052176
:100FD000044A116002E00121024A116070470000DA
:100FE0002C0E00203401002000BFFEE77047704740
:100FF00070B5002100230F22C47804B3154C246877
:1010000004F4E064C4F5E064210AC1F10403CA40B9
:10101000447804FA03F184781440214309010E4C0A
:101020000678A155047804F01F050124AC4005782A
:101030006D11AD0005F1E025C5F8004109E0047827
:1010400004F01F050124AC40044D0678761145F8E4
:10105000264070BD0CED00E000E400E080E100E01F
:1010600002490143024A1160704700000000FA057E
:101070000CED00E070B50226474800684478464809
:101080000068007800F07F00002844D1092C03D1CB
:1010900000F034FE06465FE0052C14D13E4800689F
:1010A000C0787F280BDC3C480068807838B93A4823
:1010B0000068808818B938480068807A08B1082527
:1010C00065E0002648E0032C0ED133480068C07864
:1010D000012807D130480068808818B900F032FE36
:1010E000064639E0022637E0012C35D12A4800684F
:1010F000C07801280DD128480068808848B9264862
:101100000068407A00F0200018B100F083FC064629
:1011100022E0022620E020480068007800F07F00EE
:10112000012805D10B2C17D100F088FE064613E0EC
:1011300019480068007800F07F0002280BD1012CCC
:1011400003D100F067FC064606E0032C04D100F052
:101150000DFE064600E002264EB1E0B20F4A1268CC
:10116000516988470646032E01D109250FE00EB1CB
:1011700008250CE0062500210948006880B2801C83
:10118000084A42F8101030200749088000BF024981
:1011900009680D7270BD0000480100204C0100205C
:1011A000505C0040006000405A01002010B511481A
:1011B0000068047A022C01D0042C01D1082412E02A
:1011C000032C01D0052C05D1FFF73AFA0948006835
:1011D000047A08E0072C05D107490968C8688047E8
:1011E000082400E00824034909680C7200F01CF888
:1011F00010BD0000480100204C010020F0B5561C35
:101200007510074E06EB41042B4605E034F8047BCD
:1012100020F8017B401C5B1E002BF7D1F0BD0000C5
:10122000006000407047000010B50D4890F82C1089
:10123000002000F00FFA0B480068007A082805D15A
:1012400040020949088010200849088005480068C4
:10125000007A092801D1012010BD0020FCE7000020
:10126000B000002048010020580100205A01002051
:1012700010B5012001F0BAF801240B4804600020E9
:101280000A49088008460088074908600020091DAF
:1012900008604FF4E050054908800846008802497C
:1012A0000860002010BD0000405C0040520100209A
:1012B00003461A60D960596099600020704770B584
:1012C00003461446002200209A6800BF11E0DD6842
:1012D0001E682E44551C2A46AE4200D8DA685D6866
:1012E000954200D107E011F8015B9E6835709A6065
:1012F000401CA042EBD300BF70BDF0B503460020F8
:101300000EE05C68651C5D6027780546401C4F5503
:10131000DC681D682C445D68AC4201D8DC685C6008
:101320005C689D68AC4204D0904202D21C68844242
:10133000E7D8F0BD29B1064A52690243044B5A610D
:1013400004E0034A52698243014B5A61704700002E
:101350000010024029B1064AD2690243044BDA6107
:1013600004E0034AD2698243014BDA61704700000E
:101370000010024029B1064A92690243044B9A6167
:1013800004E0034A92698243014B9A61704700006E
:101390000010024030B500210022002400232D4D12
:1013A0006D6805F00C0121B1042905D0082923D16D
:1013B00005E0294D056022E0274D05601FE0254D21
:1013C0006D6805F47012234D6D6805F480340225B4
:1013D00005EB92421CB9214D554305600BE01D4DB4
:1013E0006D6805F400351DB11C4D5543056002E0E4
:1013F000194D5543056002E0174D056000BF00BF61
:10140000144D6D6805F0F0010909154D6B5C056818
:10141000DD4045600F4D6D6805F4E061090A104D2F
:101420006B5C4568DD4085600A4D6D6805F4605170
:10143000C90A0B4D6B5C4568DD40C560054D6D68A4
:1014400005F44041890B074D6B5CC568B5FBF3F5AE
:10145000056130BD0010024000127A0000093D0015
:101460000B0000201B0000200149086070470000AD
:10147000D800424270B50546072D01D02E480570B0
:101480002D48007808284ED2DFE800F004111A2019
:101490002B384E4F2948006828B900F053F8062031
:1014A0002549087002E005202349087041E000F05A
:1014B00049F804202049087001202049086038E0DC
:1014C00002201D4948700320087032E01A48407815
:1014D000401E194948700846407808B90420087031
:1014E00027E01748006884B244F0100414480460F0
:1014F0000520114908700A2048701AE00E4840780B
:10150000401E0D4948700846407858B90C4800689C
:1015100084B224F010040A480460062008700020F9
:101520000649086005E000BF00BF062002490870B8
:1015300000BF00BF70BD0000390100203C01002049
:10154000405C004010B50748006884B224F00404F1
:1015500004480460FFF738FD4FF43F40014908603C
:1015600010BD0000405C004010B500241348006826
:10157000052822D112480078F8B912490868411CA0
:10158000104A1160052818D100201146086040213A
:101590000D4801F0ADF884B2002C0EDD2246C021CA
:1015A000094801F0BFF82146012000F0C3F80120EE
:1015B00000F0EEF801200249087010BD340100204F
:1015C00054000020580000208C0D002070470000BF
:1015D0004FF6F8710140014A11607047505C0040BD
:1015E00030B501460F4B1A78002014E003060E4C6C
:1015F00004EB9353D3F8003C48F68F74234048F231
:1016000080042343C4B223430406074D05EB9454DE
:10161000C4F8003C401C9042E8D341F08003034CE6
:10162000236030BDAC000020005000404C5C004006
:1016300010B54A105300054A126892B202EBC0027C
:10164000121D034C44F8123010BD0000505C0040E5
:101650000060004010B502460F48006880B200EB01
:10166000C200801D0D4C04EB40033E290BDD4811E8
:1016700001F01F040CB9441EA0B24FF4004444EA28
:1016800080241C6007E0481001F001040CB1441CE8
:10169000A0B284021C6010BD505C0040006000409D
:1016A00030B50E4C04EB8003D3F8003C4BF68F743E
:1016B00003EA040201F480530BB182F4805201F476
:1016C00000530BB182F4005242F4004343F0800314
:1016D000024D05EB8004C4F8003C30BD00500040D2
:1016E00010B50B4B03EB8002D2F8002C4BF68F7336
:1016F00002EA030181F4805181F4005141F4004277
:1017000042F08002024C04EB8003C3F8002C10BDB1
:101710000050004010B54A105200044B1B689BB2A9
:1017200003EBC003024C44F8132010BD505C004092
:1017300000600040044A126892B202EBC002921CA0
:10174000024B43F812107047505C004000600040AC
:1017500030B50E4C04EB8003D3F8003C48F6BF7460
:1017600003EA040201F010030BB182F0100201F051
:1017700020030BB182F0200242F4004343F08003C7
:10178000024D05EB8004C4F8003C30BD0050004021
:1017900010B50B4B03EB8002D2F8002C48F6BF7358
:1017A00002EA030181F0100181F0200141F40042BE
:1017B00042F08002024C04EB8003C3F8002C10BD01
:1017C0000050004010B5074B03EB8002D2F8002C0C
:1017D00048F68F131A400A43024C04EB8003C3F807
:1017E000002C10BD0050004010B500F001F810BDF5
:1017F0000CB50020019000903348006840F4803020
:101800003149086000BF3048006800F400300090A3
:101810000198401C0190009818B90198B0F5A06F8C
:10182000F1D12948006800F4003010B10120009087
:1018300001E0002000900098012843D1234800686F
:1018400040F01000214908600846006820F00300BD
:1018500008600846006840F0020008601A484068C6
:10186000194948600846406848600846406840F4A6
:10187000806048600846406820F47C104860084654
:10188000406840F4E81048600846006840F0807006
:10189000086000BF0C48006800F000700028F9D014
:1018A0000948406820F0030007494860084640683E
:1018B00040F00200486000BF0348406800F00C00A0
:1018C0000828F9D10CBD00000010024000200240A1
:1018D00008B54FF4A06216491648FFF7E9FC4FF42B
:1018E000A06215491548FFF7E3FC01210802FFF744
:1018F00041FD4FF40060ADF8000003208DF80200B8
:1019000010208DF8030069460D48FFF7CDF84FF41D
:101910008020FFF779F84FF480200A4908600820FA
:101920004871012088710846FFF774F808BD00006F
:101930008C0300206C0300208C0800207C03002016
:10194000002001402400002010B50020FFF78CFD8E
:101950000121C805FFF7FEFC10BD000038B50124C9
:101960002948006880B2001D284931F8100080B273
:1019700001EB4000009026480068007A092832D028
:10198000009800782249096808700098401C00906F
:10199000009800781E49096848700098401C009023
:1019A000009800EB44000090009931F8020B009180
:1019B000FEF719FC164909684880009800EB4400BE
:1019C0000090009931F8020B0091FEF70CFC1049D1
:1019D00009688880009800EB440000900098008817
:1019E0000B490968C880012009490968087208483C
:1019F0000068C08810B9FFF73DFB01E0FEF77EFEEE
:101A0000FFF712FC38BD0000505C00400060004051
:101A1000480100202DE9F04754480068007800F0A4
:101A20007F08B8F1000F0AD150480068407A00F0F2
:101A3000DF004E49096848720020BDE8F087B8F120
:101A4000020F7CD149480068408818B947480068AF
:101A5000007908B10220F0E7DFF8149143480068EC
:101A6000477927F080052C4640480068407900F00F
:101A7000800038B13F4901EB8400D0F8000C00F041
:101A8000300606E03B4901EB8400D0F8000C00F47E
:101A9000405699F80000A84204D91EB133480068A6
:101AA000807A08B90220C8E707F0800080B1314988
:101AB00001EB8400D0F8000C00F0300010284BD16E
:101AC000E0B2FEF7F5FCE0B23021FFF741FE43E063
:101AD000284901EB8400D0F8000C00F44050B0F528
:101AE000805F39D1E4B9244A92F82C10E0B2FFF7B4
:101AF000B1FD204A02EB8401D1F8001C4BF68F7235
:101B000001EA020080F4805080F4005040F400416B
:101B100041F08001174B03EB8402C2F8001C1BE06C
:101B2000E0B2FEF7ABFC134A02EB8401D1F8001CD3
:101B30004BF68F7201EA020080F4805000E011E061
:101B400080F4005040F4004141F08001094B03EB68
:101B50008402C2F8001C00BF084909684869804730
:101B600000206AE700BF022067E70000480100206C
:101B7000AC00002000500040B000002054010020C4
:101B800010B504462CB901200649096808820020D6
:101B900010BD0549096808688047024800680A3096
:101BA000F6E70000480100205401002010B502466D
:101BB00006480068438A32B98888C01A034C2468F2
:101BC0002082002010BD08681844FBE7480100206F
:101BD00010B504462CB90120064909680882002086
:101BE00010BD0549096888688047024800680C30C4
:101BF000F6E70000480100205401002010B504461B
:101C00002CB90220394909680882002010BD002043
:101C10003749088035480068007800F07F0018BB1D
:101C200032490968487A00F0200131B13049097819
:101C300041F002012E4A117005E02D49097801F0AA
:101C4000FD012B4A117000F0400131B1284909789B
:101C500041F00101264A117005E02549097801F09B
:101C6000FE01234A11703AE020480068007800F035
:101C70007F00012801D11E48C8E71C480068007891
:101C800000F07F00022828D1184A1268517901F02B
:101C90000F0001F080027AB1164B03EB8002D2F8FC
:101CA000002C02F03002102A16D1114A127842F0AC
:101CB00001020F4B1A700FE00E4B03EB8002D2F8BB
:101CC000002C02F44052B2F5805F05D1084A127828
:101CD00042F00102064B1A7001E0002096E7064927
:101CE000096808698047024890E700004801002021
:101CF00040010020005000405401002010B50E4863
:101D00000068C0780D494978884213DC0A480068A9
:101D1000807878B908480068808858B90648006813
:101D2000C07805490968887205490968486880478C
:101D3000002010BD0220FCE748010020AC0000207C
:101D40005401002010B507480068407A40F0200098
:101D500004490968487204490968C8698047002035
:101D600010BD000048010020540100202DE9F04181
:101D70002E480068467926F080073C462B480068CC
:101D8000407900F0800038B1294901EB8400D0F897
:101D9000000C00F0300506E0254901EB8400D0F886
:101DA000000C00F4405523480078A04208D91F4891
:101DB0000068408820B91DB11C480068807A10B9BD
:101DC0000220BDE8F08106F08000A0B1184A02EBC5
:101DD0008401D1F8001C48F6BF7201EA020080F0CD
:101DE000100040F4004141F08001114B03EB8402EC
:101DF000C2F8001C14E00E4A02EB8401D1F8001C6A
:101E00004BF68F7201EA020080F4805040F40041EA
:101E100041F08001064B03EB8402C2F8001C00BFB6
:101E200005490968886980470020CAE74801002001
:101E300000500040AC0000205401002010B5174BAA
:101E40001B68D978154B1B685879154B1B689A6924
:101E50009047044611480068807AE8B13CB90F48C1
:101E60000068007918B90D480068807808B1022030
:101E700010BD8CB90B490968C868804707480068DD
:101E8000407906490968C87204480068C078034967
:101E9000096808730020EBE70220E9E74801002009
:101EA0004C0100205401002038B5002100220023FD
:101EB0000093394B1B6898B200BF09E0374C04EB24
:101EC0008103D3F8003C9BB2354C44F82130491CC7
:101ED0000829F3D340F480602F4B186040F00100D4
:101EE000186020F00100186000BF2B4B1B1D1B6801
:101EF00003F48063002BF8D04FF6FF33264C241DEB
:101F00002360002109E0264B53F821309BB2234D7A
:101F100005EB8104C4F8003C491C0829F3D340F0C8
:101F200008001D4B18601B6898B240F004001A4B63
:101F300018601C4B1B6800931A4B1A6822F00302AE
:101F400042F001021A60184B1B6843F00403164C60
:101F50002360114B1B1D1B6803F480532BB92346D0
:101F60001B6823F00403236014E04EF6FF730A4C51
:101F7000241D2360231F1B6898B220F00800231F34
:101F80001860084C009B2360074B1B6823F0040378
:101F9000054C236038BD0000405C0040005000400C
:101FA0000C0E00200070004010ED00E001200549FB
:101FB00008700548007820B103480078401E0249A7
:101FC00008707047040000200500002038B5044662
:101FD0000D4600204FF0E021886105FB04F000EB86
:101FE0004001C1EBC0104FF0E021486103200861BF
:101FF000E11704EB5171C1F3C701114A117010468A
:10200000007800EB4001C1EBC0104FF6FF7101EA10
:10201000C0000C4908804FF4C060FFF721F8FF2092
:102020008DF8000003208DF8010000208DF80200DB
:1020300001208DF803006846FEF7DAFF38BD000086
:10204000000000200200002010B51348006840F096
:1020500001001149086008464068104908400E49CF
:102060004860084600680E4908400B490860084669
:10207000006820F4802008600846406820F4FE00D4
:1020800048604FF41F008860FFF7AEFB4FF0006020
:102090000449086010BD0000001002400000FFF875
:1020A000FFFFF6FE08ED00E010B504460748017892
:1020B0000078401C054A107005484454012240F243
:1020C0002771044800F0F6F810BD0000070000205A
:1020D0005C0100200038014010B504460748017833
:1020E0000078401C054A107005484454012240F213
:1020F0002771044800F0DEF810BD00000900002040
:102100005C0200200044004010B540F227711C48DA
:1021100000F0A6F8E0B11B4802780078401C194B8B
:1021200018701948815C164800F056F91548007877
:1021300016490978884205D1002240F227711048DB
:1021400000F0B8F840F227710D4800F06EF810E08A
:1021500040F225510A4800F083F850B10849091DA2
:102160000988C8B2FEF7D2F940F22551044800F0C0
:102170005CF84FF45871024800F057F810BD0000A9
:1021800000380140060000205C010020070000200C
:1021900010B540F227711C4800F062F8E0B11B480E
:1021A00002780078401C194B18701948815C164859
:1021B00000F012F940F22771134800F036F8134886
:1021C000007814490978884217D1002240F227711B
:1021D0000D4800F06FF810E040F225510A4800F079
:1021E0003FF850B10849091D0988C8B2FEF794F9B3
:1021F00040F22551044800F018F84FF45871024895
:1022000000F013F810BD000000440040080000205A
:102210005C0200200900002001F40072B2F5007F8A
:1022200000D100BFCA430280704710B500220023CE
:1022300040F66A14A14200D100BF0A120124944062
:10224000A3B2DC43048010BD21B1828942F4005264
:10225000828104E082894DF6FF731A4082817047C3
:1022600070B50246002400230025002040F66A16BF
:10227000B14200D100BFC1F3421501F01F03012696
:1022800006FA03F3012D02D19689334006E0022DB0
:1022900002D1168A334001E0968A33400C1201269F
:1022A00006FA04F41688344013B10CB1012000E0A2
:1022B000002070BDF0B50346002400260025002054
:1022C00040F66A17B94200D100BF1846C1F3421464
:1022D00001F01F06012707FA06F5012C01D10C3089
:1022E00004E0022C01D1103000E014301AB107686C
:1022F0002F43076002E00768AF430760F0BD0000AE
:102300002DE9F04786B005460E460024A24600BFE0
:10231000A1460027B08900B100BF2F462C8A4CF699
:10232000FF700440F08804432C82AC894EF6F31011
:102330000440B08831890843718908430443AC8163
:10234000AC8A4FF6FF400440B0890443AC8201A838
:10235000FFF720F81F48874202D1DDF810A001E006
:10236000DDF80CA0A88900F4004040B10AEBCA00D7
:1023700000EB0A1031684900B0FBF1F807E00AEB06
:10238000CA0000EB0A1031688900B0FBF1F8642044
:10239000B8FBF0F004012009642101FB1089A88931
:1023A00000F4004040B1322000EBC900B0FBF1F076
:1023B00000F00700044308E0322000EB091064211C
:1023C000B0FBF1F000F00F0004432C8106B0BDE833
:1023D000F087000000380140C1F308028280704796
:1023E00010B54FF48020FEF70FFB10BD10B504466A
:1023F0002CB94FF400610548FEF733FC04E04FF4BC
:1024000000610248FEF72FFC10BD000000200140D3
:1024100010B5FFF75DFAFFF797FA00F021F800F02A
:1024200001F810BD10B50848084908600220096885
:1024300008720748074908600748084908600549C5
:1024400009680868804710BD2C0E00204801002054
:10245000B00000204C010020E000002054010020CA
:1024600008B514208DF8000002208DF8010000202E
:102470008DF8020001208DF803006846FEF7B8FDD4
:102480002A208DF8000000208DF801006846FEF734
:10249000AFFD08BD10B588B00024694800686949DF
:1024A00008800846008800F40070674909880840E1
:1024B00050B14FF6FF506249086064480078401CF4
:1024C00062490870FFF750F85E48008800F4004049
:1024D0005D490988084008B1FDF78CFE594800881D
:1024E00000F4806058490988084030B14FF6FF3049
:1024F000534908605649486880475248008800F4AC
:10250000005051490988084018B14DF6FF704C49F8
:1025100008604C48008800F480504B490988084006
:1025200030B14EF6FF70464908600020FEF7A2FF6A
:102530004448008800F4006043490988084060B1BD
:102540004448007810B1FFF7AFFC02E00220FEF72C
:1025500091FF4FF2FF703A4908603A48008800F452
:102560008070394909880840002866D04FF6FF601E
:1025700033490860081D006800F40040002856D068
:1025800035480068401C3449086008460068032844
:1025900050D92B48001F006800F00800002849D1DE
:1025A0002748001F006880B22C490860002408E01A
:1025B0002B4901EB8400D0F8000C80B24DF82400C8
:1025C000641C082CF4D32548006840F0010023491E
:1025D00008600846006880B21949091F08601F4852
:1025E000006820F001001D4908600846006880B2BC
:1025F0001349091F086000BF1148006800F480609B
:102600000028F9D04FF6FF300D490860002408E09B
:102610005DF8240080B2124A02EB8401C1F8000C7C
:10262000641C082CF4D300200B49086002E0002051
:10263000094908600720FEF71DFF08B010BD000023
:10264000445C00405C000020520100205E0000203D
:10265000B00000203801002060000020640000204D
:102660000050004010B5FFF715FF10BD70B50446CF
:102670000D462A4621460248FEF73FFE70BD000087
:102680006C03002070B504460D462A4621460248D8
:10269000FEF715FE70BD00006C0300200020064907
:1026A00008604FF43F400549088008460088024909
:1026B000091F086000207047445C00405201002060
:1026C0002DE9F04104460E46002504F07F00FEF798
:1026D000E5FA054604F07F00FEF7D0FA07462A46E1
:1026E00039463046FEF78AFD2846BDE8F0810000F5
:1026F00070B504460D462A4621460248FEF7FDFD08
:1027000070BD00007C03002070B504460D462A46CB
:1027100021460248FEF7D3FD70BD00007C03002077
:1027200000BFFEE7F0B5144604F1010C4FEA6C0758
:10273000DFF824C00CEB41033D460AE00678401C5C
:1027400090F800C046EA0C2223F8022B9B1C401C88
:102750006D1E002DF2D1F0BD0060004070B5044642
:102760000025212C08D112480068007800F07F0075
:1027700021280ED10F4D0CE0202C0AD10C48006806
:10278000007800F07F00212800D10B4D20200B495C
:1027900008700DB9022070BD0548006885610021F0
:1027A0000348006841820020A8470020F3E70000AA
:1027B00048010020E927000879290008A00000202E
:1027C00010B5044602492046FFF7F0F910BD00009D
:1027D0000C01002010B5044602492046FFF7E6F937
:1027E00010BD000004010020014629B90820034A59
:1027F00012681082002070470148FCE74801002061
:10280000A400002070B5054606480068C478042C72
:1028100001DD002070BD044800EBC4012846FFF72D
:10282000C5F9F7E7480100201401002002460029FD
:1028300001DD02207047012A01DD0220FAE70020B5
:10284000F8E70000014608480068007800F07F00C3
:10285000212807D1022901D100207047222901D166
:102860000020FAE70220F8E74801002010B5002018
:102870003449096888723448C07932490968487215
:10288000002030490968C872FEF7A2FE4FF40071BB
:102890000020FEF797FF10210020FEF759FF40218E
:1028A0000020FEF7C5FE80210020FEF733FF002048
:1028B000FDF718FE254890F82C100020FEF7CAFE00
:1028C0000020FEF70DFF00210120FEF77BFFC02155
:1028D0000120FEF71FFF20210120FEF739FF002114
:1028E0000120FEF7DDFE4FF4C0610220FEF76AFF13
:1028F0004FF480710220FEF70DFF00210220FEF749
:10290000CFFE20210220FEF723FF00210320FEF747
:1029100059FF4FF488710320FEF78AFE40210320FF
:10292000FEF798FE4FF440510320FEF7B9FE002158
:102930000320FEF70DFF0020FEF752FE01200449A0
:10294000086010BD48010020F82A0008B0000020EF
:10295000340100200348817A11B10521024A116037
:10296000704700002C0E0020340100200420014993
:102970000860704734010020014629B90820034A45
:1029800012681082002070470148FCE748010020CF
:10299000A400002003480078202802D1002001492B
:1029A00008707047A00000207047000010B5FEF7C7
:1029B00097F90020054909688872FEF759FCFFF76E
:1029C0006DFE00200249086010BD00004801002093
:1029D0003401002002E008C8121F08C1002AFAD101
:1029E00070477047002001E001C1121F002AFBD18F
:1029F0007047000030B503464FF0E024A169254C34
:102A0000248803FB04F200204FF0E0246469B2FB49
:102A1000F4F4214D2C704FF0E0246469B2FBF4F51E
:102A200004FB1520814215D9081A00BF1A4C2478DE
:102A3000002CFBD10A2806D200BF4FF0E024A46985
:102A40000A2CFAD824E000BF4FF0E024A4698442A5
:102A5000FAD81DE0104C2478641C0F4D2C704FF0F8
:102A6000E02464690C44201A00BF0B4C2478002C2D
:102A7000FBD10A2806D200BF4FF0E024A4690A2C3B
:102A8000FAD805E000BF4FF0E024A4698442FAD8E8
:102A900030BD000002000020050000209AB0FFF7C2
:102AA000B7FC0A214820FFF791FA4FF41650FEF7C1
:102AB0006BF94FF41650FEF7C3F9FEF759FA11E01F
:102AC0000120FFF797FF642101A8FFF7CFFDC5B2F2
:102AD000002405E001A9085DFFF7FEFA601CC4B2FE
:102AE000AC42F7DBECE71201000202000040830475
:102AF000405700020102030109024300020100C025
:102B00003209040000010202010005240010010541
:102B100024010001042402020524060001070582A5
:102B2000030800FF09040100020A00000007050372
:102B30000240000007058102400000040309041858
:102B400003480069006B0065007200200073007587
:102B500000640069006F002603560069007200746B
:102B600000750061006C00200043004F004D002004
:102B70000050006F00720074002000200000000070
:102B8000A02B0008000000205C0100008C01000860
:102B9000402C00085C010020EC100000E429000833
:102BA000F12D0102030404D00906070809020406F6
:102BB00008142603561269127212741275126112E9
:102BC0006C12201243124F1A4D0812503A6F181A05
:102BD000200201161399090C1C08EF0F040A11E9D1
:102BE000245133C20112081A040713AD2914086DC9
:102BF000281B0895081AA904135D271B0845101AFD
:102C00002D041AD50C1AC1041A050C41324029446E
:102C10001A55280916741A6D1C13E62A3308121A5D
:102C2000F8083243133B2B3308041A3F0832181AB2
:102C300057083226222C2A20084129920120000020
:0400000508000131BD
:00000001FF
