:020000040800F2
:1000000080070020450100084D0100084F0100084D
:1000100051010008530100085501000800000000CC
:100020000000000000000000000000005701000870
:1000300059010008000000005B01000801110008E0
:100040005F0100085F0100085F0100085F01000810
:100050005F0100085F0100085F0100085F01000800
:100060005F0100085F0100085F0100085F010008F0
:100070005F0100085F0100085F0100085F010008E0
:100080005F0100085F0100085F0100085F010008D0
:100090005F0100085F0100085F0100085F010008C0
:1000A0005F0100085F0100085F0100085F010008B0
:1000B0005F0100085F0100085F0100085F010008A0
:1000C0005F0100085F0100085F0100085F01000890
:1000D0005F0100082D120008B51200085F0100083A
:1000E0005F0100085F0100085F0100085F01000870
:1000F0005F0100085F0100085F0100085F01000860
:100100005F0100085F0100085F0100085F0100084F
:100110005F0100085F0100085F0100085F0100083F
:100120005F0100085F0100085F0100085F0100082F
:10013000DFF80CD000F0A6FB004800479D1E000829
:10014000800700200648804706480047FEE7FEE794
:10015000FEE7FEE7FEE7FEE7FEE7FEE7FEE7FEE777
:100160009D11000831010008F0B480EA0102D40FAB
:100170004200B2EB410F02D20246084611464A0045
:1001800042D0C30DDDB2C1F3C752AD1A202D35DA0E
:10019000C1F3160141F4000204B15242C5F1200638
:1001A00002FA06F12A411044B3EBD05F23D0C4B168
:1001B000012DA0EBC35009DCF0BC4FF0004202EA75
:1001C000C352DBB200F5000000F087B9400000F137
:1001D000807000EBC350A0F1807040EAD1704900FC
:1001E00009E0490841EAC071A0EBC35000F50000E6
:1001F000400800EBC350F0BC00F066B96142012238
:1002000002EB4101001BF6E7F0BC704781F00041B2
:10021000AAE780F00040A7E780EA010210B502F0EB
:100220000043400022D04A001FD0010E01EB1261B2
:10023000C0F35600C2F3560240F4000042F400023C
:10024000A0FB022000047F39140400D0401C50EAB7
:10025000124001D44000491EC2B20C0604EBD0107B
:10026000401C4008802A02D003E0002010BD20F08E
:100270000100002900DA0020184310BD30B480EAE4
:10028000010202F0004530F0004221F0004013D09E
:1002900090B1C30DD40DC2F31601C0F31600E41AD9
:1002A00041F4000140F400027D34914201D3641C0A
:1002B00000E04900002C02DA30BC002070474FF407
:1002C00000000023914201D3891A034340084FEAFA
:1002D0004101F7D151B1914202D14FF0004105E007
:1002E00002D24FF0010101E06FF0010103EBC450B5
:1002F000284430BC00F0E8B82DE9F04D81EA030451
:1003000004F0004B21F0004514464FF0000A23F0A2
:10031000004150EA050220D054EA01021DD0C5F385
:100320000A570246C5F31303C1F31300C1F30A567B
:1003300040F4801543F48013A7EB0608101BD64643
:1003400008F2FD3873EB050002D308F1010801E063
:1003500092185B41B8F1000F03DA00200146BDE8B6
:10036000F08D00204FF48011064684460EE0171BE6
:1003700073EB050705D3121B63EB050306434CEA39
:10038000010C49084FEA300092185B4150EA01071E
:10039000EDD152EA030012D082EA040083EA05019B
:1003A000084305D0101BAB4106D20122002306E012
:1003B00000224FF0004302E06FF0010253101AEBED
:1003C00006004CEB085110EB0A0041EB0B01BDE8B5
:1003D000F04D00F0B0B8C10F80EAE0700844CA07E1
:1003E0009623002100F079B896230022114600F0F0
:1003F00074B80EB5C10F80EAE0700844CA07002146
:1004000040F233438DE80E000A460B4600F0A2F896
:1004100003B000BD00F0004230F000400AD0C10D32
:1004200001F56071C0F3160042EA0151C2084007AD
:100430001143704700200146704730B50B46014616
:1004400000202022012409E021FA02F59D4205D373
:1004500003FA02F5491B04FA02F52844151EA2F11D
:100460000102F1DC30BD2DE9F05F05460020924627
:100470009B4688460646814640241BE02846414666
:100480004746224600F01FFA53465A46C01A914189
:1004900010D311461846224600F006FA2D1A67EBD3
:1004A00001084F4622460120002100F0FDF917EB1C
:1004B00000094E41201EA4F10104DFDC484631460C
:1004C0002A464346BDE8F09F0029A8BF7047401C5C
:1004D000490008BF20F00100704710B4B0FA80FC5A
:1004E00000FA0CF050EA010404BF10BC704749B197
:1004F000CCF1200421FA04F411FA0CF118BF012107
:1005000021430843A3EB0C01CB1D4FEA00614FEAE6
:10051000102042BF002010BC704700EBC3501044B5
:100520000029A4BF10BC7047401C490008BF20F040
:10053000010010BC704710B5141E73F1000408DAF6
:10054000401C41F1000192185B411A4301D120F097
:10055000010010BD2DE9F04D92469B4611B1B1FA54
:1005600081F202E0B0FA80F22032904600F09CF96D
:1005700004460F4640EA0A0041EA0B0153465A4638
:10058000084313D0114653EA010019D0C8F14002C4
:10059000504600F098F905460E46504659464246E8
:1005A00000F082F9084305D0012004E020463946D6
:1005B000BDE8F08D0020054346EAE0762C43374342
:1005C0000A986305E40AA0EB08000022FD0A44EA49
:1005D00047540A3002D500200146E9E70105101909
:1005E0006941DDE9084500196941BDE8F04DA2E720
:1005F0002DE9FE4F804681EA0300C00F0C460090B3
:1006000021F0004123F00045B8EB0200A94105D2DA
:100610004046214690461C460B46024623F00040C9
:10062000104347D0270DC7F30A00C3F30A510290C5
:10063000401A019040286BDAC3F3130040F4801B8A
:100640000098924620B10023D2EB030A63EB0B0B18
:1006500001985946C0F14002504600F025F906467F
:100660000D4650465946019A00F03DF910EB08003E
:100670006141002487EA115284EAE7731A4340D0AB
:10068000009A62B3019A012A4FEA075215DC001B57
:1006900061EB02014FF0004202EA0752CDE900424D
:1006A000001C41F5801132462B46FFF753FF03B083
:1006B000BDE8F08F40462146F9E7001B61EB0201DF
:1006C000001C41F5801300185B412018A2F50017AB
:1006D00047EB030140EAD570B6196D4111E06D0892
:1006E0004FEA360645EAC0754FEA0752001B61EB38
:1006F0000201001C41F5801149084FEA3000001941
:10070000514132462B4603B0BDE8F04FFFF713BF0F
:100710000098012240000023D0EB020263EBE0735B
:10072000009821464FEAE074B8EB000061EB040149
:10073000E9E783F000435BE781F0004158E72DE9EA
:10074000FE4F81EA030404F0004421F000410094CC
:100750004FF0000B23F0004350EA01045ED052EA50
:1007600003045BD0C3F30A54C1F30A552C44A4F22A
:10077000F3340194A0FB0254C1F3130141F480113E
:10078000C3F3130343F4801301FB024400FB034E45
:10079000840A970A44EA815447EA8357A4FB07680E
:1007A00002958D0A05FB07854FEA932C04FB0C5438
:1007B0002705029D4FEA065847EA1637B5EB0805AC
:1007C0006EEB070C870E920E47EA811742EA8312FE
:1007D000A7FB0201B6EB0B0164EB00042B0D43EA0F
:1007E0000C335E1844EB1C50DA465146E7FB02011D
:1007F000C5F313044FEA0B3343EA14534FEA0432B0
:10080000019C43EA0603A4F10C040294009CCDE988
:1008100000B4FFF79FFE03B0BDE8F08F0020014653
:10082000F9E7C1F30A52C1F3130140F2FF3341F477
:1008300080119A4202DA00200146704740F23343A9
:100840009A42A2F2334202DC524200F03CB800F07D
:100850002BB8000030B5041E71F1000404DB4FF02A
:100860000044404264EB0101141E73F1000405DBF7
:100870001C464FF00043524263EB0403994208BF09
:10088000904230BD064C074D06E0E06840F00103A1
:1008900094E8070098471034AC42F6D3FFF74CFCBD
:1008A0003825000858250008202A04DB203A00FAE1
:1008B00002F1002070479140C2F1200320FA03F3B7
:1008C000194390407047202A04DB203A21FA02F0B5
:1008D0000021704721FA02F3D040C2F1200291407A
:1008E000084319467047202A06DBCB17203A41FA05
:1008F00002F043EAE07306E041FA02F3D040C2F1AD
:100900002002914008431946704710B5044620461E
:1009100000F074FC10BD000010B5044600F084FA2D
:100920003A4801780078401C384A107038484454DE
:100930000078552803D000201146087010BD3348B8
:1009400000780B2800DAF9E73148407850380A2857
:1009500056D2DFE800F0050D151D252D353D454D1E
:100960002C482B49891C0A6802604968416047E0AD
:1009700029482749891C0A680260496841603FE0AC
:1009800026482349891C0A6802604968416037E0AB
:1009900023481F49891C0A680260496841602FE0AA
:1009A00020481B49891C0A6802604968416027E0A9
:1009B0001D481749891C0A680260496841601FE0A8
:1009C0001A481349891C0A6802604968416017E0A7
:1009D00017480F49891C0A680260496841600FE0A6
:1009E00014480B49891C0A6802604968416007E0A5
:1009F00011480749891C0A6802604968416000BFC4
:100A000000BF00200149087000BF97E75A0000208E
:100A100080000020000000200800002010000020BE
:100A200018000020200000202800002030000020B6
:100A3000380000204000002048000020F8B507469C
:100A40000C4615461E460121042000F04BFA0121F8
:100A5000082000F047FA0121102000F043FA01219C
:100A6000202000F03FFA0121802000F03BFA684688
:100A700000F0EDF88DF803508DF80260A0B2ADF8EB
:100A800000006946384600F001F8F8BD2DE9F04154
:100A9000024600250026002000230024002791F8AC
:100AA00003C00CF00F0591F803C00CF0100CBCF162
:100AB000000F03D091F802C04CEA050591F800C080
:100AC000BCF1000F31D0146800202BE04FF0010C76
:100AD0000CFA00F3B1F800C00CEA03069E4220D1E4
:100AE00083004FF00F0C0CFA03F7BC4305FA03FC2C
:100AF0004CEA040491F803C0BCF1280F06D14FF072
:100B0000010C0CFA00FCC2F814C00AE091F803C012
:100B1000BCF1480F05D14FF0010C0CFA00FCC2F8F3
:100B200010C0401C0828D1D31460B1F800C0BCF13B
:100B3000FF0F34DD546800202EE000F1080C4FF068
:100B4000010808FA0CF3B1F800C00CEA03069E4253
:100B500021D183004FF00F0C0CFA03F7BC4305FAC8
:100B600003FC4CEA040491F803C0BCF1280F05D142
:100B700000F1080C08FA0CF8C2F8148091F803C0D0
:100B8000BCF1480F07D100F1080C4FF0010808FA3A
:100B90000CF8C2F81080401C0828CED35460BDE881
:100BA000F0810000F0B50A46002300240021002552
:100BB00000F00046B6F1004F02D11D4EF16901E090
:100BC0001B4E7168C0F3034583B200F44016B6F5BE
:100BD000401F08D121F07061154E766826F07066CE
:100BE000134F7E6012E000F48016B6F5801F06D128
:100BF000032606FA05F4A14341F0706106E0460DB4
:100C0000360103FA06F6B14341F0706122B1460D98
:100C1000360103FA06F6314300F00046B6F1004F04
:100C200002D1034EF16101E0014E7160F0BD0000A0
:100C30000000014002460020D3680B400BB10120A8
:100C400000E00020704741617047016170474FF636
:100C5000FF710180022181700421C1707047000082
:100C600010B586B00446012144F2040000F05AF9A0
:100C70004FF40070ADF8140018208DF81700032011
:100C80008DF8160005A92248FFF700FF4FF4806099
:100C9000ADF8140004208DF8170005A91C48FFF7D3
:100CA000F5FE01940020ADF80800ADF80A00ADF89B
:100CB0000C00ADF810000C20ADF80E0001A915488D
:100CC00000F0B0FB002240F22771124800F084FBD4
:100CD000012240F225510F4800F07EFB40210D48D3
:100CE00000F02CFB01210B4800F040FB25208DF883
:100CF000000001208DF8010007208DF8020001207E
:100D00008DF80300684600F0ABF806B010BD000097
:100D1000000801400038014010B586B004460121AA
:100D2000274800F0EFF80420ADF8140018208DF8E3
:100D3000170003208DF8160005A92248FFF7A6FE2C
:100D40000820ADF8140004208DF8170005A91D48EF
:100D5000FFF79CFE01940020ADF80800ADF80A00F2
:100D6000ADF80C00ADF810000C20ADF80E0001A994
:100D7000154800F057FB002240F22771124800F09E
:100D80002BFB012240F225510F4800F025FB4021AA
:100D90000D4800F0D3FA01210B4800F0E7FA2620B5
:100DA0008DF8000001208DF8010008208DF8020068
:100DB00001208DF80300684600F052F806B010BD1F
:100DC00004000200000801400044004010B5012169
:100DD000084600F0A7F801210848FFF7E3FE0121CB
:100DE000042000F07FF801231022D1020448FFF70D
:100DF00025FE01200349087010BD000000023000EC
:100E0000000801406600002010B50548007808B9C8
:100E1000FFF7DCFF4FF400410248FFF716FF10BD5B
:100E2000660000200008014010B50B48007808B9A2
:100E3000FFF7CCFF4FF400410848FFF7FBFE28B155
:100E40004FF400410548FFF7FEFE04E04FF4004177
:100E50000248FFF7FAFE10BD6600002000080140BE
:100E600070B5002100230F22C47804B3154C246808
:100E700004F4E064C4F5E064210AC1F10403CA404B
:100E8000447804FA03F184781440214309010E4C9C
:100E90000678A155047804F01F050124AC400578BC
:100EA0006D11AD0005F1E025C5F8004109E00478B9
:100EB00004F01F050124AC40044D0678761145F876
:100EC000264070BD0CED00E000E400E080E100E0B1
:100ED00002490143024A1160704700000000FA0510
:100EE0000CED00E029B1064A52690243044B5A61F5
:100EF00004E0034A52698243014B5A617047000083
:100F00000010024029B1064AD2690243044BDA615B
:100F100004E0034AD2698243014BDA617047000062
:100F20000010024029B1064A92690243044B9A61BB
:100F300004E0034A92698243014B9A6170470000C2
:100F40000010024030B500210022002400232D4D66
:100F50006D6805F00C0121B1042905D0082923D1C1
:100F600005E0294D056022E0274D05601FE0254D75
:100F70006D6805F47012234D6D6805F48034022508
:100F800005EB92421CB9214D554305600BE01D4D08
:100F90006D6805F400351DB11C4D5543056002E038
:100FA000194D5543056002E0174D056000BF00BFB5
:100FB000144D6D6805F0F0010909154D6B5C05686D
:100FC000DD4045600F4D6D6805F4E061090A104D84
:100FD0006B5C4568DD4085600A4D6D6805F46051C5
:100FE000C90A0B4D6B5C4568DD40C560054D6D68F9
:100FF00005F44041890B074D6B5CC568B5FBF3F503
:10100000056130BD0010024000127A0000093D0069
:10101000670000207700002010B500F001F810BD37
:101020000CB50020019000903348006840F48030F7
:101030003149086000BF3048006800F4003000907B
:101040000198401C0190009818B90198B0F5A06F64
:10105000F1D12948006800F4003010B1012000905F
:1010600001E0002000900098012843D12348006847
:1010700040F01000214908600846006820F0030095
:1010800008600846006840F0020008601A4840689E
:10109000194948600846406848600846406840F47E
:1010A000806048600846406820F47C10486008462C
:1010B000406840F4E81048600846006840F08070DE
:1010C000086000BF0C48006800F000700028F9D0EC
:1010D0000948406820F00300074948600846406816
:1010E00040F00200486000BF0348406800F00C0078
:1010F0000828F9D10CBD0000001002400020024079
:101100000120054908700548007820B1034800789F
:10111000401E0249087070476000002061000020F6
:1011200038B504460D4600204FF0E021886105FBEC
:1011300004F000EB4001C1EBC0104FF0E02148612A
:1011400003200861E11704EB5171C1F3C701114A93
:1011500011701046007800EB4001C1EBC0104FF653
:10116000FF7101EAC0000C4908804FF4C060FFF72E
:10117000AFFEFF208DF8000003208DF80100002055
:101180008DF8020001208DF803006846FFF768FE25
:1011900038BD00005C0000205E00002010B5134840
:1011A000006840F001001149086008464068104995
:1011B00008400E494860084600680E4908400B493F
:1011C00008600846006820F48020086008464068EF
:1011D00020F4FE0048604FF41F008860FFF71CFFFA
:1011E0004FF000600449086010BD0000001002408C
:1011F0000000FFF8FFFFF6FE08ED00E010B5044622
:10120000074801780078401C054A1070054844548E
:10121000012240F22771044800F0DEF810BD000002
:10122000650000207A0200200044004010B540F222
:1012300027711C4800F0A6F8E0B11B48027800783E
:10124000401C194B18701948815C164800F056F97B
:101250001548007816490978884205D1002240F2E5
:101260002771104800F0B8F840F227710D4800F0DF
:101270006EF810E040F225510A4800F083F850B1B2
:101280000849091D0988C8B2FFF73FFB40F2255104
:10129000044800F05CF84FF45871024800F057F829
:1012A00010BD000000380140620000207A010020DB
:1012B0006300002010B540F227711C4800F062F86E
:1012C000E0B11B4802780078401C194B187019488F
:1012D000815C164800F012F940F22771134800F0C3
:1012E00036F81348007814490978884217D100224B
:1012F00040F227710D4800F06FF810E040F22551E0
:101300000A4800F03FF850B10849091D0988C8B2E1
:10131000FFF702FB40F22551044800F018F84FF4A3
:101320005871024800F013F810BD0000004400405E
:10133000640000207A0200206500002001F40072A1
:10134000B2F5007F00D100BFCA430280704710B5DC
:101350000022002340F66A14A14200D100BF0A1205
:1013600001249440A3B2DC43048010BD21B18289E2
:1013700042F40052828104E082894DF6FF731A40E4
:101380008281704770B502460024002300250020AA
:1013900040F66A16B14200D100BFC1F3421501F018
:1013A0001F03012606FA03F3012D02D1968933406B
:1013B00006E0022D02D1168A334001E0968A3340BE
:1013C0000C12012606FA04F41688344013B10CB14D
:1013D000012000E0002070BDF0B503460024002687
:1013E0000025002040F66A17B94200D100BF184618
:1013F000C1F3421401F01F06012707FA06F5012C7C
:1014000001D10C3004E0022C01D1103000E0143086
:101410001AB107682F43076002E00768AF4307600F
:10142000F0BD00002DE9F04786B005460E460024C9
:10143000A24600BFA1460027B08900B100BF2F46D9
:101440002C8A4CF6FF700440F08804432C82AC894F
:101450004EF6F3100440B08831890843718908437F
:101460000443AC81AC8A4FF6FF400440B08904438A
:10147000AC8201A8FFF766FD1F48874202D1DDF864
:1014800010A001E0DDF80CA0A88900F4004040B1F4
:101490000AEBCA0000EB0A1031684900B0FBF1F812
:1014A00007E00AEBCA0000EB0A1031688900B0FBC4
:1014B000F1F86420B8FBF0F004012009642101FB7D
:1014C0001089A88900F4004040B1322000EBC90027
:1014D000B0FBF1F000F00700044308E0322000EB1D
:1014E00009106421B0FBF1F000F00F0004432C81DF
:1014F00006B0BDE8F087000000380140C1F30802E3
:10150000828070470FB4054B10B503A9044A0298B6
:1015100000F0CAF810BC5DF814FB0000811E000842
:101520007C00002002E008C8121F08C1002AFAD17E
:1015300070477047002001E001C1121F002AFBD153
:10154000704700002DE9FF5FDDE90220010DDDF8A5
:1015500038B0024318D044F61050A1F2FF31414395
:101560000D140F98012820D0A5EB0B00401C5FEA5A
:10157000000A4FF00004474EDFF81C91A046504689
:1015800016D5CAF1000728E00F98012443A20128CC
:1015900008D0002100980F9BC0E90021C0E9024358
:1015A000BDE8FF9F6FEA0B01F4E7CBF10000DEE737
:1015B000074612E0F80707D0224633464046494620
:1015C000FFF7BDF880468946224633461046194645
:1015D000FFF7B5F804460E467F10002FEAD1DDE98B
:1015E0000201BAF1000F42464B4602DAFFF7A7F8B4
:1015F00001E0FEF781FE04460E460022284BFFF76D
:1016000029F903D84FF0FF30014607E00022254BAF
:1016100020463146FEF7ECFFFFF703F9102409E0FE
:10162000002C0ADB0A220023FEF71DFF019B30324B
:101630001A55641E50EA0102F2D1641C019AC4F1E9
:10164000110314440F9A012A03D0012208430DD13B
:101650000AE0084304D000204FF0110B0F9080E700
:10166000A3EB0B056D1E0DE05B4504DD4FF00002A2
:1016700005F1010504E003DA4FF00002A5F10105D0
:10168000002AECD000980F99C0E90231C0E900456A
:1016900086E70000000024400000F03F300000001A
:1016A0000000F0430000E03F2DE9FF4F95B09B465E
:1016B0008946064600250FE2252877D100242746D3
:1016C000F84A0121059400E0044316F8013F203B4D
:1016D00001FA03F01042F7D130782A2811D06FF0C8
:1016E0002F033078A0F13002092A16D8059A44F069
:1016F000020402EB820203EB42021044761C0590C6
:10170000EFE759F8042B0592002A03DA504244F41B
:101710000054059044F00204761C30782E2816D12F
:1017200016F8010F44F004042A280DD06FF02F02A0
:101730003078A0F13003092B09D807EB870302EBBF
:101740004303C718761CF3E759F8047B761C3078FE
:101750006C280FD006DC4C2817D068280DD06A28DA
:1017600014D104E0742810D07A280FD10DE044F48D
:1017700000140AE044F4801401E044F44014727848
:10178000824202D104F58014761C761C30786628DB
:101790000BD013DC582877D009DC002875D04528F9
:1017A000F6D04628F4D047281AD19DE118E06328E6
:1017B00035D0642879D0652812D195E1702873D08E
:1017C00008DC6728F1D069286FD06E280DD06F280B
:1017D00006D1B5E073282CD0752875D0782874D040
:1017E0005A46179990476D1C75E1C4F302500228C0
:1017F00009D003280DD0D9F8001004280DD00D60B1
:1018000009F1040967E1D9F80010EA17C1E90052AB
:10181000F6E7D9F800100D80F2E70D70F0E719F83F
:10182000041B8DF8001000208DF80100EA4601200D
:1018300003E059F804AB4FF0FF3061074FF00001AF
:1018400002D40DE008F101018846B9420FDA804563
:10185000F8DB1AF808100029F4D108E008F10101BA
:1018600088468142FADB1AF808100029F6D105985B
:101870005B46A0EB080721463846179A00F094FA19
:10188000284400EB080507E04DE029E10DE01AF8D7
:10189000010B5A4617999047B8F10108F7D25B46F9
:1018A00021463846179A13E142E00A220092C4F317
:1018B00002524FF0000A022A08D059F804CB032A3A
:1018C0004FEAEC710AD00DE029E02AE009F10701A6
:1018D00021F00702F2E802C1914609E00FFA8CFC00
:1018E0004FEAEC71042A03D14FFA8CFC4FEAEC71F9
:1018F000002907DA0A460021DCF1000C61EB020145
:101900002D2202E0220504D52B228DF8042001228D
:1019100003E0E20701D02022F7E7904659E00A21D0
:1019200002E010220DE010214FF0000A00910BE0C0
:1019300010224FF0000A44F004040827009203E04C
:1019400008224FF0000A0092C4F30252022A05D086
:1019500059F804CB0021032A08D009E009F1070156
:1019600021F00702F2E802C1914605E01FFA8CFC63
:10197000042A01D10CF0FF0C4FF00008220728D5F3
:10198000702806D0009B83F0100353EA0A0305D0A9
:101990000EE040228DF80420012208E05CEA0102FA
:1019A00006D030228DF804208DF8050002229046E2
:1019B000009B83F0080353EA0A030AD15CEA0102A0
:1019C00001D1620705D530228DF804204FF00108BF
:1019D0007F1E582804D034A003900EA802900DE07A
:1019E00036A0F9E753466046009AFEF73CFD844670
:1019F0000398825C0298401E029002705CEA01002B
:101A0000F0D1029806A9081A00F1200A600702D551
:101A100024F4803400E00127574502DDA7EB0A00DB
:101A200000E0002000EB0A01009005984144401AB4
:101A30000590E00306D45B462146179A059800F00E
:101A4000B3F90544002706E001A85A46C05D17997E
:101A500090476D1C7F1C4745F6DBE0030CD55B46C9
:101A60002146179A059800F09FF9054404E03020BC
:101A70005A46179990476D1C0099481E00900029FE
:101A8000F5DC08E0029802995A460078491C029158
:101A9000179990476D1CBAF10001AAF1010AF1DC17
:101AA00065E1000009280100303132333435363722
:101AB000383961626364656600000000303132339A
:101AC000343536373839414243444546000000003A
:101AD00000F058F90544761C307800287FF4ECAD0E
:101AE00019B02846BDE8F08F620700D4062709F137
:101AF000070222F0070CFCE80223E14603F000484D
:101B00005FEA080C02D00FF2702C0DE05FEA045C73
:101B100002D50FF2682C07E05FEAC47C02D00FF216
:101B2000602C01E0AFF2700C4FF0FF3823F000435F
:101B3000CDF850C065280CD006DC452809D04628D1
:101B40001DD047283DD13DE0662818D067287ED1BA
:101B500038E00021112F01DB112000E0781CCDE9D5
:101B6000000106A90EA8FFF7EDFCDDE90F010E9AB2
:101B700003910021009207F1010A04914DE04FF01A
:101B800000400097CDE9011006A90EA8FFF7DAFC86
:101B9000DDE90F0203920E9B11990022DDF80CA0E3
:101BA0000093049211B9791C00EB010AB7EB0A000B
:101BB00004D4C0F1FF3007F1010A0490AAEB07003A
:101BC000019044E0012F00DA01270021112F01DDEF
:101BD000112000E03846CDE9000106A90EA8FFF764
:101BE000B1FCDDE90F010E9A0391002104910092EE
:101BF000BA4621070CD40399514500DA8A46BAF156
:101C0000010F05DD009AAAF10101515C302908D0CD
:101C1000B84202DA10F1040F06DA0121CDE9011011
:101C200015E0AAF10101E9E7002805DC0499014467
:101C30000491AAEB000102E0411C514500DD8A46F7
:101C40000499401A401C01904FF000400290200778
:101C500004D40198504501DBCDF8048000208DF8B4
:101C60004F0002980DF14F07B0F1004F25D02B2007
:101C70000E9002984FF0020800280CDA40420290C1
:101C80002D200E9007E00A210298FEF7D6FB303196
:101C9000029007F8011DB8F10001A8F10108F2DC7B
:101CA00002980028EFD1791E0E980870307800F065
:101CB000200040F0450007F8020D12A8C01B00F1FB
:101CC00007081498007800B1012000EB0A01019880
:101CD00001EBE07105984144401A401E0590E00375
:101CE00006D45B462146179A059800F05DF8054436
:101CF0001498007818B15A46179990476D1CE00364
:101D000024D55B462146179A059800F04DF8054406
:101D10001CE00498002807DBDDE90301884203DDAD
:101D20000098405C179901E0179930205A46904777
:101D3000049805F10105401C04900198401E019093
:101D400004D12E205A46179990476D1CBAF1000114
:101D5000AAF1010ADDDC05E017F8010B5A461799D4
:101D600090476D1CB8F10001A8F10108F4DC5B4656
:101D70002146179A0598ABE62D0000002B000000C5
:101D8000200000002DE9F041044600251E461746BC
:101D9000880404D405E039462020B0476D1C641E39
:101DA000F9D52846BDE8F0812DE9F041044600252B
:101DB0001E469046C80301D5302700E0202788043E
:101DC00004D505E041463846B0476D1C641EF9D580
:101DD0002846BDE8F081000030B503464FF0E0240E
:101DE000A169254C248803FB04F200204FF0E02475
:101DF0006469B2FBF4F4214D2C704FF0E024646967
:101E0000B2FBF4F504FB1520814215D9081A00BF76
:101E10001A4C2478002CFBD10A2806D200BF4FF0C0
:101E2000E024A4690A2CFAD824E000BF4FF0E02493
:101E3000A4698442FAD81DE0104C2478641C0F4D2C
:101E40002C704FF0E02464690C44201A00BF0B4C46
:101E50002478002CFBD10A2806D200BF4FF0E024E2
:101E6000A4690A2CFAD805E000BF4FF0E024A46969
:101E70008442FAD830BD00005E00002061000020DE
:101E800000BF054A128802F04002002AF9D0C2B20F
:101E9000014B1B1D1A8070470038014090B0002094
:101EA0000E900A214820FFF73BF94FF41650FEF739
:101EB000D7FE4FF41650FEF72FFFFEF7A5FF4FF4A5
:101EC0007A70FFF789FF4FF47A70FFF785FFF7E22A
:101ED0004FF47A70FFF780FF0E98401CC0B20E904E
:101EE0000E98142813DD00200E90F3A0FFF70AFBD4
:101EF000F74800F015FB6420FFF76EFFF54800F08F
:101F00000FFB6420FFF768FFF3A0FFF7FBFAF74829
:101F1000C0880790FEF768FAF5490890FEF7AEF919
:101F20000A90F24840790890FEF75EFA09900A9903
:101F3000FEF71AF90B90FEF76DFACDE90C01014698
:101F40000D98CDE90210E9480079E849C978CDE952
:101F50000010E64880780B90E44840780A90E34807
:101F6000007809900146E3A0DDE90A23FFF7CAFAE9
:101F70000A20FFF731FFE748B0F904000490FEF7AC
:101F80002AFA4FF08E410590FEF778F94FF0834121
:101F90000690FEF741F90790FEF73CFACDE90C01F7
:101FA000DC48B0F902000490FEF715FA4FF08E41BC
:101FB0000590FEF763F94FF083410690FEF72CF988
:101FC0000790FEF727FACDE90A01D248B0F90000E0
:101FD0000490FEF700FA4FF08E410590FEF74EF99F
:101FE0004FF083410690FEF717F90790FEF712FABB
:101FF000CDE90801DDE90C01CDE90201DDE90A01C5
:10200000CDE90001C4A0DDE90823FFF77BFA0A202F
:10201000FFF7E2FEC648B0F904000490FEF7DBF9D2
:102020004FF08E410590FEF729F9C2490690FEF760
:10203000F3F80790FEF7EEF9CDE90C01BC48B0F9D2
:1020400002000490FEF7C7F94FF08E410590FEF7AD
:1020500015F9B8490690FEF7DFF80790FEF7DAF9B0
:10206000CDE90A01B248B0F900000490FEF7B3F9D7
:102070004FF08E410590FEF701F9AE490690FEF74C
:10208000CBF80790FEF7C6F9CDE90801DDE90C01B0
:10209000CDE90201DDE90A01CDE90001A6A0DDE9F3
:1020A0000823FFF72FFA0A20FFF796FEA848B0F999
:1020B00004000490FEF78FF94FF08E410590FEF773
:1020C000DDF8A4490690FEF7A7F80790FEF7A2F9FD
:1020D000CDE90C019E48B0F902000490FEF77BF9AF
:1020E0004FF08E410590FEF7C9F89A490690FEF729
:1020F00093F80790FEF78EF9CDE90A019448B0F9FC
:1021000000000490FEF767F94FF08E410590FEF74E
:10211000B5F890490690FEF77FF80790FEF77AF938
:10212000CDE90801DDE90C01CDE90201DDE90A0193
:10213000CDE9000188A0DDE90823FFF7E3F90A20D3
:10214000FFF74AFE8A48B0F904000D908848B0F9BC
:1021500002000C908648B0F900000B90014685A063
:10216000DDE90C23FFF7CEF90A20FFF735FE85489D
:1021700040680990FEF72FF983490A90FEF77EF830
:102180000B90FEF747F9CDE90C017E4800680B90F3
:102190000B4601467DA00C9AFFF7B4F90A20FFF721
:1021A0001BFE8148B0F9060000907F48B0F904009A
:1021B0000D907D48B0F902000C907B48B0F900000A
:1021C0000B90014679A0DDE90C23FFF79BF90A206B
:1021D000FFF702FE7B4840687B4990FBF1F201FB70
:1021E00012000390FEF705F90022784BCDE90401B7
:1021F000FEF782F8CDE90C0172484068724990FB05
:10220000F1F00B906F48006890FBF1F201FB1200B7
:102210000390FEF7EEF800226C4BCDE90401FEF7C7
:102220006BF8CDE9080167480068674990FBF1F059
:102230000790DDE90C01CDE902010B98009064A044
:1022400007A90EC9FFF75EF90A20FFF7C5FD6C4824
:1022500040680590FEF7BFF825490690FEF70EF896
:102260000790FEF7D7F8CDE90C016548B0F90200F8
:102270000590FEF7B0F863490690FDF7FFFF079061
:10228000FEF7C8F8CDE90A015D48B0F900000590F5
:10229000FEF7A1F85B490690FDF7F0FF0790FEF707
:1022A000B9F8CDE90801DDE90C01CDE90201DDE96C
:1022B0000A01CDE90001A7E0D5FDD4DABDF8D0D000
:1022C000BCD3CBD9B6C8D0A3D7BC0D0A0000000040
:1022D0005000002055000020BCD3CBD9B6C8D0A3F5
:1022E000D7BCCDEAB3C90D0A0000000000000020F1
:1022F00000007A4454696D653A323025642D2564B6
:102300002D25642025643A25643A252E33660D0A6E
:1023100000000000080000204163633A252E336668
:1023200020252E336620252E33660D0A000000007E
:10233000100000200000FA444779726F3A252E33CE
:102340006620252E336620252E33660D0A000000F8
:102350001800002000003443416E676C653A252E5A
:10236000336620252E336620252E33660D0A0000A5
:10237000200000204D61673A2564202564202564F3
:102380000D0A0000300000200000C8425072657342
:10239000737572653A256C642048656967687425B1
:1023A0002E32660D0A00000028000020445374619C
:1023B0007475733A25642025642025642025640DF6
:1023C0000A0000003800002080969800006AF8405B
:1023D0004C6F6E6769747564653A256C6444656713
:1023E000252E35666D204C61747469747564653A88
:1023F000256C64446567252E35666D0D0A00000066
:1024000040000020000020412EA0DDE90823FFF756
:1024100079F80A20FFF7E0FC3648B0F9060003908F
:10242000FDF7D9FF4FF08E410490FDF727FF05908F
:10243000FDF7F0FFCDE90C012E48B0F90400039040
:10244000FDF7C9FF4FF08E410490FDF717FF05908F
:10245000FDF7E0FFCDE90A012648B0F9020003903C
:10246000FDF7B9FF4FF08E410490FDF707FF05908F
:10247000FDF7D0FFCDE908011E48B0F90000039038
:10248000FDF7A9FF4FF08E410490FDF7F7FE059090
:10249000FDF7C0FFCDE90601DDE90C01CDE904013E
:1024A000DDE90A01CDE90201DDE90801CDE900011C
:1024B00011A0DDE90623FFF725F80A20FFF78CFCC1
:1024C00006E500004750534865696768743A252E51
:1024D00031666D204750535961773A252E31664455
:1024E000656720475053563A252E33666B6D2F682B
:1024F0000D0A000048000020466F757220656C656B
:102500006D656E74733A252E356620252E3566204E
:10251000252E356620252E35660D0A0D0A00000091
:1025200070B50546002404E0285DFEF767FE601CD8
:10253000C4B2052CF8DB70BD58250008000000204F
:102540008000000024150008D82500088000002025
:102550000007000034150008000000000000000023
:10256000000000000000000000000000000000006B
:10257000000000000000000000000000000000005B
:10258000000000000000000000000000000000004B
:10259000000000000000000000000000000000003B
:1025A0000000000000000000FFAA010100FFAA00D7
:1025B000000000000000000000000000000000001B
:1025C00000000001020304010203040607080902D7
:0825D0000406080000000000F1
:0400000508000131BD
:00000001FF
