:020000040800F2
:10000000000002202D2D000871240008772400082C
:100010007D240008832400088924000800000000D3
:10002000000000000000000000000000D1B900083E
:100030008F2400080000000021BC000889BC0008D3
:100040007D2D00087D2D00087D2D00087D2D0008E8
:100050007D2D00087D2D00087D2D00087D2D0008D8
:100060007D2D00087D2D00087D2D00089D240008B1
:10007000B1240008C5240008D9240008ED24000894
:1000800001250008152500087D2D00087D2D00089C
:100090007D2D00087D2D00087D2D00087D2D000898
:1000A0007D2D00087D2D00087D2D00087D2D000888
:1000B0007D2D00087D2D00087D2D00087D2D000878
:1000C0007D2D00087D2D00087D2D00087D2D000868
:1000D0007D2D0008292500087D260008D12700086D
:1000E0007D2D00087D2D0008000000007D2D0008FA
:1000F0007D2D00087D2D00087D2D00083129000888
:100100007D2D00087D2D00087D2D00087D2D000827
:10011000452900087D2D0008992A00087D2D00083A
:10012000AD2A00087D2D00087D2D00087D2D0008DA
:100130007D2D00087D2D00087D2D00087D2D0008F7
:1001400000000000000000000000000000000000AF
:100150007D2D00087D2D00087D2D00087D2D0008D7
:100160007D2D00087D2D00087D2D00087D2D0008C7
:100170007D2D00087D2D00087D2D00087D2D0008B7
:100180007D2D00087D2D00087D2D0008C12A000866
:100190007D2D00087D2D00087D2D00087D2D000897
:1001A0007D2D00087D2D00087D2D00087D2D000887
:1001B0007D2D00087D2D00087D2D00087D2D000877
:1001C0007D2D00087D2D00087D2D00087D2D000867
:1001D0007D2D00087D2D00087D2D00087D2D000857
:1001E0007D2D00087D2D00087D2D00087D2D000847
:1001F0007D2D00087D2D00087D2D00087D2D000837
:100200007D2D00087D2D00087D2D00087D2D000826
:100210007D2D00087D2D00087D2D00087D2D000816
:100220007D2D00087D2D00087D2D000800000000B8
:100230007D2D00087D2D0008000000007D2D0008A8
:100240007D2D00087D2D00087D2D00087D2D0008E6
:100250007D2D00087D2D00087D2D00087D2D0008D6
:100260007D2D00087D2D00087D2D00087D2D0008C6
:100270007D2D00087D2D00087D2D00080000000068
:100280007D2D00087D2D00087D2D00080000000058
:08029000000000007D2D0008B4
:1002A00010B5054C237833B9044B13B10448AFF3B0
:1002B00000800123237010BD140000200000000006
:1002C00054C1000808B5034B1BB103490348AFF301
:1002D000008008BD000000001800002054C1000884
:1002E00053B94AB9002908BF00281CBF4FF0FF319D
:1002F0004FF0FF3000F06EB9ADF1080C6DE904CE9F
:1003000000F006F8DDF804E0DDE9022304B07047F0
:100310002DE9F047089D04468C46002B40F0838071
:100320008A42174647D9B2FA82F242B1C2F120009E
:1003300024FA00F09140974040EA010C94404FEAC3
:100340001748230CBCFBF8F61FFA87FE08FB16C102
:1003500043EA014306FB0EF1994209D9FB1806F165
:10036000FF3080F01981994240F21681023E3B44F1
:100370005B1AA4B2B3FBF8F008FB103344EA034461
:1003800000FB0EFEA64509D93C1900F1FF3380F0B1
:100390000581A64540F2028102383C4440EA06400D
:1003A000A4EB0E0400261DB1D4400023C5E9004390
:1003B0003146BDE8F08702B9FFDEB2FA82F2002AC8
:1003C00050D1CB1B4FEA174E1FFA87F80126B3FB1B
:1003D000FEFC210C0EFB1C3341EA034108FB0CF32D
:1003E0008B4207D979180CF1FF3002D28B4200F210
:1003F000E9808446C91AA3B2B1FBFEF00EFB1011CE
:1004000043EA014408FB00F8A04507D93C1900F174
:10041000FF3302D2A04500F2D9801846A4EB0804AD
:1004200040EA0C40BFE78B4209D9002D00F0B180B3
:100430000026C5E9000130463146BDE8F087B3FA31
:1004400083F6002E4AD18B4202D3824200F2B8805A
:10045000841A61EB030101208C46002DA8D0C5E968
:10046000004CA5E7C2F1200320FA03F6974001FAF9
:1004700002F04FEA174ED9403043030CB1FBFEF6B1
:100480001FFA87F80EFB161143EA014306FB08F139
:10049000994204FA02F409D9FB1806F1FF3C80F0F6
:1004A0008D80994240F28A80023E3B445B1A81B2C1
:1004B000B3FBFEF00EFB103341EA034100FB08F3EF
:1004C0008B4207D9791800F1FF3C73D28B4271D966
:1004D00002383944CB1A40EA064678E7C6F1200CC8
:1004E00003FA06F422FA0CF31C4320FA0CF701FA83
:1004F00006F34FEA144E21FA0CF11F433B0CB1FBFB
:10050000FEF91FFA84F80EFB191143EA014109FBB9
:1005100008FA8A4502FA06F200FA06F308D96118C9
:1005200009F1FF3048D28A4546D9A9F10209214490
:10053000A1EB0A01BFB2B1FBFEF00EFB101147EABE
:10054000014700FB08F8B84507D9E71900F1FF316A
:100550002ED2B8452CD90238274440EA0940A7EBEF
:100560000807A0FB02894F45C64649461AD317D053
:100570005DB1B3EB0E0267EB010707FA0CFCF2402A
:100580004CEA0202F740C5E9002700263146BDE8E3
:10059000F0872E4628460BE70646E9E61846FDE6B4
:1005A0004345E5D2B8EB020E69EB04010138DFE701
:1005B0000846D2E760468DE78146B9E7664675E7AB
:1005C00030464AE7ACF1020C394413E702383C44A8
:1005D00024E700BF704700BF80B483B000AF7860ED
:1005E000244A7B6813607B680133234A13607B686D
:1005F0000333224A13607B680533214A13607B680A
:100600000733204A13607B6809331F4A13607B68F5
:100610000B331E4A13607B680D331D4A13607B68E1
:100620000F331B4A53607B681133194A93607B6810
:100630001333174AD3607B681533154A13617B68FF
:100640001733134A53617B681933124A13607B686E
:100650001B33114A13607B681C33104A13607B689C
:100660001D330F4A136000BF0C37BD465DF8047B95
:10067000704700BF30000020340000203800002008
:100680003C000020400000204400002048000020E2
:100690004C00002064000020680000206C00002056
:1006A0007000002080B400AF054B1B681B7803F07E
:1006B0000603DBB21846BD465DF8047B704700BFF9
:1006C0006800002080B485B000AF0346FB710B4684
:1006D000BB8013467B80FB79042B40F08E80984BC7
:1006E00000221A70BA887B88D31A07EE903AF8EE87
:1006F000E77A944BC3ED007A934B93ED007A914BDC
:10070000D3ED007A77EE277A8F4BC3ED007A8D4BCD
:10071000D3ED007A9FED8D7A27EE877A8A4BD3ED61
:10072000007A77EEA77A37EE277A894BD3ED006A05
:10073000844BD3ED007A76EEE77ADFED866A67EEDA
:10074000A67A77EE277AFDEEE77A17EE903A1BB29B
:10075000B3F57A7F4CDA7B4BD3ED007A9FED7B7A51
:1007600027EE877A784BD3ED007A77EEA77A37EECB
:10077000277A774BD3ED006A724BD3ED007A76EE91
:10078000E77ADFED746A67EEA67A77EE277AFDEEF8
:10079000E77A17EE903A1BB213F57A7F25DD694BA5
:1007A000D3ED007A9FED697A27EE877A664BD3ED19
:1007B000007A77EEA77A37EE277A654BD3ED006A99
:1007C000604BD3ED007A76EEE77ADFED626A67EE92
:1007D000A67A77EE277AFDEEE77A17EE903A1BB20B
:1007E0009BB203F2DC539BB204E04FF4FA7301E0D6
:1007F00040F6C413BB81BB899BE0FB79022B40F020
:1008000088804F4B00221A70BA887B88D31A07EE73
:10081000903AF8EEE77A4B4BC3ED007A4A4B93EDF2
:10082000007A484BD3ED007A77EE277A464BC3ED3A
:10083000007A444BD3ED007A9FED477A27EE877A12
:10084000414BD3ED007A37EE277A414BD3ED006A66
:100850003C4BD3ED007A76EEE77ADFED406A67EE47
:10086000A67A77EE277AFDEEE77A17EE903A1BB27A
:10087000B3F57A7F48DA334BD3ED007A9FED367AC1
:1008800027EE877A304BD3ED007A37EE277A304B5C
:10089000D3ED006A2B4BD3ED007A76EEE77ADFEDED
:1008A0002F6A67EEA67A77EE277AFDEEE77A17EEE3
:1008B000903A1BB213F57A7F23DD224BD3ED007AF9
:1008C0009FED257A27EE877A1F4BD3ED007A37EE1E
:1008D000277A1F4BD3ED006A1A4BD3ED007A76EEE0
:1008E000E77ADFED1E6A67EEA67A77EE277AFDEEED
:1008F000E77A17EE903A1BB29BB203F2DC539BB23D
:1009000004E04FF4FA7301E040F6C413FB81FB8965
:100910000FE00B4B1B78002B0AD1094B01221A70F8
:10092000084B4FF000021A60074B4FF000021A60AC
:10093000002318461437BD465DF8047B704700BF9E
:10094000D4000020D8000020DC0000200000484334
:10095000E0000020000096430000C842000016435B
:1009600090B585B000AFF860B9607A603B60394AF5
:10097000BB681360384A7B681360384A3B68136071
:10098000FB6825221A70FB682733FF221A70FB6868
:100990002833FF221A70324AFB681360FB68013368
:1009A000304A1360FB6802332F4A1360FB6804333C
:1009B0002E4A1360FB6806332C4A5360FB680833E9
:1009C0002B4A1360FB680A332A4A1360FB680C3316
:1009D000284A5360FB680E33264A9360FB68103345
:1009E000254A1360FB681233234A5360FB681433B3
:1009F000214A9360FB681633204A1360FB68183362
:100A00001E4A5360FB681A331C4A9360FB681C3310
:100A10001B4A1360FB681E33194A5360FB6820337E
:100A2000174A9360FB682233164A1360FB6824332D
:100A3000154A1360FB682633144A1360134B1C6875
:100A40002621F86800F0F8F80346237000BF143739
:100A5000BD4690BDC8000020D0000020CC00002082
:100A600074000020780000207C000020800000201E
:100A7000880000208C00002098000020A4000020A6
:100A8000B0000020BC000020C0000020C4000020F6
:100A900090B585B000AFBA601A460346FB730B46AB
:100AA000BB811346FB80414B1B6800221A70FB7B05
:100AB000002B07D03D4B1B681A783C4B1B68023259
:100AC000D2B21A703A4B1B681B78002B11D1394BEC
:100AD0001B68BA891A80384B1B68BA6812881A805A
:100AE000354B5B68BA6852881A80344B1B68FA88A9
:100AF0001A80334B1B681B78002B3BD1314B1B6892
:100B00003A6A12881A802F4B5B683A6A52881A80B8
:100B10002C4B9B683A6A92881A802B4B1B687A6A26
:100B200012881A80284B5B687A6A52881A80264B92
:100B30009B687A6A92881A80244B1B68BA6A12886A
:100B40001A80224B5B68BA6A52881A801F4B9B68D6
:100B5000BA6A92881A801E4B1B68FA6A12881A8039
:100B60001B4B5B68FA6A52881A80194B9B68FA6AB9
:100B700092881A80174B1B681B78002B07D1164BE5
:100B80001B683A8E1A80154B1B68BA8E1A80144B5C
:100B90001B68144A14682621184600F04DF80346D5
:100BA000237000BF1437BD4690BD00BF7800002001
:100BB000CC0000207C000020800000208800002065
:100BC000D00000208C00002098000020A40000200D
:100BD000B0000020C8000020BC000020C0000020A1
:100BE00074000020C400002090B583B000AF78608E
:100BF0000B46FB70FB78002B0DD07B6826331C78EE
:100C00002621786800F018F803469C4201D10123A0
:100C10000EE000230CE07B681C331C781C217868F4
:100C200000F00AF803469C4201D1012300E00023B2
:100C300018460C37BD4690BD80B485B000AF7860D3
:100C40000B46FB707B681B78FB730023BB7309E0CA
:100C5000BB7B7A6813441A78FB7B5340FB73BB7BE6
:100C60000133BB73BA7BFB789A42F1D3FB7B184606
:100C70001437BD465DF8047B7047000080B483B034
:100C800000AF7860064A7B6813607B680233054AD0
:100C9000136000BF0C37BD465DF8047B704700BF92
:100CA000E4000020E800002080B483B000AF78604A
:100CB0003960084B1B681A887B681A80064B1B68D2
:100CC0001A883B681A8000BF0C37BD465DF8047B6C
:100CD000704700BFE4000020E800002080B483B02B
:100CE00000AF78607B680233214A13607B6804336D
:100CF0001F4A53607B6806331D4A93607B68083344
:100D00001C4A13607B680D331B4A13607B680F33EA
:100D1000194A53607B681133174A93607B68133319
:100D2000144A53607B681833144A13607B681A3383
:100D3000124A53607B681C33104A93607B681E33F1
:100D40000C4A93607B6823330D4A13607B6825331C
:100D50000B4A53607B682733094A93607B682933C9
:100D6000044A936000BF0C37BD465DF8047B7047B2
:100D7000EC0000201C010020F800002004010020ED
:100D80001001002080B485B000AFF860B9607A60CF
:100D90003B60254B1B681A88FB681A80224B5A68F7
:100DA000FB68023312881A801F4B9A68FB68043371
:100DB00012881A801D4B1B681A88BB681A801B4B4F
:100DC0005A68BB68023312881A80184B9A68BB684D
:100DD000043312881A80164B1B681A887B681A80A5
:100DE000134B5A687B68023312881A80104B9A683A
:100DF0007B68043312881A800E4B1B681A883B6884
:100E00001A800C4B5A683B68023312881A80094BCF
:100E10009A683B68043312881A8000BF1437BD46B5
:100E20005DF8047B704700BFEC000020F800002054
:100E3000040100201001002080B483B000AF78606E
:100E4000A5227B681A707B68013380221A707B6848
:100E5000023325221A7000BF0C37BD465DF8047BB3
:100E60007047000080B483B000AF78607B680233C5
:100E7000094A13607B680433084A13607B680633B1
:100E8000064A53607B680833054A136000BF0C377D
:100E9000BD465DF8047B70472C0100203001002026
:100EA0003801002080B485B000AFF860B9607A6086
:100EB0000D4B1B681A88FB681A800C4B1B681A883C
:100EC000BB681A80094B5A68BB68023312881A80C3
:100ED000074B1B681A887B681A8000BF1437BD4611
:100EE0005DF8047B704700BF2C010020300100201A
:100EF0003801002080B485B000AFF860B9607A6036
:100F0000FB68074A1A60BB68064A1A607B68802241
:100F10001A6000BF1437BD465DF8047B704700BF00
:100F20003C01002090010020B0B5A6B000AF724B8C
:100F30005B6903F40033002B1BD1BFF34F8F00BF5D
:100F4000BFF36F8F00BF6C4B0022C3F85022BFF37A
:100F50004F8F00BFBFF36F8F00BF674B5B69664A5F
:100F600043F400335361BFF34F8F00BFBFF36F8F64
:100F700000E000BF604B5B6903F48033002B43D17A
:100F80005D4B0022C3F88420BFF34F8F00BF5A4B44
:100F9000D3F88030C7F89430D7F894305B0BC3F3A4
:100FA0000E03C7F89030D7F89430DB08C3F3090379
:100FB000C7F88C30D7F890305A0143F6E0731340ED
:100FC000D7F88C2092074C491343C1F86032D7F808
:100FD0008C305A1EC7F88C20002BEBD1D7F89030FC
:100FE0005A1EC7F89020002BDDD1BFF34F8F00BFF2
:100FF000414B5B69404A43F480335361BFF34F8FE9
:1010000000BFBFF36F8F00E000BF01F0B9FE00F03A
:1010100089F800F00DF900F041FB00F0CFFA00F084
:1010200033F900F04FF900F099F900F0E3F900F01E
:101030002DFA00F077FA314B07F170041D460FCD01
:101040000FC495E8070084E8070007F1700300214A
:10105000184609F006FD0346294A1360294B07F19B
:1010600054041D460FCD0FC495E8070084E807001F
:1010700007F154030021184609F0F3FC0346224A05
:101080001360224B07F138041D460FCD0FC495E8BD
:10109000070084E8070007F138030021184609F02B
:1010A000E0FC03461A4A13601A4B07F11C041D4664
:1010B0000FCD0FC495E8070084E8070007F11C0373
:1010C0000021184609F0CDFC0346134A1360134B68
:1010D0003C461D460FCD0FC495E8070084E8070085
:1010E0003B460021184609F0BCFC03460C4A13603D
:1010F00009F0B0FCFEE700BF00ED00E0A4C100086D
:10110000EC460020C0C100081C490020DCC10008DA
:1011100020490020F8C100082441002014C2000822
:101120007443002080B59CB000AF07F124034C222B
:10113000002118460BF006F83B1D2022002118461E
:101140000BF000F8022004F0E9FF00233B60354B70
:10115000DB6A344A23F00103D362324BDB6A03F0CB
:1011600001033B60304B9B692F4A43F4404393613A
:101170002D4B9B6903F440433B603B6800BF2A4B07
:101180009B6903F40053B3F5005FF8D1274B9B6ACA
:1011900023F00303254A43F00203936209237B6291
:1011A0004FF48033BB620123BB630223BB64022381
:1011B000FB6405233B65A0237B650223BB650623F7
:1011C000FB6502233B6608237B660023BB66002386
:1011D000FB6607F12403184604F0DAFF0346002BF0
:1011E00001D000F09FFD3F237B600323BB60002301
:1011F000FB6008233B6140237B614023BB614FF4CC
:101200008063FB6140233B623B1D0221184605F0D1
:10121000CFFB0346002B01D000F084FD00BF7037E8
:10122000BD4680BD000400580048025800440258E2
:1012300080B5B0B000AF3B1DBC22002118460AF0BB
:1012400081FF03237B601923BB62C023FB6202235F
:101250003B6302237B630223BB630023FB63002306
:101260003B6400237B640223BB671023FB673B1DA9
:10127000184605F06BFF0346002B01D000F052FD2D
:1012800000BFC037BD4680BD80B500AF0B4B0C4AD8
:101290001A600A4B00225A60084B40F2FF72DA6073
:1012A000064B40F2FF729A60044804F0D8FE0346F1
:1012B000002B01D000F036FD00BF80BD1842002099
:1012C0000048005880B500AF224B234A1A60214BDA
:1012D0004FF461225A601F4B00229A601D4B00227E
:1012E000DA601C4B00221A611A4B0C225A61194B0E
:1012F00000229A61174B0022DA61164B00221A6213
:10130000144B00225A62134B00229A62114807F0D4
:1013100051FD0346002B01D000F004FD00210D48D3
:1013200009F0B6FA0346002B01D000F0FBFC0021C7
:10133000084809F0EBFA0346002B01D000F0F2FC5C
:10134000044809F06CFA0346002B01D000F0EAFCD7
:1013500000BF80BDDC470020004C004080B500AFDE
:10136000224B234A1A60214B4FF4E1325A601F4B43
:1013700000229A601D4B0022DA601C4B00221A6189
:101380001A4B0C225A61194B00229A61174B00220A
:10139000DA61164B00221A62144B00225A62134B78
:1013A00000229A62114807F005FD0346002B01D088
:1013B00000F0B8FC00210D4809F06AFA0346002B42
:1013C00001D000F0AFFC0021084809F09FFA034665
:1013D000002B01D000F0A6FC044809F020FA0346D7
:1013E000002B01D000F09EFC00BF80BD1047002004
:1013F000007C004080B500AF224B234A1A60214B8D
:101400004FF461225A601F4B00229A601D4B00224C
:10141000DA601C4B00221A611A4B0C225A61194BDC
:1014200000229A61174B0022DA61164B00221A62E1
:10143000144B00225A62134B00229A62114807F0A3
:10144000B9FC0346002B01D000F06CFC00210D48D4
:1014500009F01EFA0346002B01D000F063FC0021C6
:10146000084809F053FA0346002B01D000F05AFC5B
:10147000044809F0D4F90346002B01D000F052FCD7
:1014800000BF80BD584500200010014080B500AF6E
:10149000224B234A1A60214B4FF4E1325A601F4B12
:1014A00000229A601D4B0022DA601C4B00221A6158
:1014B0001A4B0C225A61194B00229A61174B0022D9
:1014C000DA61164B00221A62144B00225A62134B47
:1014D00000229A62114807F06DFC0346002B01D0F0
:1014E00000F020FC00210D4809F0D2F90346002B42
:1014F00001D000F017FC0021084809F007FA034664
:10150000002B01D000F00EFC044809F088F90346D6
:10151000002B01D000F006FC00BF80BD6C4800200D
:101520000044004080B500AF224B234A1A60214B93
:101530004FF4E1325A601F4B00229A601D4B00228B
:10154000DA601C4B00221A611A4B0C225A61194BAB
:1015500000229A61174B0022DA61164B00221A62B0
:10156000144B00225A62134B00229A62114807F072
:1015700021FC0346002B01D000F0D4FB00210D48D4
:1015800009F086F90346002B01D000F0CBFB0021C7
:10159000084809F0BBF90346002B01D000F0C2FB5C
:1015A000044809F03CF90346002B01D000F0BAFBD7
:1015B00000BF80BDD44200200048004080B582B00A
:1015C00000AF354BD3F8D830334A43F00103C2F8AB
:1015D000D830314BD3F8D83003F001037B607B68FF
:1015E0002D4BD3F8D8302C4A43F00203C2F8D83040
:1015F000294BD3F8D83003F002033B603B6800224C
:1016000005210B2001F0DCFC0B2001F0F3FC002293
:1016100005210C2001F0D4FC0C2001F0EBFC002291
:1016200005210D2001F0CCFC0D2001F0E3FC00228F
:1016300005210E2001F0C4FC0E2001F0DBFC00228D
:1016400005210F2001F0BCFC0F2001F0D3FC00228B
:101650000521102001F0B4FC102001F0CBFC002289
:101660000521112001F0ACFC112001F0C3FC002287
:1016700005212F2001F0A4FC2F2001F0BBFC00224B
:101680000521382001F09CFC382001F0B3FC00BF9C
:101690000837BD4680BD00BF0044025880B58AB0FF
:1016A00000AF07F1140300221A605A609A60DA60F2
:1016B0001A61374BD3F8E030354A43F01003C2F8D3
:1016C000E030334BD3F8E03003F010033B613B696B
:1016D0002F4BD3F8E0302E4A43F00403C2F8E03039
:1016E0002B4BD3F8E03003F00403FB60FB68284B7E
:1016F000D3F8E030264A43F08003C2F8E030244BB0
:10170000D3F8E03003F08003BB60BB68204BD3F814
:10171000E0301F4A43F00103C2F8E0301C4BD3F81D
:10172000E03003F001037B607B68194BD3F8E030B5
:10173000174A43F00203C2F8E030154BD3F8E0300B
:1017400003F002033B603B6800221021114804F0C3
:101750006DFC10237B610123BB610023FB6100232F
:101760003B6207F1140319460A4804F097FA402334
:101770007B610023BB610023FB6107F11403194661
:10178000044804F08BFA00BF2837BD4680BD00BF77
:10179000004402580010025890B58BB006AF786034
:1017A00002E0012009F0A9F9454B1B78002BF8D085
:1017B000434B00221A7000214248FFF715FA0346F6
:1017C000002B1DD002E0012009F097F93E4B1B7859
:1017D000DBB2002BF7D13C4B01221A700023FB73C4
:1017E00008E0FA7BFB7B3749895C384AD154FB7BA4
:1017F0000133FB73FB7B1D2BF3D9334B00221A7093
:10180000334B1B681A68324B1B6842F010021A6097
:101810001E222C492E4807F09DFB2E4B01221A70E8
:101820002D4B1B78002B23D002E0012009F065F935
:101830002A4B1B78DBB2002BF7D1284B01221A7000
:101840000023BB7308E0BA7BBB7B2549895C254A32
:10185000D154BB7B0133BB73BB7B282BF3D91F4B0C
:1018600000221A7029221F49194807F0F3FA1CE0D8
:101870001D4B18781D4B19881D4B1C881D4B1B8850
:101880001D4A1288059204931C4B03931C4B029330
:101890001C4B01931C4B009323461C4AFFF7F8F89E
:1018A00029221B490A4807F0D5FA0B4B1B78DB436A
:1018B000DAB2094B1A70174804F020FC74E700BF35
:1018C00091030020F046002099030020A04600204C
:1018D000584500209B030020900300209A0300201D
:1018E0003042002024490020A0030020C203002031
:1018F000C8030020CC030020CA030020BC03002042
:10190000B4030020AC030020A4030020C403002083
:10191000C04600201842002080B584B000AF786037
:1019200002E0012009F0E9F84E4B1B78002BF8D0BB
:10193000FEF7B8FE0346022B13D14B4B1B78002B4E
:1019400006D1494B01221A70484B9A88484B1A809D
:10195000474B1B88454A928819460220FEF7B2FE83
:101960001FE0FEF79FFE0346042B13D13E4B1B786E
:10197000002B06D13C4B01221A703E4B1A883C4B7F
:101980001A803B4B1B883B4A128819460420FEF7FD
:1019900099FE06E0344B00221A7002E0012009F0A3
:1019A000ACF8354B1B78DBB2002BF7D1324B012260
:1019B0001A700023FB7308E0FA7BFB7B2F49895CDC
:1019C0002F4AD154FB7B0133FB73FB7B1D2BF3D9D7
:1019D000294B00221A701E2229492A4807F03AFA98
:1019E00002E0012009F089F8274B1B78002BF8D082
:1019F000254B00221A7001212448FFF7F5F8034611
:101A0000002B1DD002E0012009F077F8204B1B7855
:101A1000DBB2002BF7D11E4B01221A700023BB73DF
:101A200008E0BA7BBB7B1949895C1A4AD154BB7B5D
:101A30000133BB73BB7B282BF3D9154B00221A70E3
:101A4000104B1B681A680F4B1B6842F010021A609B
:101A500029220E490B4807F07DFA0F4804F04EFB8F
:101A600066E700BF9B0300209C030020B403002016
:101A70009E030020CA03002099030020A0460020F6
:101A8000FC480020104700209203002074460020EC
:101A90009A030020304200201842002080B582B016
:101AA00000AF78601B4B1B68184609F0B5FA1A4B5B
:101AB0001B68184609F0B0FA184B1B68184609F065
:101AC000ABFA00221021164804F0B0FA01221021CE
:101AD000134804F0ABFA134B134A14491448FEF7A9
:101AE0003FFF1448FEF778FD0B4B1B68184609F0C2
:101AF00057FB084B1B68184609F052FB0E4804F0D0
:101B0000FDFA0E4B1B68184609F086FA012008F012
:101B1000F4FFFBE724410020EC4600201C49002094
:101B2000001002589703002098030020960300201D
:101B3000C0460020A0460020184200202049002076
:101B400080B582B000AF78604C48FFF7C7F84C48CA
:101B5000FFF772F903224A494A4807F07BF94A48DD
:101B6000FFF780F94948FFF789F84021484804F019
:101B700045FA03461A46474B1A70474B1B78002B11
:101B800028D002E0012008F0B8FF444B1B78DBB2FC
:101B9000002BF7D1414B01221A70414B1B782C2BA3
:101BA00005D1404B404A41494148FFF7EBF83A4BD9
:101BB00000221A703C2234493E4807F0CBF93D4BD5
:101BC0001B681A683B4B1B6842F010021A60334BCB
:101BD00000221A70384B1B78002B23D002E0012022
:101BE00008F08BFF354B1B78DBB2002BF7D1334B62
:101BF00001221A70324A33493348FFF753F92E4B0A
:101C000000221A700F2231491E4807F0A3F91D4B1C
:101C10001B681A681B4B1B6842F010021A60274BA6
:101C200000221A702A4B1B78002B22D002E00120E0
:101C300008F063FF274B1B78DBB2002BF7D1254B55
:101C400001221A7024492548FFF72EF8204B002264
:101C50001A7004222249234807F07CF9214B1B68A3
:101C60001A68204B1B6842F010021A60194B0022C0
:101C70001A701D4804F042FA77E700BF744600204E
:101C80002C4200206C480020A0470020E84500209E
:101C900000100258A00300209503002098030020A4
:101CA000CE030020BC030020B4030020AC030020BE
:101CB000A4030020D44200209403002097030020B6
:101CC000C8030020C4030020C20300206443002096
:101CD0009303002096030020CC030020CA030020B9
:101CE00028420020DC4700201842002080B582B046
:101CF00000AF7860014804F001FAFBE718420020C9
:101D000080B582B000AF78607B681B68044A93425C
:101D100001D101F071F800BF0837BD4680BD00BF9A
:101D20000010004080B400AF72B600BFFEE70000B4
:101D300080B582B000AF0C4BD3F8F4300A4A43F0C0
:101D40000203C2F8F430084BD3F8F43003F0020376
:101D50007B607B6800220F216FF0010001F030F9F9
:101D600000BF0837BD4680BD0044025880B592B020
:101D700000AF786007F1340300221A605A609A605D
:101D8000DA601A617B681B68954A934240F0918043
:101D9000944BD3F8E830934A43F40023C2F8E83078
:101DA000904BD3F8E83003F400233B633B6B8D4B3F
:101DB000D3F8E0308B4A43F00103C2F8E030894B9E
:101DC000D3F8E03003F00103FB62FB6A03237B637B
:101DD0000223BB630023FB6300233B6408237B6473
:101DE00007F134031946804803F058FF7F4B804ABF
:101DF0001A607E4B3F225A607C4B00229A607B4BDC
:101E00000022DA60794B4FF480621A61774B00222E
:101E10005A61764B00229A61744B0022DA61734B4F
:101E200000221A62714B00225A62704801F0F0F8E9
:101E30000346002B01D0FFF775FF7B686B4ADA671A
:101E40006A4A7B6893636B4B6B4A1A60694B40220A
:101E50005A60684B40229A60664B0022DA60654BFC
:101E60004FF480621A61634B00225A61614B002279
:101E70009A61604B0022DA615E4B00221A625D4B70
:101E800000225A625B4801F0C3F80346002B01D0E0
:101E9000FFF748FF7B68574A9A67564A7B68936307
:101EA00000220521342001F08BF8342001F0A2F843
:101EB00063E27B681B68514A934240F0AB80494B18
:101EC000D3F8E830474A43F00043C2F8E830454BC6
:101ED000D3F8E83003F00043BB62BB6A414BD3F850
:101EE000E030404A43F01003C2F8E0303D4BD3F8F5
:101EF000E03003F010037B627B6A03237B630223E1
:101F0000BB630023FB6300233B6408237B6407F16E
:101F1000340319463A4803F0C1FE3A4B3A4A1A6074
:101F2000384B51225A60374B00229A60354B0022C1
:101F3000DA60344B4FF480621A61324B00225A61EE
:101F4000304B00229A612F4B0022DA612D4B002288
:101F50001A622C4B00225A622A4801F059F80346B3
:101F6000002B01D0FFF7DEFE7B68264ADA67254AA0
:101F70007B689363254B264A1A60244B52225A6091
:101F8000224B40229A60214B0022DA601F4B4FF413
:101F900080621A611D4B00225A611C4B00229A611B
:101FA0001A4B0022DA61194B00221A62174B0022E9
:101FB0005A62164801F02CF80346002B01D0FFF7B7
:101FC000B1FE7B68114A9A67104A7B6893630022CE
:101FD0000521532000F0F4FF532001F00BF8CCE171
:101FE000004C0040004402580000025828410020E4
:101FF000700002405049002088000240007C0040F0
:1020000000100258E0440020A0000240FC450020DF
:10201000B80002407B681B68964A934240F0928069
:10202000954BD3F8F030944A43F01003C2F8F030E7
:10203000914BD3F8F03003F010033B623B6A8E4BB8
:10204000D3F8E0308C4A43F00203C2F8E0308A4B08
:10205000D3F8E03003F00203FB61FB694FF4404327
:102060007B630223BB630023FB6300233B640423E5
:102070007B6407F134031946804803F00FFE804B60
:10208000804A1A607E4B29225A607D4B00229A605A
:102090007B4B0022DA607A4B4FF480621A61784BF6
:1020A00000225A61764B00229A61754B0022DA6158
:1020B000734B00221A62724B00225A62704800F081
:1020C000A7FF0346002B01D0FFF72CFE7B686C4A6C
:1020D000DA676B4A7B6893636B4B6C4A1A606A4B96
:1020E0002A225A60684B40229A60674B0022DA60CD
:1020F000654B4FF480621A61634B00225A61624B58
:1021000000229A61604B0022DA615F4B00221A6262
:102110005D4B00225A625C4800F07AFF0346002BB8
:1021200001D0FFF7FFFD7B68574A9A67564A7B68E4
:10213000936300220521252000F042FF252000F0B6
:1021400059FF1AE17B681B68514A934240F0AC800A
:10215000494BD3F8E830484A43F40033C2F8E8303A
:10216000454BD3F8E83003F40033BB61BB69424B05
:10217000D3F8E030404A43F00103C2F8E0303E4B70
:10218000D3F8E03003F001037B617B690C237B63B0
:102190000223BB630023FB6300233B6407237B64B0
:1021A00007F1340319463B4803F078FD3A4B3B4AAC
:1021B0001A60394B2B225A60374B00229A60364BFB
:1021C0000022DA60344B4FF480621A61324B0022F5
:1021D0005A61314B00229A612F4B0022DA612E4B5B
:1021E00000221A622C4B00225A622B4800F010FF8A
:1021F0000346002B01D0FFF795FD7B68264ADA677E
:10220000254A7B689363264B264A1A60244B2C226E
:102210005A60234B40229A60214B0022DA60204B07
:102220004FF480621A611E4B00225A611C4B00223F
:102230009A611B4B0022DA61194B00221A62184B7B
:1022400000225A62164800F0E3FE0346002B01D03C
:10225000FFF768FD7B68124A9A67114A7B689363AF
:1022600000220521262000F0ABFE262000F0C2FE51
:1022700083E000BF001001400044025800040258EF
:10228000F043002010000240784300202800024064
:102290000044004000000258A041002040000240DD
:1022A00068440020100402407B681B68354A934252
:1022B00063D1354BD3F8E830334A43F48023C2F876
:1022C000E830314BD3F8E83003F480233B613B69BD
:1022D0002D4BD3F8E0302C4A43F00203C2F8E03033
:1022E000294BD3F8E03003F00203FB60FB684FF4A6
:1022F00040637B630223BB630023FB6300233B64D7
:1023000007237B6407F134031946204803F0C6FC19
:102310001F4B204A1A601E4B2D225A601C4B002274
:102320009A601B4B0022DA60194B4FF480621A61ED
:10233000174B00225A61164B00229A61144B00225F
:10234000DA61134B00221A62114B00225A621048C4
:1023500000F05EFE0346002B01D0FFF7E3FC7B6834
:102360000B4ADA670A4A7B6893630022052127201B
:1023700000F026FE272000F03DFE00BF4837BD4696
:1023800080BD00BF004800400044025800040258CD
:102390005C4200205800024080B590B000AF7860E9
:1023A0007B680F2B27D800227968362000F008FEC2
:1023B000362000F01FFE294A7B681360284BD3F8B3
:1023C000E830274A43F01003C2F8E830244BD3F832
:1023D000E83003F01003FB60FB6807F1100207F11F
:1023E00014031146184604F06FFEBB6ABB63BB6B57
:1023F000002B06D101E001232BE004F039FEF86345
:1024000004E004F035FE03465B00FB63FB6B154AFA
:10241000A2FB03239B0C013B7B63134B134A1A6003
:10242000114B40F2E732DA600F4A7B6B53600E4B80
:1024300000221A610C4B00229A600B4806F0E8F962
:102440000346002B04D1084806F044FA034600E096
:10245000012318464037BD4680BD00BF080000205C
:102460000044025883DE1B43C8490020001000408E
:1024700080B400AFFEE780B400AFFEE780B400AFE9
:10248000FEE780B400AFFEE780B400AFFEE780B4A3
:1024900000AF00BFBD465DF8047B704780B500AF5C
:1024A000024802F0DDF800BF80BD00BFF04300200D
:1024B00080B500AF024802F0D3F800BF80BD00BF76
:1024C0007843002080B500AF024802F0C9F800BF91
:1024D00080BD00BFA041002080B500AF024802F0DF
:1024E000BFF800BF80BD00BF5C42002080B500AFD8
:1024F000024802F0B5F800BF80BD00BF28410020AF
:1025000080B500AF024802F0ABF800BF80BD00BF4D
:102510005049002080B500AF024802F0A1F800BF8A
:1025200080BD00BFE044002080B582B000AF002332
:102530007B603F4B1B68DB6903F01003102B0CBF63
:1025400001230023DBB27B607B68002B68D0384B13
:102550001B6810221A62364806F042FD354B1B6894
:10256000354A93424AD0334B1B68344A934245D094
:10257000304B1B68324A934240D02E4B1B68314A85
:1025800093423BD02B4B1B682F4A934236D0294BAA
:102590001B682E4A934231D0264B1B682C4A93422B
:1025A0002CD0244B1B682B4A934227D0214B1B680D
:1025B000294A934222D01F4B1B68284A93421DD0C0
:1025C0001C4B1B68264A934218D01A4B1B68254A9D
:1025D000934213D0174B1B68234A93420ED0154BDE
:1025E0001B68224A934209D0124B1B68204A93422F
:1025F00004D0104B1B681F4A934203D10D4B1B683C
:102600005B6802E00B4B1B685B68094B1B681A6830
:10261000074B1B6822F010021A60174B01221A7038
:10262000034806F04DFD00BF0837BD4680BD00BF22
:1026300058450020F04300201000024028000240CE
:1026400040000240580002407000024088000240F2
:10265000A0000240B80002401004024028040240DA
:1026600040040240580402407004024088040240C2
:10267000A0040240B80402409103002080B582B05B
:1026800000AF00237B603F4B1B68DB6903F0100346
:10269000102B0CBF01230023DBB27B607B68002B77
:1026A00068D0384B1B6810221A62364806F098FC36
:1026B000354B1B68354A93424AD0334B1B68344A2A
:1026C000934245D0304B1B68324A934240D02E4B48
:1026D0001B68314A93423BD02B4B1B682F4A9342D5
:1026E00036D0294B1B682E4A934231D0264B1B68AB
:1026F0002C4A93422CD0244B1B682B4A934227D060
:10270000214B1B68294A934222D01F4B1B68284A41
:1027100093421DD01C4B1B68264A934218D01A4B7B
:102720001B68254A934213D0174B1B68234A9342D8
:102730000ED0154B1B68224A934209D0124B1B68DE
:10274000204A934204D0104B1B681F4A934203D186
:102750000D4B1B685B6802E00B4B1B685B68094B09
:102760001B681A68074B1B6822F010021A60174B8F
:1027700001221A70034806F0A3FC00BF0837BD46CB
:1027800080BD00BF6C480020A04100201000024026
:102790002800024040000240580002407000024001
:1027A00088000240A0000240B8000240100402402D
:1027B00028040240400402405804024070040240D1
:1027C00088040240A0040240B804024094030020A0
:1027D00080B582B000AF00237B60414B1B68DB6992
:1027E00003F01003102B0CBF01230023DBB27B602E
:1027F0007B68002B6CD03A4B1B6810221A62384859
:1028000006F0EEFB374B1B68374A93424AD0354BF4
:102810001B68364A934245D0324B1B68344A934278
:1028200040D0304B1B68334A93423BD02D4B1B6842
:10283000314A934236D02B4B1B68304A934231D0F9
:10284000284B1B682E4A93422CD0264B1B682D4ADE
:10285000934227D0234B1B682B4A934222D0214B13
:102860001B682A4A93421DD01E4B1B68284A93427C
:1028700018D01C4B1B68274A934213D0194B1B6876
:10288000254A93420ED0174B1B68244A934209D025
:10289000144B1B68224A934204D0124B1B68214AF6
:1028A000934204D10F4B1B685B68DBB203E00D4B16
:1028B0001B685B68DBB21C4A1370094B1B681A6803
:1028C000074B1B6822F010021A60184B01221A7085
:1028D000034806F0F5FB00BF0837BD4680BD00BFCA
:1028E000D44200205C420020100002402800024038
:1028F0004000024058000240700002408800024040
:10290000A0000240B8000240100402402804024027
:10291000400402405804024070040240880402400F
:10292000A0040240B8040240CE030020950300201A
:1029300080B500AF024801F093FE00BF80BD00BF2C
:10294000FC45002080B582B000AF00237B603F4B88
:102950001B68DB6903F01003102B0CBF012300235D
:10296000DBB27B607B68002B68D0384B1B68102281
:102970001A62364806F034FB354B1B68354A9342E1
:102980004AD0334B1B68344A934245D0304B1B68C6
:10299000324A934240D02E4B1B68314A93423BD07F
:1029A0002B4B1B682F4A934236D0294B1B682E4A6B
:1029B000934231D0264B1B682C4A93422CD0244B97
:1029C0001B682B4A934227D0214B1B68294A93420C
:1029D00022D01F4B1B68284A93421DD01C4B1B68FA
:1029E000264A934218D01A4B1B68254A934213D0AB
:1029F000174B1B68234A93420ED0154B1B68224A83
:102A0000934209D0124B1B68204A934204D0104BCA
:102A10001B681F4A934203D10D4B1B685B6802E0A1
:102A20000B4B1B685B68094B1B681A68074B1B68DC
:102A300022F010021A60174B01221A70034806F0A8
:102A40003FFB00BF0837BD4680BD00BFDC4700200C
:102A500028410020100002402800024040000240AF
:102A6000580002407000024088000240A00002406E
:102A7000B800024010040240280402404004024012
:102A8000580402407004024088040240A00402403E
:102A9000B80402409303002080B500AF024805F05F
:102AA00089FF00BF80BD00BFC849002080B500AFCE
:102AB000024801F0D5FD00BF80BD00BF6844002082
:102AC00080B582B000AF00237B603F4B1B68DB69A1
:102AD00003F01003102B0CBF01230023DBB27B603B
:102AE0007B68002B68D0384B1B6810221A6236486E
:102AF00006F076FA354B1B68354A93424AD0334B81
:102B00001B68344A934245D0304B1B68324A93428B
:102B100040D02E4B1B68314A93423BD02B4B1B6855
:102B20002F4A934236D0294B1B682E4A934231D00C
:102B3000264B1B682C4A93422CD0244B1B682B4AF3
:102B4000934227D0214B1B68294A934222D01F4B26
:102B50001B68284A93421DD01C4B1B68264A93428F
:102B600018D01A4B1B68254A934213D0174B1B6889
:102B7000234A93420ED0154B1B68224A934209D038
:102B8000124B1B68204A934204D0104B1B681F4A0B
:102B9000934203D10D4B1B685B6802E00B4B1B6833
:102BA0005B68094B1B681A68074B1B6822F0100210
:102BB0001A60174B01221A70034806F081FA00BF11
:102BC0000837BD4680BD00BF10470020E04400200C
:102BD000100002402800024040000240580002401D
:102BE0007000024088000240A0000240B80002408D
:102BF00010040240280402404004024058040240ED
:102C00007004024088040240A0040240B80402405C
:102C10009203002080B400AF394BD3F88830384A93
:102C200043F47003C2F88830364B1B6803F00F037F
:102C3000062B07D8334B1B6823F00F03314A43F0B0
:102C400007031360304B1B682F4A43F001031360E6
:102C50002D4B00221A612C4B1A682B492B4B134029
:102C60000B60284B1B6803F00803002B07D0254B93
:102C70001B6823F00F03234A43F007031360224B22
:102C800000229A61204B0022DA611F4B00221A6257
:102C90001D4B1F4A9A621C4B1E4ADA621A4B1E4A8F
:102CA0001A63194B00225A63174B1B4A9A63164B3F
:102CB0000022DA63144B184A1A64134B00225A6438
:102CC000114B1B68104A23F4802313600E4B002223
:102CD0001A66124B1A68124B1340B3F1005F02D20E
:102CE000104B01221A60104B43F2D2021A60044BBF
:102CF0004FF000629A6000BFBD465DF8047B7047EC
:102D000000ED00E000200052004402587FEDF6EA9A
:102D1000000202020000FF01800201010010005CBD
:102D20000000FFFF0881005100400052DFF834D05E
:102D3000FFF770FF0C480D490D4A002302E0D458FC
:102D4000C4500433C4188C42F9D30A4A0A4C0023F5
:102D500001E013600432A242FBD309F0CFF9FEF781
:102D6000E3F870470000022000000020140000205B
:102D700088C2000814000020184A0020FEE7000066
:102D800080B582B000AF032000F00FF903F0C6FF5A
:102D90000246154B9B691B0A03F00F031349CB5CDA
:102DA00003F01F0322FA03F37B600F4B9B6903F0D0
:102DB0000F030E4AD35C03F01F037A6822FA03F371
:102DC0000B4A13600B4A7B6813600020FFF7E4FA9C
:102DD0000346002B01D0012302E0FEF7A9FF0023E8
:102DE00018460837BD4680BD0044025838C2000866
:102DF000040000200000002080B400AF064B1B78C8
:102E00001A46064B1B681344044A136000BFBD46B4
:102E10005DF8047B704700BF0C000020144A0020BE
:102E200080B400AF034B1B681846BD465DF8047BB9
:102E3000704700BF144A002080B400AF034B1B68EA
:102E40001B0C1846BD465DF8047B70470010005C03
:102E500080B485B000AF78607B6803F00703FB6047
:102E60000B4BDB68BB60BA684FF6FF031340BB60D7
:102E7000FB681A02BB681A43064B1343BB60044A43
:102E8000BB68D36000BF1437BD465DF8047B704754
:102E900000ED00E00000FA0580B400AF044BDB68F1
:102EA0001B0A03F007031846BD465DF8047B704714
:102EB00000ED00E080B483B000AF0346FB80B7F9BB
:102EC0000630002B0BDBFB8803F01F020749B7F924
:102ED00006305B09012000FA02F241F8232000BF0E
:102EE0000C37BD465DF8047B704700BF00E100E091
:102EF00080B483B000AF03463960FB80B7F9063079
:102F0000002B0ADB3B68DAB20C49B7F90630120134
:102F1000D2B20B4483F800230AE03B68DAB20849D6
:102F2000FB8803F00F03043B1201D2B20B441A7664
:102F300000BF0C37BD465DF8047B704700E100E040
:102F400000ED00E080B489B000AFF860B9607A604D
:102F5000FB6803F00703FB61FB69C3F10703042B64
:102F600028BF0423BB61FB690433062B02D9FB692C
:102F7000033B00E000237B614FF0FF32BB6902FAA4
:102F800003F3DA43BB681A407B699A404FF0FF3184
:102F90007B6901FA03F3D9437B680B40134318465E
:102FA0002437BD465DF8047B704780B582B000AF22
:102FB00078607868FFF74CFF00BF0837BD4680BDDA
:102FC00080B586B000AF0346B9607A60FB81FFF739
:102FD00063FF78617A68B9687869FFF7B3FF0246E2
:102FE000B7F90E3011461846FFF782FF00BF1837B9
:102FF000BD4680BD80B582B000AF0346FB80B7F907
:1030000006301846FFF756FF00BF0837BD4680BDA3
:1030100080B586B000AF7860FFF702FF38617B684B
:10302000002B01D1012316E37B681B68664A93429B
:103030004AD07B681B68654A934245D07B681B6811
:10304000634A934240D07B681B68624A93423BD0FC
:103050007B681B68604A934236D07B681B685F4A76
:10306000934231D07B681B685D4A93422CD07B68C9
:103070001B685C4A934227D07B681B685A4A93427C
:1030800022D07B681B68594A93421DD07B681B681D
:10309000574A934218D07B681B68564A934213D014
:1030A0007B681B68544A93420ED07B681B68534A66
:1030B000934209D07B681B68514A934204D07B68D5
:1030C0001B68504A934201D1012300E00023002BEA
:1030D00000F03B817B68002283F834207B68022269
:1030E00083F835207B681B68374A93424AD07B6857
:1030F0001B68364A934245D07B681B68344A93422A
:1031000040D07B681B68334A93423BD07B681B6886
:10311000314A934236D07B681B68304A934231D0A3
:103120007B681B682E4A93422CD07B681B682D4A13
:10313000934227D07B681B682B4A934222D07B683E
:103140001B682A4A93421DD07B681B68284A934219
:1031500018D07B681B68274A934213D07B681B6892
:10316000254A93420ED07B681B68244A934209D0BB
:103170007B681B68224A934204D07B681B68214A03
:10318000934208D17B681B681A687B681B6822F031
:1031900001021A6007E07B681B681A687B681B687D
:1031A00022F001021A602FE0FFF73AFE02463B6967
:1031B000D31A052B28D97B6820225A657B68032205
:1031C00083F83520012346E2100002402800024027
:1031D0004000024058000240700002408800024057
:1031E000A0000240B800024010040240280402403F
:1031F0004004024058040240700402408804024027
:10320000A0040240B80402407B681B681B6803F0FE
:103210000103002BC8D17B681B681B687B617A693E
:10322000834B13407B617B689A687B68DB681A4339
:103230007B681B691A437B685B691A437B689B69DF
:103240001A437B68DB691A437B681B6A13437A69FC
:1032500013437B617B685B6A042B07D17B68DA6A66
:103260007B681B6B13437A6913437B61714B1A684C
:10327000714B1340B3F1005F28D37B685B68282B48
:1032800003D97B685B682E2B17D97B685B683E2B64
:1032900003D97B685B68422B0FD97B685B68462B40
:1032A00003D97B685B68482B07D97B685B684E2B2A
:1032B00005D97B685B68522B01D8012300E000230D
:1032C000002B03D07B6943F480137B617B681B6810
:1032D0007A691A607B681B685B697B617B6923F094
:1032E00007037B617B685B6A7A6913437B617B6858
:1032F0005B6A042B17D17B689B6A7A6913437B61F5
:103300007B68DB6A002B0ED0786802F03DFB034639
:10331000002B08D07B6840225A657B68012283F825
:103320003520012397E17B681B687A695A617868C8
:1033300002F078FA0346BB607B68DB6D03F01F0385
:103340003F229A40BB689A60CDE07B681B683B4A8D
:10335000934222D07B681B68394A93421DD07B6818
:103360001B68384A934218D07B681B68364A9342E0
:1033700013D07B681B68354A93420ED07B681B686C
:10338000334A934209D07B681B68324A934204D087
:103390007B681B68304A934201D1012300E000237F
:1033A000002B00F097807B681B68244A934221D051
:1033B0007B681B68224A93421CD07B681B68214AA9
:1033C000934217D07B681B681F4A934212D07B68D8
:1033D0001B681E4A93420DD07B681B681C4A9342AF
:1033E00008D07B681B681B4A934203D07B681B682C
:1033F000194A934200BF7B68002283F834207B681F
:10340000022283F835207B681B681B687B617A6920
:10341000124B13407B617B689B68402B20D07B68FC
:103420009B68802B02D14FF480431AE0002318E000
:103430003F8010FE0010005C0000FFFF085402589F
:103440001C540258305402584454025858540258DC
:103450006C54025880540258945402580F00FEFFD6
:1034600010237A68D268D2081A437B681B69DB088C
:103470001A437B685B69DB081A437B689B69DB083E
:103480001A437B68DB69DB081A437B681B6A1B09EC
:1034900013437A6913437B617B681B687A691A60FE
:1034A0007B681B681A466E4B13446E4AA2FB0323CB
:1034B0001B099A007B68DA65786802F0B3F9034665
:1034C000FB607B68DB6D03F01F0301229A40FB6801
:1034D0005A6008E07B6840225A657B68032283F8C3
:1034E00035200123B7E07B681B685F4A934272D0A6
:1034F0007B681B685D4A93426DD07B681B685C4AA1
:10350000934268D07B681B685A4A934263D07B68B9
:103510001B68594A93425ED07B681B68574A9342A6
:1035200059D07B681B68564A934254D07B681B680D
:10353000544A93424FD07B681B68534A93424AD007
:103540007B681B68514A934245D07B681B68504A90
:10355000934240D07B681B684E4A93423BD07B68C5
:103560001B684D4A934236D07B681B684B4A934296
:1035700031D07B681B684A4A93422CD07B681B6819
:10358000484A934227D07B681B68474A934222D01F
:103590007B681B68454A93421DD07B681B68444A80
:1035A000934218D07B681B68424A934213D07B68D1
:1035B0001B68414A93420ED07B681B683F4A934286
:1035C00009D07B681B683E4A934204D07B681B6825
:1035D0003C4A934201D1012300E00023002B32D06A
:1035E000786802F04DFA7B689B68802B02D17B687B
:1035F00000225A607B685A687B681B6ED2B21A60E0
:103600007B685B6E7A68926E5A607B685B68002BA1
:1036100010D07B685B68082B0CD8786802F0CAFA77
:103620007B68DB6E00221A607B681B6F7A68526FC2
:103630005A6008E07B680022DA667B6800221A671D
:103640007B6800225A677B6800225A657B680122EA
:1036500083F83520002318461837BD4680BD00BFCB
:10366000F8ABFDA7CDCCCCCC100002402800024026
:1036700040000240580002407000024088000240B2
:10368000A0000240B800024010040240280402409A
:103690004004024058040240700402408804024082
:1036A000A0040240B8040240085402581C540258B6
:1036B0003054025844540258585402586C5402581A
:1036C000805402589454025880B586B000AFF86018
:1036D000B9607A603B600023FB75FB68002B01D169
:1036E000012326E2FB6893F83430012B01D1022339
:1036F0001FE2FB68012283F83420FB6893F8353021
:10370000DBB2012B40F00A82FB68022283F83520ED
:10371000FB6800225A65FB681B68684A93424AD0DE
:10372000FB681B68664A934245D0FB681B68654A84
:10373000934240D0FB681B68634A93423BD0FB68CE
:103740001B68624A934236D0FB681B68604A93420A
:1037500031D0FB681B685F4A93422CD0FB681B6822
:103760005D4A934227D0FB681B685C4A934222D093
:10377000FB681B685A4A93421DD0FB681B68594A74
:10378000934218D0FB681B68574A934213D0FB68DA
:103790001B68564A93420ED0FB681B68544A9342FA
:1037A00009D0FB681B68534A934204D0FB681B682E
:1037B000514A934208D1FB681B681A68FB681B6872
:1037C00022F001021A6007E0FB681B681A68FB68B8
:1037D0001B6822F001021A603B687A68B968F868D1
:1037E00001F074FEFB681B68344A93424AD0FB68C0
:1037F0001B68334A934245D0FB681B68314A9342A9
:1038000040D0FB681B68304A93423BD0FB681B6882
:103810002E4A934236D0FB681B682D4A934231D022
:10382000FB681B682B4A93422CD0FB681B682A4A12
:10383000934227D0FB681B68284A934222D0FB683A
:103840001B68274A93421DD0FB681B68254A934298
:1038500018D0FB681B68244A934213D0FB681B688E
:10386000224A93420ED0FB681B68214A934209D03A
:10387000FB681B681F4A934204D0FB681B681E4A02
:10388000934201D1012300E00023002B36D0FB68D6
:103890001B681B6823F01E02FB681B6842F01602BF
:1038A0001A60FB681B6C002B3ED0FB681B681A6813
:1038B000FB681B6842F008021A6035E01000024005
:1038C00028000240400002405800024070000240C0
:1038D00088000240A0000240B800024010040240EC
:1038E0002804024040040240580402407004024090
:1038F00088040240A0040240B8040240FB681B6830
:103900001B6823F00E02FB681B6842F00A021A6073
:10391000FB681B6C002B07D0FB681B681A68FB68F0
:103920001B6842F004021A60FB681B68834A9342DA
:1039300072D0FB681B68824A93426DD0FB681B689B
:10394000804A934268D0FB681B687F4A934263D0E9
:10395000FB681B687D4A93425ED0FB681B687C4A0B
:10396000934259D0FB681B687A4A934254D0FB6853
:103970001B68794A93424FD0FB681B68774A934291
:103980004AD0FB681B68764A934245D0FB681B68A7
:10399000744A934240D0FB681B68734A93423BD001
:1039A000FB681B68714A934236D0FB681B68704AFB
:1039B000934231D0FB681B686E4A93422CD0FB685F
:1039C0001B686D4A934227D0FB681B686B4A934281
:1039D00022D0FB681B686A4A93421DD0FB681B68B3
:1039E000684A934218D0FB681B68674A934213D019
:1039F000FB681B68654A93420ED0FB681B68644AEB
:103A0000934209D0FB681B68624A934204D0FB686A
:103A10001B68614A934201D1012300E00023002B7F
:103A20001AD0FB681B6E1B6803F48033002B07D091
:103A3000FB681B6E1A68FB681B6E42F480721A608A
:103A4000FB68DB6E002B07D0FB68DB6E1A68FB6837
:103A5000DB6E42F480721A60FB681B68374A93423F
:103A60004AD0FB681B68364A934245D0FB681B6806
:103A7000344A934240D0FB681B68334A93423BD0A0
:103A8000FB681B68314A934236D0FB681B68304A9A
:103A9000934231D0FB681B682E4A93422CD0FB68BE
:103AA0001B682D4A934227D0FB681B682B4A934220
:103AB00022D0FB681B682A4A93421DD0FB681B6812
:103AC000284A934218D0FB681B68274A934213D0B8
:103AD000FB681B68254A93420ED0FB681B68244A8A
:103AE000934209D0FB681B68224A934204D0FB68CA
:103AF0001B68214A934208D1FB681B681A68FB685F
:103B00001B6842F001021A6012E0FB681B681A6829
:103B1000FB681B6842F001021A6009E0FB680022A2
:103B200083F83420FB684FF400625A650123FB756B
:103B3000FB7D18461837BD4680BD00BF100002400F
:103B4000280002404000024058000240700002403D
:103B500088000240A0000240B80002401004024069
:103B6000280402404004024058040240700402400D
:103B700088040240A0040240B804024008540258DD
:103B80001C54025830540258445402585854025895
:103B90006C540258805402589454025880B586B030
:103BA00000AF7860FFF73CF938617B68002B01D1EA
:103BB0000123DCE27B6893F83530DBB2022B08D0BE
:103BC0007B6880225A657B68002283F834200123B9
:103BD000CDE27B681B68764A93424AD07B681B68BB
:103BE000744A934245D07B681B68734A934240D025
:103BF0007B681B68714A93423BD07B681B68704AA4
:103C0000934236D07B681B686E4A934231D07B6802
:103C10001B686D4A93422CD07B681B686B4A9342A9
:103C200027D07B681B686A4A934222D07B681B6856
:103C3000684A93421DD07B681B68674A934218D03C
:103C40007B681B68654A934213D07B681B68644A93
:103C500093420ED07B681B68624A934209D07B680E
:103C60001B68614A934204D07B681B685F4A934299
:103C700001D1012300E00023002B13D07B681B68D7
:103C80001A687B681B6822F01E021A607B681B683A
:103C90005A697B681B6822F080025A617B681B6846
:103CA0007B610AE07B681B681A687B681B6822F0EE
:103CB0000E021A607B681B687B617B681B683C4A4C
:103CC000934272D07B681B683A4A93426DD07B68FE
:103CD0001B68394A934268D07B681B68374A934215
:103CE00063D07B681B68364A93425ED07B681B6852
:103CF000344A934259D07B681B68334A934254D06C
:103D00007B681B68314A93424FD07B681B68304AFE
:103D100093424AD07B681B682E4A934245D07B6809
:103D20001B682D4A934240D07B681B682B4A934204
:103D30003BD07B681B682A4A934236D07B681B685D
:103D4000284A934231D07B681B68274A93422CD083
:103D50007B681B68254A934227D07B681B68244AEE
:103D6000934222D07B681B68224A93421DD07B6815
:103D70001B68214A934218D07B681B681F4A9342F4
:103D800013D07B681B681E4A93420ED07B681B6869
:103D90001C4A934209D07B681B681B4A934204D09B
:103DA0007B681B68194A934232D1012331E000BF7E
:103DB000100002402800024040000240580002402B
:103DC0007000024088000240A0000240B80002409B
:103DD00010040240280402404004024058040240FB
:103DE0007004024088040240A0040240B80402406B
:103DF000085402581C540258305402584454025873
:103E0000585402586C540258805402589454025822
:103E10000023002B07D07B681B6E1A687B681B6E23
:103E200022F480721A607B681B686D4A93424AD004
:103E30007B681B686B4A934245D07B681B686A4A63
:103E4000934240D07B681B68684A93423BD07B68B2
:103E50001B68674A934236D07B681B68654A934269
:103E600031D07B681B68644A93422CD07B681B6806
:103E7000624A934227D07B681B68614A934222D0F2
:103E80007B681B685F4A93421DD07B681B685E4A53
:103E9000934218D07B681B685C4A934213D07B68BE
:103EA0001B685B4A93420ED07B681B68594A934259
:103EB00009D07B681B68584A934204D07B681B6812
:103EC000564A934208D17B681B681A687B681B6856
:103ED00022F001021A6007E07B681B681A687B68A1
:103EE0001B6822F001021A6013E0FEF799FF0246F8
:103EF0003B69D31A052B0CD97B6820225A657B6855
:103F0000002283F834207B68032283F835200123C4
:103F10002DE17B691B6803F00103002BE5D17B6871
:103F20001B682F4A93424AD07B681B682D4A9342F4
:103F300045D07B681B682C4A934240D07B681B6845
:103F40002A4A93423BD07B681B68294A934236D069
:103F50007B681B68274A934231D07B681B68264ADE
:103F600093422CD07B681B68244A934227D07B68FD
:103F70001B68234A934222D07B681B68214A9342E4
:103F80001DD07B681B68204A934218D07B681B6851
:103F90001E4A934213D07B681B681D4A93420ED081
:103FA0007B681B681B4A934209D07B681B681A4ACE
:103FB000934204D07B681B68184A934201D10123C5
:103FC00000E00023002B2BD07B689B6DBB607B68DF
:103FD000DB6D03F01F033F229A40BB689A602AE022
:103FE00010000240280002404000024058000240F9
:103FF0007000024088000240A0000240B800024069
:1040000010040240280402404004024058040240C8
:104010007004024088040240A0040240B804024038
:104020007B689B6DFB607B68DB6D03F01F030122E7
:104030009A40FB685A607B681B684F4A934272D073
:104040007B681B684D4A93426DD07B681B684C4A65
:10405000934268D07B681B684A4A934263D07B686E
:104060001B68494A93425ED07B681B68474A93426B
:1040700059D07B681B68464A934254D07B681B68C2
:10408000444A93424FD07B681B68434A93424AD0CC
:104090007B681B68414A934245D07B681B68404A55
:1040A000934240D07B681B683E4A93423BD07B687A
:1040B0001B683D4A934236D07B681B683B4A93425B
:1040C00031D07B681B683A4A93422CD07B681B68CE
:1040D000384A934227D07B681B68374A934222D0E4
:1040E0007B681B68354A93421DD07B681B68344A45
:1040F000934218D07B681B68324A934213D07B6886
:104100001B68314A93420ED07B681B682F4A93424A
:1041100009D07B681B682E4A934204D07B681B68D9
:104120002C4A934201D1012300E00023002B15D03B
:104130007B685B6E7A68926E5A607B68DB6E002BE0
:104140000CD07B68DB6E1A687B68DB6E22F48072B1
:104150001A607B681B6F7A68526F5A607B68002216
:1041600083F834207B68012283F835200023184629
:104170001837BD4680BD00BF100002402800024035
:104180004000024058000240700002408800024097
:10419000A0000240B800024010040240280402407F
:1041A0004004024058040240700402408804024067
:1041B000A0040240B8040240085402581C5402589B
:1041C0003054025844540258585402586C540258FF
:1041D000805402589454025880B584B000AF78607F
:1041E0007B68002B01D1012305E27B6893F8353011
:1041F000DBB2022B04D07B6880225A650123FAE1EE
:104200007B681B688C4A93424AD07B681B688B4A48
:10421000934245D07B681B68894A934240D07B68B3
:104220001B68884A93423BD07B681B68864A93424E
:1042300036D07B681B68854A934231D07B681B6807
:10424000834A93422CD07B681B68824A934227D0D2
:104250007B681B68804A934222D07B681B687F4A38
:1042600093421DD07B681B687D4A934218D07B68BF
:104270001B687C4A934213D07B681B687A4A93423E
:104280000ED07B681B68794A934209D07B681B6813
:10429000774A934204D07B681B68764A934201D1E7
:1042A000012300E00023002B65D07B68042283F803
:1042B00035207B681B68604A93424AD07B681B6844
:1042C0005E4A934245D07B681B685D4A934240D06A
:1042D0007B681B685B4A93423BD07B681B685A4AE9
:1042E000934236D07B681B68584A934231D07B6832
:1042F0001B68574A93422CD07B681B68554A9342EF
:1043000027D07B681B68544A934222D07B681B6885
:10431000524A93421DD07B681B68514A934218D081
:104320007B681B684F4A934213D07B681B684E4AD8
:1043300093420ED07B681B684C4A934209D07B683D
:104340001B684B4A934204D07B681B68494A9342DE
:1043500008D17B681B681A687B681B6822F0010221
:104360001A6047E17B681B681A687B681B6822F04B
:1043700001021A603EE17B681B681A687B681B6853
:1043800022F00E021A607B681B682B4A93424AD0C7
:104390007B681B68294A934245D07B681B68284A82
:1043A000934240D07B681B68264A93423BD07B688F
:1043B0001B68254A934236D07B681B68234A934288
:1043C00031D07B681B68224A93422CD07B681B68E3
:1043D000204A934227D07B681B681F4A934222D011
:1043E0007B681B681D4A93421DD07B681B681C4A72
:1043F000934218D07B681B681A4A934213D07B689B
:104400001B68194A93420ED07B681B68174A934277
:1044100009D07B681B68164A934204D07B681B68EE
:10442000144A934228D17B681B681A687B681B6812
:1044300022F001021A6027E010000240280002402A
:1044400040000240580002407000024088000240D4
:10445000A0000240B80002401004024028040240BC
:1044600040040240580402407004024088040240A4
:10447000A0040240B80402407B681B681A687B688D
:104480001B6822F001021A607B681B685C4A934239
:1044900072D07B681B685B4A93426DD07B681B6857
:1044A000594A934268D07B681B68584A934263D04C
:1044B0007B681B68564A93425ED07B681B68554AEE
:1044C000934259D07B681B68534A934254D07B680F
:1044D0001B68524A93424FD07B681B68504A9342F4
:1044E0004AD07B681B684F4A934245D07B681B6863
:1044F0004D4A934240D07B681B684C4A93423BD064
:104500007B681B684A4A934236D07B681B68494ADD
:10451000934231D07B681B68474A93422CD07B681A
:104520001B68464A934227D07B681B68444A9342E3
:1045300022D07B681B68434A93421DD07B681B686E
:10454000414A934218D07B681B68404A934213D07B
:104550007B681B683E4A93420ED07B681B683D4ACD
:10456000934209D07B681B683B4A934204D07B6826
:104570001B683A4A934201D1012300E00023002B3B
:1045800028D07B681B6E1A687B681B6E22F48072D1
:104590001A607B689B6DFB607B68DB6D03F01F031B
:1045A00001229A40FB685A607B685B6E7A68926E63
:1045B0005A607B68DB6E002B0CD07B68DB6E1A6860
:1045C0007B68DB6E22F480721A607B681B6F7A68EE
:1045D000526F5A607B68002283F834207B68012286
:1045E00083F835207B681B6D002B03D07B681B6D27
:1045F00078689847002318461037BD4680BD00BF35
:1046000010000240280002404000024058000240D2
:104610007000024088000240A0000240B800024042
:1046200010040240280402404004024058040240A2
:104630007004024088040240A0040240B804024012
:10464000085402581C54025830540258445402581A
:10465000585402586C5402588054025894540258CA
:1046600080B58AB000AF78600023FB60674B1B68A1
:10467000674AA2FB03239B0A7B627B689B6D3B62BC
:104680007B689B6DFB613B6A1B68BB61FB691B68B8
:104690007B617B681B685F4A93424AD07B681B68DA
:1046A0005D4A934245D07B681B685C4A934240D088
:1046B0007B681B685A4A93423BD07B681B68594A07
:1046C000934236D07B681B68574A934231D07B684F
:1046D0001B68564A93422CD07B681B68544A93420D
:1046E00027D07B681B68534A934222D07B681B68A3
:1046F000514A93421DD07B681B68504A934218D0A0
:104700007B681B684E4A934213D07B681B684D4AF6
:1047100093420ED07B681B684B4A934209D07B685A
:104720001B684A4A934204D07B681B68484A9342FC
:1047300001D1012300E00023002B00F02B847B68D3
:10474000DB6D03F01F0308229A40BB691340002B66
:1047500000F0A2807B681B682E4A93424AD07B6897
:104760001B682D4A934245D07B681B682B4A9342B5
:1047700040D07B681B682A4A93423BD07B681B6809
:10478000284A934236D07B681B68274A934231D02F
:104790007B681B68254A93422CD07B681B68244A9F
:1047A000934227D07B681B68224A934222D07B68C1
:1047B0001B68214A93421DD07B681B681F4A9342A5
:1047C00018D07B681B681E4A934213D07B681B6815
:1047D0001C4A93420ED07B681B681B4A934209D047
:1047E0007B681B68194A934204D07B681B68184A8F
:1047F00093422FD17B681B681B6803F00403002BD6
:1048000014BF01230023DBB22EE000BF0000002014
:10481000B5814E1B100002402800024040000240BB
:10482000580002407000024088000240A000024090
:10483000B800024010040240280402404004024034
:10484000580402407004024088040240A004024060
:10485000B80402407B681B681B6803F00803002B48
:1048600014BF01230023DBB2002B15D07B681B682B
:104870001A687B681B6822F004021A607B68DB6D93
:1048800003F01F0308229A403B6A9A607B685B6DC5
:1048900043F001027B685A657B68DB6D03F01F0300
:1048A000BA6922FA03F303F00103002B6ED07B6890
:1048B0001B68694A93424AD07B681B68674A9342E7
:1048C00045D07B681B68664A934240D07B681B6872
:1048D000644A93423BD07B681B68634A934236D05C
:1048E0007B681B68614A934231D07B681B68604AD1
:1048F00093422CD07B681B685E4A934227D07B682A
:104900001B685D4A934222D07B681B685B4A9342D6
:104910001DD07B681B685A4A934218D07B681B687D
:10492000584A934213D07B681B68574A93420ED073
:104930007B681B68554A934209D07B681B68544AC0
:10494000934204D07B681B68524A93420AD17B6829
:104950001B685B6903F08003002B14BF0123002355
:10496000DBB203E07B681B681B680023002B0DD0C3
:104970007B68DB6D03F01F0301229A403B6A9A605B
:104980007B685B6D43F002027B685A657B68DB6D78
:1049900003F01F0304229A40BB691340002B00F070
:1049A0008F807B681B682C4A93424AD07B681B68C7
:1049B0002A4A934245D07B681B68294A934240D0DB
:1049C0007B681B68274A93423BD07B681B68264A5A
:1049D000934236D07B681B68244A934231D07B686F
:1049E0001B68234A93422CD07B681B68214A934260
:1049F00027D07B681B68204A934222D07B681B68C3
:104A00001E4A93421DD07B681B681D4A934218D0F2
:104A10007B681B681B4A934213D07B681B681A4A49
:104A200093420ED07B681B68184A934209D07B687A
:104A30001B68174A934204D07B681B68154A93424F
:104A40002AD17B681B681B6803F00203002B14BF8C
:104A500001230023DBB223E01000024028000240C3
:104A600040000240580002407000024088000240AE
:104A7000A0000240B8000240100402402804024096
:104A8000400402405804024070040240880402407E
:104A9000A0040240B80402407B681B681B68002326
:104AA000002B0DD07B68DB6D03F01F0304229A40BE
:104AB0003B6A9A607B685B6D43F004027B685A65D1
:104AC0007B68DB6D03F01F0310229A40BB69134023
:104AD000002B00F0A6807B681B68854A93424AD071
:104AE0007B681B68834A934245D07B681B68824A77
:104AF000934240D07B681B68804A93423BD07B68DE
:104B00001B687F4A934236D07B681B687D4A93427C
:104B100031D07B681B687C4A93422CD07B681B6831
:104B20007A4A934227D07B681B68794A934222D005
:104B30007B681B68774A93421DD07B681B68764A66
:104B4000934218D07B681B68744A934213D07B68E9
:104B50001B68734A93420ED07B681B68714A93426C
:104B600009D07B681B68704A934204D07B681B683D
:104B70006E4A93420AD17B681B681B6803F00803E6
:104B8000002B14BF01230023DBB209E07B681B6804
:104B90001B6803F00403002B14BF01230023DBB2C6
:104BA000002B3ED07B68DB6D03F01F0310229A4080
:104BB0003B6A9A607B681B681B6803F48023002BA8
:104BC00018D07B681B681B6803F40023002B08D1F6
:104BD0007B681B6C002B24D07B681B6C7868984723
:104BE0001FE07B689B6C002B1BD07B689B6C7868FC
:104BF000984716E07B681B681B6803F48073002BE2
:104C000007D17B681B681A687B681B6822F0080262
:104C10001A607B681B6C002B03D07B681B6C786868
:104C200098477B68DB6D03F01F0320229A40BB6925
:104C30001340002B00F010817B681B682C4A9342C4
:104C40004AD07B681B682B4A934245D07B681B681F
:104C5000294A934240D07B681B68284A93423BD044
:104C60007B681B68264A934236D07B681B68254ABE
:104C7000934231D07B681B68234A93422CD07B68D7
:104C80001B68224A934227D07B681B68204A9342C4
:104C900022D07B681B681F4A93421DD07B681B682B
:104CA0001D4A934218D07B681B681C4A934213D05C
:104CB0007B681B681A4A93420ED07B681B68194AAE
:104CC000934209D07B681B68174A934204D07B68E3
:104CD0001B68164A93422BD17B681B681B6803F044
:104CE0001003002B14BF01230023DBB22AE000BF16
:104CF00010000240280002404000024058000240DC
:104D00007000024088000240A0000240B80002404B
:104D100010040240280402404004024058040240AB
:104D20007004024088040240A0040240B80402401B
:104D30007B681B681B6803F00203002B14BF012370
:104D40000023DBB2002B00F087807B68DB6D03F073
:104D50001F0320229A403B6A9A607B6893F83530A3
:104D6000DBB2042B39D17B681B681A687B681B682F
:104D700022F016021A607B681B685A697B681B6800
:104D800022F080025A617B681B6C002B03D17B6888
:104D90009B6C002B07D07B681B681A687B681B68BC
:104DA00022F008021A607B68DB6D03F01F033F22CC
:104DB0009A403B6A9A607B68002283F834207B68C3
:104DC000012283F835207B681B6D002B00F04A839D
:104DD0007B681B6D7868984744E37B681B681B6899
:104DE00003F48023002B18D07B681B681B6803F436
:104DF0000023002B08D17B685B6C002B2CD07B68D8
:104E00005B6C7868984727E07B68DB6B002B23D0CE
:104E10007B68DB6B786898471EE07B681B681B68C3
:104E200003F48073002B0FD17B681B681A687B68C2
:104E30001B6822F010021A607B68002283F834207D
:104E40007B68012283F835207B68DB6B002B03D065
:104E50007B68DB6B786898477B685B6D002B00F0A4
:104E600006837B685B6D03F00103002B00F08880F4
:104E70007B68042283F835207B681B687A4A93425A
:104E80004AD07B681B68794A934245D07B681B688F
:104E9000774A934240D07B681B68764A93423BD066
:104EA0007B681B68744A934236D07B681B68734AE0
:104EB000934231D07B681B68714A93422CD07B6847
:104EC0001B68704A934227D07B681B686E4A9342E6
:104ED00022D07B681B686D4A93421DD07B681B689B
:104EE0006B4A934218D07B681B686A4A934213D07E
:104EF0007B681B68684A93420ED07B681B68674AD0
:104F0000934209D07B681B68654A934204D07B6852
:104F10001B68644A934208D17B681B681A687B68E7
:104F20001B6822F001021A6007E07B681B681A68A0
:104F30007B681B6822F001021A60FB680133FB608A
:104F40007A6A9A4207D37B681B681B6803F00103E7
:104F5000002BF2D100E000BF7B68002283F83420F0
:104F60007B681B681B6803F00103002B04D07B687F
:104F7000032283F8352003E07B68012283F8352083
:104F80007B68DB6C002B00F072827B68DB6C7868DE
:104F900098476CE27B681B68434A934222D07B6847
:104FA0001B68424A93421DD07B681B68404A93426B
:104FB00018D07B681B683F4A934213D07B681B68FC
:104FC0003D4A93420ED07B681B683C4A934209D00D
:104FD0007B681B683A4A934204D07B681B68394A55
:104FE000934201D1012300E00023002B00F03F8217
:104FF0007B681B681B683B617B68DB6D03F01F03EC
:1050000004229A407B691340002B00F0CD803B695D
:1050100003F00403002B00F0C7807B68DB6D03F016
:105020001F0304229A40FB695A603B6903F4004362
:10503000002B49D03B6903F48033002B09D17B68F6
:105040009B6C002B00F010827B689B6C7868984703
:105050000AE27B681B6C002B00F006827B681B6CED
:105060007868984700E200BF100002402800024024
:105070004000024058000240700002408800024098
:10508000A0000240B8000240100402402804024080
:105090004004024058040240700402408804024068
:1050A000A0040240B8040240085402581C5402589C
:1050B0003054025844540258585402586C54025800
:1050C00080540258945402583B6903F02003002B8B
:1050D00060D17B681B688C4A93424AD07B681B680E
:1050E0008A4A934245D07B681B68894A934240D0E4
:1050F0007B681B68874A93423BD07B681B68864A63
:10510000934236D07B681B68844A934231D07B68D7
:105110001B68834A93422CD07B681B68814A934268
:1051200027D07B681B68804A934222D07B681B682B
:105130007E4A93421DD07B681B687D4A934218D0FB
:105140007B681B687B4A934213D07B681B687A4A52
:1051500093420ED07B681B68784A934209D07B68E3
:105160001B68774A934204D07B681B68754A934258
:1051700008D17B681B681A687B681B6822F00802EC
:105180001A6007E07B681B681A687B681B6822F05E
:1051900004021A607B681B6C002B00F065817B6841
:1051A0001B6C786898475FE17B68DB6D03F01F0339
:1051B00002229A407B691340002B00F0C5803B69B6
:1051C00003F00203002B00F0BF807B68DB6D03F06F
:1051D0001F0302229A40FB695A603B6903F40043B3
:1051E000002B18D03B6903F48033002B09D17B6876
:1051F0005B6C002B00F03A817B685B6C78689847A9
:1052000034E17B68DB6B002B00F030817B68DB6B6B
:10521000786898472AE13B6903F02003002B68D1A6
:105220007B681B68384A93424AD07B681B68374AC0
:10523000934245D07B681B68354A934240D07B68D7
:105240001B68344A93423BD07B681B68324A9342C6
:1052500036D07B681B68314A934231D07B681B682B
:105260002F4A93422CD07B681B682E4A934227D04A
:105270007B681B682C4A934222D07B681B682B4AB0
:1052800093421DD07B681B68294A934218D07B68E3
:105290001B68284A934213D07B681B68264A9342B6
:1052A0000ED07B681B68254A934209D07B681B6837
:1052B000234A934204D07B681B68224A934208D158
:1052C0007B681B681A687B681B6822F014021A60EE
:1052D00007E07B681B681A687B681B6822F00A027B
:1052E0001A607B68002283F834207B68012283F8EF
:1052F00035207B68DB6B002B00F0B8807B68DB6BB4
:1053000078689847B2E000BF1000024028000240D1
:1053100040000240580002407000024088000240F5
:10532000A0000240B80002401004024028040240DD
:1053300040040240580402407004024088040240C5
:10534000A0040240B80402407B68DB6D03F01F0339
:1053500008229A407B691340002B00F088803B694B
:1053600003F00803002B00F082807B681B68414A31
:1053700093424AD07B681B683F4A934245D07B6882
:105380001B683E4A934240D07B681B683C4A93426C
:105390003BD07B681B683B4A934236D07B681B68D6
:1053A000394A934231D07B681B68384A93422CD0EB
:1053B0007B681B68364A934227D07B681B68354A56
:1053C000934222D07B681B68334A93421DD07B688E
:1053D0001B68324A934218D07B681B68304A93425C
:1053E00013D07B681B682F4A93420ED07B681B68E2
:1053F0002D4A934209D07B681B682C4A934204D003
:105400007B681B682A4A934208D17B681B681A682C
:105410007B681B6822F01C021A6007E07B681B682F
:105420001A687B681B6822F00E021A607B68DB6DCD
:1054300003F01F0301229A40FB695A607B68012236
:105440005A657B68002283F834207B68012283F848
:1054500035207B68DB6C002B09D07B68DB6C7868BF
:10546000984704E000BF02E000BF00E000BF28371B
:10547000BD4680BD100002402800024040000240AE
:10548000580002407000024088000240A000024024
:10549000B8000240100402402804024040040240C8
:1054A000580402407004024088040240A0040240F4
:1054B000B804024080B483B000AF78607B685B6D55
:1054C00018460C37BD465DF8047B704780B487B042
:1054D00000AFF860B9607A603B60FB689B6D7B61F0
:1054E000FB689B6D3B61FB681B68844A934272D0EA
:1054F000FB681B68824A93426DD0FB681B68814A37
:10550000934268D0FB681B687F4A934263D0FB6874
:105510001B687E4A93425ED0FB681B687C4A9342BC
:1055200059D0FB681B687B4A934254D0FB681B68C8
:10553000794A93424FD0FB681B68784A93424AD01D
:10554000FB681B68764A934245D0FB681B68754A26
:10555000934240D0FB681B68734A93423BD0FB6880
:105560001B68724A934236D0FB681B68704A9342AC
:1055700031D0FB681B686F4A93422CD0FB681B68D4
:105580006D4A934227D0FB681B686C4A934222D035
:10559000FB681B686A4A93421DD0FB681B68694A16
:1055A000934218D0FB681B68674A934213D0FB688C
:1055B0001B68664A93420ED0FB681B68644A93429C
:1055C00009D0FB681B68634A934204D0FB681B68E0
:1055D000614A934201D1012300E00023002B0DD04A
:1055E000FB685B6EFA68926E5A60FB68DB6E002B9C
:1055F00004D0FB681B6FFA68526F5A60FB681B6827
:105600003E4A93424AD0FB681B683D4A934245D0CC
:10561000FB681B683B4A934240D0FB681B683A4AD0
:1056200093423BD0FB681B68384A934236D0FB68F4
:105630001B68374A934231D0FB681B68354A934256
:105640002CD0FB681B68344A934227D0FB681B6848
:10565000324A934222D0FB681B68314A93421DD0E4
:10566000FB681B682F4A934218D0FB681B682E4AC0
:10567000934213D0FB681B682C4A93420ED0FB6800
:105680001B682B4A934209D0FB681B68294A934246
:1056900004D0FB681B68284A934201D1012300E033
:1056A0000023002B5AD0FB68DB6D03F01F033F2261
:1056B0009A407B699A60FB681B681A68FB681B68E4
:1056C00022F480221A60FB681B683A685A60FB6803
:1056D0009B68402B08D1FB681B687A689A60FB685E
:1056E0001B68BA68DA6087E0FB681B68BA689A6072
:1056F000FB681B687A68DA607EE000BF1000024039
:105700002800024040000240580002407000024061
:1057100088000240A0000240B8000240100402408D
:105720002804024040040240580402407004024031
:1057300088040240A0040240B80402400854025801
:105740001C540258305402584454025858540258B9
:105750006C5402588054025894540258FB681B68D9
:10576000284A934222D0FB681B68274A93421DD0E7
:10577000FB681B68254A934218D0FB681B68244AC3
:10578000934213D0FB681B68224A93420ED0FB68F9
:105790001B68214A934209D0FB681B681F4A934249
:1057A00004D0FB681B681E4A934201D1012300E02C
:1057B0000023002B20D0FB68DB6D03F01F030122C8
:1057C0009A403B695A60FB681B683A685A60FB68FC
:1057D0009B68402B08D1FB681B687A689A60FB685D
:1057E0001B68BA68DA6007E0FB681B68BA689A60F1
:1057F000FB681B687A68DA6000BF1C37BD465DF83D
:10580000047B7047085402581C5402583054025804
:1058100044540258585402586C5402588054025848
:105820009454025880B485B000AF78607B681B68E0
:10583000424A93424AD07B681B68414A934245D012
:105840007B681B683F4A934240D07B681B683E4A96
:1058500093423BD07B681B683C4A934236D07B68BE
:105860001B683B4A934231D07B681B68394A93429C
:105870002CD07B681B68384A934227D07B681B6812
:10588000364A934222D07B681B68354A93421DD02A
:105890007B681B68334A934218D07B681B68324A86
:1058A000934213D07B681B68304A93420ED07B68CA
:1058B0001B682F4A934209D07B681B682D4A93428C
:1058C00004D07B681B682C4A934201D1012300E07D
:1058D0000023002B24D07B681B68DBB2103B274AD7
:1058E000A2FB03231B09FB60FB6803F00703244AA8
:1058F000D35C1A467B68DA65FB68032B08D97B68A2
:105900001B681A461F4B13401A1D7B689A650DE0F1
:105910007B681B681A461B4B13407A68936505E049
:105920007B681B6823F0FF027B689A657B689B6D30
:1059300018461437BD465DF8047B704710000240DE
:10594000280002404000024058000240700002401F
:1059500088000240A0000240B8000240100402404B
:1059600028040240400402405804024070040240EF
:1059700088040240A0040240B8040240ABAAAAAACC
:1059800048C2000800FCFFFF80B485B000AF78601B
:105990000023FB737B689B69002B20D17B689B6A8B
:1059A000032B58D801A252F823F000BFBD590008BC
:1059B000CF590008BD590008575A00087B68DB6AB8
:1059C00003F08073002B48D00123FB7345E07B6814
:1059D000DB6AB3F1C07F42D10123FB733FE07B68F8
:1059E0009B69B3F5005F23D17B689B6A032B38D892
:1059F00001A252F823F000BF095A00080F5A00080C
:105A0000095A0008215A00080123FB7330E07B6823
:105A1000DB6A03F08073002B25D00123FB7322E0A7
:105A20007B68DB6AB3F1C07F1FD10123FB731CE0ED
:105A30007B689B6A022B02D9032B03D018E0012359
:105A4000FB7315E07B68DB6A03F08073002B0ED0DC
:105A50000123FB730BE000BF0AE000BF08E000BFBA
:105A600006E000BF04E000BF02E000BF00E000BFAE
:105A7000FB7B18461437BD465DF8047B704700BFBA
:105A800080B485B000AF78607B681B68BB607B68C2
:105A90001B68384A934222D07B681B68364A93427F
:105AA0001DD07B681B68354A934218D07B681B6801
:105AB000334A934213D07B681B68324A93420ED01C
:105AC0007B681B68304A934209D07B681B682F4A69
:105AD000934204D07B681B682D4A934201D1012375
