:020000040800F2
:10000000184E002439040008B1510008554A000870
:10001000C950000893060008C167000800000000EE
:10002000000000000000000000000000790300084C
:10003000950B000800000000D5030008B956000821
:100040005304000853040008530400085304000834
:100050005304000853040008530400085304000824
:100060005304000853040008530400082107000843
:100070002D07000839070008530400084507000849
:1000800051070008530400085304000853040008F3
:1000900053040008530400085304000853040008E4
:1000A00053040008530400085304000853040008D4
:1000B00053040008530400085304000853040008C4
:1000C00053040008530400085304000853040008B4
:1000D0005304000899640008616500082966000857
:1000E00053040008530400080000000053040008F3
:1000F0005304000853040008530400085304000884
:100100005304000853040008530400085304000873
:1001100053040008530400088558000853040008DD
:100120005304000853040008530400085304000853
:100130005304000853040008530400085304000843
:1001400000000000000000000000000000000000AF
:100150005304000853040008530400085304000823
:100160005304000853040008530400085304000813
:100170005304000853040008530400085304000803
:1001800053040008530400085304000853040008F3
:1001900053040008530400085304000853040008E3
:1001A00053040008530400085304000853040008D3
:1001B00053040008530400085304000853040008C3
:1001C00053040008530400085304000853040008B3
:1001D00053040008530400085304000853040008A3
:1001E0005304000853040008530400085304000893
:1001F0005304000853040008530400085304000883
:100200005304000853040008530400085304000872
:100210005304000853040008530400085304000862
:1002200053040008530400085304000800000000B1
:1002300053040008530400080000000053040008A1
:100240005304000853040008530400085304000832
:100250005304000853040008530400085304000822
:100260005304000853040008530400085304000812
:100270005304000853040008530400080000000061
:100280005304000853040008530400080000000051
:10029000000000005304000800F002F800F05CF8D1
:1002A0000AA090E8000C82448344AAF10107DA45D1
:1002B00001D100F051F8AFF2090EBAE80F0013F0C7
:1002C000010F18BFFB1A43F001031847A074000088
:1002D000C07400000A444FF0000C10F8013B13F00A
:1002E000070408BF10F8014B1D1108BF10F8015B8F
:1002F000641E05D010F8016B641E01F8016BF9D182
:1003000013F0080F1EBF10F8014BAD1C0C1B09D1D8
:100310006D1E58BF01F801CBFAD505E014F8016B4A
:1003200001F8016B6D1EF9D59142D6D370470000DC
:100330000023002400250026103A28BF78C1FBD8EE
:10034000520728BF30C148BF0B6070471FB507F088
:1003500085F91FBD10B510BD00F061F91146FFF71A
:10036000F5FF06F0B5FA00F07FF903B4FFF7F2FFEE
:1003700003BC00F087F900002C4B19680868B0E84E
:10038000F04F80F30988BFF36F8F4FF0000080F3C8
:10039000118870470000000008480068006880F37A
:1003A00008884FF0000080F3148862B661B6BFF38E
:1003B0004F8FBFF36F8F00DF00BF00BF08ED00E07D
:1003C000DFF80C00016841F470010160704700BF64
:1003D00088ED00E0EFF30980BFF36F8F134B1A68CD
:1003E0001EF0100F08BF20ED108A20E9F04F1060BA
:1003F00009B44FF0500080F31188BFF34F8FBFF363
:100400006F8F06F063FF4FF0000080F3118809BC86
:1004100019680868B0E8F04F1EF0100F08BFB0EC84
:10042000108A80F30988BFF36F8F7047280100247A
:10043000EFF30580704700000948804709480047EE
:10044000FEE7FEE7FEE7FEE7FEE7FEE7FEE7FEE784
:10045000FEE7FEE704480549054A064B70470000E1
:10046000A15700089902000818480024184E0024DB
:10047000184A0024184A002453EA020C00F069804C
:100480002DE9F04B4FF00006002B1FBFB3FA83F5A8
:1004900003FA05F424FA05F65E4012BF1643B2FAD9
:1004A00082F502FA05F4C5F120051EBF22FA05FC0B
:1004B00044EA0C04203556EA044C4FEA144418BFB1
:1004C000641C4FF000084FF00009904271EB030CE0
:1004D00039D3002919BFB1FA81F701FA07F6B0FA4A
:1004E00080F700FA07F6C7F120071EBF20FA07FCC5
:1004F00046EA0C062037B6FBF4FCA7EB0507103FD5
:1005000007F01F0BCBF120060CFA0BFB2CFA06F6BA
:1005100044BFB3460026202FA4BF5E464FF0000B19
:100520005BEA060C08BF4FF0010B19EB0B09ABFBA4
:10053000027C48EB0608C01B06FB02CC0BFB03CC7D
:1005400071EB0C01C1E70B46024641464846BDE847
:10055000F08B13B54FF000004FF00001AFF30080B7
:10056000BDE81C40704710B5203AC0F00B80B1E8E0
:100570001850203AA0E81850B1E81850A0E81850D8
:10058000BFF4F5AF5FEA027C24BFB1E81850A0E8E1
:10059000185044BF18C918C0BDE810405FEA827CFB
:1005A00024BF51F8043B40F8043B08BF7047D20712
:1005B00028BF31F8023B48BF11F8012B28BF20F8B3
:1005C000023B48BF00F8012B70474FF0000200B516
:1005D000134694469646203922BFA0E80C50A0E866
:1005E0000C50B1F12001BFF4F7AF090728BFA0E814
:1005F0000C5048BF0CC05DF804EB890028BF40F8E0
:10060000042B08BF704748BF20F8022B11F0804F21
:1006100018BF00F8012B7047704770477047754648
:1006200000F02CF8AE4605006946534620F007005E
:10063000854618B020B5FFF70DFFBDE820404FF00C
:1006400000064FF000074FF000084FF0000B21F0BC
:100650000701AC46ACE8C009ACE8C009ACE8C00989
:10066000ACE8C0098D46704710B50446AFF3008072
:100670002046BDE81040FFF778BE000000487047F4
:10068000B447002401491820ABBEFEE72600020053
:100690007047FEE71F4C86B005E01F4801F03FFEA3
:1006A000012006F0C6F9607A0028F6D005E01A4865
:1006B00001F035FE012006F0BCF9E0780128F6D003
:1006C00014480123E3700B30411E00F16902E36A14
:1006D000CDE90410CDE90223D4E90901603ACDE95E
:1006E0000001911E236A881E00F084FAE27A4FF41A
:1006F00000610A4801F0CFFD06485C300090A37A03
:10070000A28A618A208A04F0E1FC034801F007FE16
:10071000D3E700000000002454020024000C02581B
:10072000014800F0F3BD0000AC060024014800F0D1
:10073000EDBD000024070024014800F0E7BD0000E3
:1007400034060024014800F0E1BD00004405002407
:10075000014800F0DBBD0000BC050024294A016807
:1007600091423AD0274A1832914236D0254A303247
:10077000914232D0234A483291422ED0214A6032EF
:1007800091422AD01F4A7832914226D01D4A903297
:10079000914222D01B4AA83291421ED01A4A91425D
:1007A0001BD0194A1832914217D0174A3032914261
:1007B00013D0154A483291420FD0134A6032914209
:1007C0000BD0114A7832914207D00F4A90329142B1
:1007D00003D00D4AA832914211D1CAB21823103A5F
:1007E000B2FBF3F26FF30901032A02F00703074A91
:1007F000D25CC26500D9091D81650846704721F0A9
:10080000FF01F9E71000024010040240F4760008EE
:1008100030B5224A012301689142CAB21BD01F4C55
:100820001434A14217D01D4C2834A14213D01B4CC4
:100830003C34A1420FD0194C5034A1420BD0174C7C
:100840006434A14207D0154C7834A14203D0134C34
:100850008C34A1420CD11421114C083AB2FBF1F1B5
:100860000F4A803201F01F0504EB8101AB4010E01C
:100870000C4D1824103A0D44B2FBF4F1A82D00D809
:100880000831094A01F01F0402EB8101064AA34026
:100890008032603080E80E0030BD000008540258FD
:1008A00000580258F0FBFDBF0008024010B5027965
:1008B000531E072B2DD8174C0168A1421BD0154C95
:1008C0001434A14217D0134C2834A14213D0114C38
:1008D0003C34A1420FD00F4C5034A1420BD00D4CF0
:1008E0006434A14207D00B4C7834A14203D0094CA8
:1008F0008C34A14203D10849074C443102E0074936
:10090000064C443104EB8202C0E91B2101219940CD
:10091000416710BD08540258FC580258FC080240B8
:1009200010B583694FF0C074826A0146002053B14C
:10093000B3F5005F15D072B1012A0CD0022A0AD09B
:10094000032A09D104E01AB1012A06D0022A03D1F0
:10095000C96AC90100D5012010BDC96AA142FAD0F7
:1009600010BD002AF7D0012AF2D0022AF3D0032AC0
:10097000F3D010BD2DE9F04F804E804FDFF8FC9191
:100980001836DFF8F8A148370468856D0AF1300A97
:10099000DFF8ECB14C45DFF8ECC1DFF8ECE16DD0ED
:1009A000B4426BD0544569D0BC4267D0DFF8D081E7
:1009B000A8F11808444561D05C455FD064455DD01E
:1009C00074455BD0DFF8C481444557D0DFF8BC8163
:1009D00008F11808444551D0DFF8B08108F130081B
:1009E00044454BD0DFF8A48108F14808444545D080
:1009F000DFF8988108F1600844453FD0DFF88C812A
:100A000008F17808444539D0DFF8808108F1900872
:100A1000444533D0DFF8748108F1A80844452DD04F
:100A2000DFF86C81444529D0DFF8648108F11408AF
:100A3000444523D0DFF8588108F1280844451DD0EB
:100A4000DFF84C8108F13C08444517D0DFF84081BD
:100A500008F15008444511D0DFF8348108F16408EA
:100A600044450BD0DFF8288108F17808444505D0CB
:100A7000DFF81C8108F18C08444509D1D0E91948F8
:100A8000C4F80480C46E1CB1D0E91C48C4F80480CA
:100A900004684C452ED0B4422CD054452AD0BC42D8
:100AA00028D0374E183EB44224D05C4522D064454D
:100AB00020D074451ED0354EB4421BD0334E18366C
:100AC000B44217D0314E3036B44213D02F4E483690
:100AD000B4420FD02D4E6036B4420BD02B4E783638
:100AE000B44207D0294E9036B44203D0274EA836E0
:100AF000B44215D190F85C603F2406F01F06B44064
:100B0000AC600468256825F4802525602EE09A6095
:100B10000068C160BDE8F08F99600068C260F9E7C5
:100B20001B4EB4421BD01A4E1436B44217D0184E86
:100B30002836B44213D0164E3C36B4420FD0144E71
:100B40005036B4420BD0124E6436B44207D0104E29
:100B50007836B44203D00E4E8C36B442DAD190F8D7
:100B60005C60012406F01F06B4406C60046863609A
:100B70008368402B0368CFD1C9E700001000024012
:100B800088000240A0000240B80002401004024069
:100B900008540258704700001449421CF0B5C1E9DE
:100BA0000202C31C0B61441D4C61C51D8D619E1D5D
:100BB000DFF83CE00E32CE61A71D0F6200F10D0C94
:100BC000931CCEF800C0141DCEF80420951D0EF124
:100BD000080E9E1DA71D0D3200F11B0C1D308EE866
:100BE0007800C1E90B20C1E9097CF0BD8C0000242C
:100BF0003C0A00242DE9F0472A4CDDE90A57DDE9DB
:100C00000C6AD4F80880DDE908C998F80080B8F1CA
:100C1000250F44D1D4F8308098F80080B8F1210F26
:100C20003DD1D4F80C80B8F80080A0F8008020698D
:100C30000088088061691C4809881180A1690988B9
:100C40001960E1690988CCF80010216A0A88C9F89E
:100C5000002001682A680988116041686A6809886B
:100C600011608168AA6809881160C168EA6809880A
:100C7000116001692A690988116040696969008801
:100C80000860606A00883860A06A007800F0070099
:100C90003070A06A007800F008018AF80010BDE802
:100CA000F08700008C0000243C0A0024034801F077
:100CB00036FB012005F0BDFEF8E7000054020024D9
:100CC00072B6FEE703490A7802704A7842704978A2
:100CD00081707047F8000024064900F10D0330B51B
:100CE0001D1D01F11402CB609C1C1330C2E90045AC
:100CF000086130BDF800002430B5084C04F114033D
:100D0000E5682D8805801868008808805868008884
:100D1000488020690088108030BD0000F800002461
:100D20002DE9F84F044601F0C1FA002C009008D0DC
:100D300094F83500022805D080216165002084F8F0
:100D40003400E3E0C84DC84EC74918352068303636
:100D5000DFF81883DFF818938842DFF818A3DFF86C
:100D600018B32ED0A8422CD0B0422AD0404528D06B
:100D7000484526D0504524D0584522D0BE4A183286
:100D800090421ED0BD4A90421BD0BC4A18329042BD
:100D900017D0BA4A3032904213D0B84A4832904203
:100DA0000FD0B64A603290420BD0B44A78329042AB
:100DB00007D0B24A9032904203D0B04AA832904253
:100DC00009D1026822F01E0202602068426922F006
:100DD0008002426103E0026822F00E02026027688E
:100DE0008F4238464DD0A8424BD0B04249D0404502
:100DF00047D0484545D0504543D0584541D09E4AFC
:100E0000183290423DD09D4A90423AD09B4A1832C7
:100E1000904236D0994A3032904232D0974A483286
:100E200090422ED0954A603290422AD0934A78322E
:100E3000904226D0914A9032904222D08F4AA832D6
:100E400090421ED08E4A90421BD08D4A143290425E
:100E500017D08B4A2832904213D0894A3C329042B4
:100E60000FD0874A503290420BD0854A643290426C
:100E700007D0834A7832904203D0814A8C3297421D
:100E800004D1206E026822F48072026076492068E4
:100E9000884228D0A84226D0B04224D0404522D053
:100EA000484520D050451ED058451CD072491831B5
:100EB000884218D07149884215D07049183188424B
:100EC00011D06E49303188420DD06C49483188428A
:100ED00009D06A496031884205D068497831884232
:100EE00001D066499031016821F00101016010E0F4
:100EF00001F0DCF90099401A05280AD92022626520
:100F00000020032184F8340084F835100120BDE866
:100F1000F88F3868C007EBD1534A0121206890420E
:100F20002ED0A8422CD0B0422AD0404528D04845E7
:100F300026D0504524D0584522D04F4B18339842E4
:100F40001ED04E4B98421BD04C4B1833984217D0B2
:100F50004A4B3033984213D0484B483398420FD015
:100F6000464B603398420BD0444B7833984207D0BD
:100F7000424B9033984203D0404BA833984208D15B
:100F800094F85C703F23A06D07F01F07BB4083609F
:100F900007E094F85C30A06D03F01F0301FA03F33F
:100FA0004360206890424DD0A8424BD0B04249D017
:100FB000404547D0484545D0504543D0584541D09D
:100FC0002D4A183290423DD02C4A90423AD02B4ABA
:100FD0001832904236D0294A3032904232D0274AD5
:100FE000483290422ED0254A603290422AD0234A7D
:100FF0007832904226D0214A9032904222D01F4A25
:10100000A83290421ED01E4A90421BD01C4A143275
:10101000904217D01A4A2832904213D0184A3C32D4
:1010200090420FD0164A503290420BD0144A64328C
:10103000904207D0124A7832904203D0104A8C3244
:1010400090420BD1D4E919024260E06E30B10268DF
:1010500022F480720260D4E91C024260002084F80D
:10106000340084F8351052E7100002405800024066
:101070007000024088000240A000024010040240BC
:10108000085402582DE9F05F28B190F83510022974
:1010900004D0802141650120BDE8F09F904C904B29
:1010A0000168183C18338E4ADFF83C92A1428D4CFF
:1010B000DFF838E28E4FDFF83CB2DFF83CA28F4D0C
:1010C0008F4E31D091422FD099422DD0A1422BD0BA
:1010D000494529D0714527D0B94225D0DFF810C243
:1010E0000CF1180C61451FD0DFF808C2ACF1600CA0
:1010F000614519D0DFF8FCC1ACF1480C614513D053
:10110000DFF8F0C1ACF1300C61450DD0DFF8E4C17F
:10111000ACF1180C614507D0594505D0514503D0B5
:10112000A94201D0B1422CD1DFF8B4C14FF004087C
:1011300080F83580ACF1180C61451DD091421BD070
:10114000994219D0A14217D0494515D0714513D005
:10115000B94211D06648183081420DD065486038D8
:10116000814209D063484838814205D0614830380F
:10117000814201D05F481838086820F001000860FB
:10118000ABE0D1F800C02CF00E08DFF854C1C1F874
:101190000080ACF1180C0168614527D0914225D040
:1011A000994223D0A14221D049451FD071451DD07D
:1011B000B9421BD0DFF838C10CF1180C614515D0CD
:1011C000DFF830C1ACF1600C61450FD0DFF824C10D
:1011D000ACF1480C614509D0DFF818C1ACF1300C16
:1011E000614503D0DFF80CC1ACF1180CD1F800C098
:1011F0002CF0010CC1F800C0DFF8E4804FF0010CC6
:101200000168A8F11808414546D0914244D099425E
:1012100042D0A14240D049453ED071453CD0B94270
:101220003AD0334A1832914236D0324A603A91422B
:1012300032D0304A483A91422ED02E4A303A91422A
:101240002AD02C4A183A914226D0594524D05145EB
:1012500022D0A94220D0B1421ED02A4A91421BD0AE
:10126000284A1432914217D0264A2832914213D08C
:10127000244A3C3291420FD0224A503291420BD044
:10128000204A6432914207D01E4A7832914203D0FC
:101290001C4A8C32914218D1016E0A6822F4807285
:1012A0000A6090F85C20816D02F01F020CFA02F2D5
:1012B0004A60D0E919124A60C16E31B10A6822F45D
:1012C00080720A60D0E91C124A600022016D80F829
:1012D000342080F835C001B188470020DCE60000EA
:1012E000280002405800024070000240880002407E
:1012F000A00002407004024088040240A0040240A2
:10130000B804024008540258406D70472DE9FC5F54
:101310000446FA4E0020DFF8E48300904FF41652A2
:10132000F74808F11808A56DDFF8D0A3DFF8CCB3B3
:1013300001680AF1300A20680BF1480BB1FBF2F1A9
:10134000B04201912F68D5F800C0DFF8B89336D0CD
:101350004146884233D0504531D058452FD0E749D7
:10136000603188422BD0E5497831884227D0E34963
:101370009031884223D0E149A83188421FD04845A6
:101380001DD0E0491831884219D0DE4930318842F9
:1013900015D0DC4A4832904211D0DA496031884297
:1013A0000DD0DFF860E30EF1780E704507D0D54B15
:1013B0009033984203D0D349A83188427ED194F823
:1013C0005C20082102F01F0201FA02F23A424BD0DF
:1013D000B04233D0404531D050452FD058452DD064
:1013E000C64A6032904229D0C44A7832904225D011
:1013F000C24A9032904221D0C04AA83290421DD0B9
:1014000048451BD0BF4A1832904217D0BD4A3032EF
:10141000904213D0BB4A483290420FD0B94A603252
:1014200090420BD0B74A7832904207D0B54A9032FA
:10143000904203D0B34AA832904203D1026802F02E
:10144000040202E0026802F008026AB1026822F0B7
:101450000402026094F85C0000F01F008140A96063
:10146000606D40F00100606594F85C00012100F0BF
:101470001F008140394241D02068B04235D04045FC
:1014800033D0504531D058452FD09C4A60329042DD
:101490002BD09A4A7832904227D0984A9032904284
:1014A00023D0964AA83290421FD048451DD0954A75
:1014B0001832904219D0934A303200E0B2E19042A3
:1014C00013D0904A483290420FD08E4A60329042F8
:1014D0000BD08C4A7832904207D08A4A90329042A0
:1014E00003D0884AA83290427ED1406910F0800F24
:1014F00004D0A960606D40F00200606594F85C0063
:10150000042100F01F00814039423FD02068B042E2
:1015100033D0404531D050452FD058452DD0774A53
:101520006032904229D0754A7832904225D0734A71
:101530009032904221D0714AA83290421DD0484545
:101540001BD0704A1832904217D06E4A3032904207
:1015500013D06C4A483290420FD06A4A60329042AF
:101560000BD0684A7832904207D0664A9032904257
:1015700003D0644AA83290424FD1006810F0020FA5
:1015800004D0A960606D40F00400606594F85C00D0
:10159000102100F01F008140394259D02068B0422C
:1015A00035D0404533D0504531D058452FD0534ADF
:1015B000603290422BD0514A7832904227D04F4A25
:1015C0009032904223D04D4AA83290421FD04845D5
:1015D0001DD04C4A1832904219D04A4A30329042BB
:1015E00015D0484A483200E015E090420FD0454AF5
:1015F000603290420BD0434A7832904207D0414A41
:101600009032904203D03F4AA832904207D10068FE
:1016100000F0080006E0006870E70068B6E70068C0
:1016200000F00400A0B1A96020680168490304D556
:101630000068000308D5A16C07E00168C90503D460
:10164000016821F008010160216C09B1204688473A
:1016500094F85C00202100F01F008140394278D0CE
:101660002068B04233D0404531D050452FD0584546
:101670002DD0224A6032904229D0204A78329042BE
:1016800025D01E4A9032904221D01C4AA832904266
:101690001DD048451BD01B4A1832904217D0194A1A
:1016A0003032904213D0174A483290420FD0154A38
:1016B000603290420BD0134A7832904207D0114AE0
:1016C0009032904203D00F4AA832904203D1006872
:1016D00000F0100002E0006800F00200A0B3A96072
:1016E00094F835000428206801680DD049037DD5A1
:1016F0000068000329D4616C28E00000100002405B
:10170000200100241004024021F01601016020682D
:10171000416921F080014161206C08B9A06C20B1C1
:101720002068016821F00801016094F85C303F21D5
:10173000002203F01F0301209940A96084F834209F
:1017400084F83500216D66E003E0E16B09B12046C5
:101750008847606D00287DD0606DC0075AD0206832
:10176000042184F83510B0422BD0404529D0504593
:1017700027D0584525D09E49884222D09C4918310F
:1017800088421ED09A49303188421AD0984948314F
:10179000884216D0484514D09649884211D09549C0
:1017A000183188420DD093493031884209D091498F
:1017B0004831884205D08F496031884201D08D4937
:1017C0007831016821F00101016020680099019AD7
:1017D000491C0091914202D80168C907F6D1002145
:1017E00084F834100068C00711D000E001E0032045
:1017F0000EE00168C905A8D403680022012123F086
:101800001003036084F8342084F835109DE701202C
:1018100084F83500E16C00291CD002B02046BDE8F8
:10182000F05F0847744988421DD0734914318842DB
:1018300019D071492831884215D06F493C3188420E
:1018400011D06D49503188420DD06B4964318842C6
:1018500009D000E086E068497831884203D06649C3
:101860008C3188427ED194F85C800427016808F0AE
:101870001F0807FA08F717EA0C0F009746D04F0722
:1018800044D500980F04686003D5C8033CD4A16C0C
:10189000C1E7880638D42068B0422DD05449483971
:1018A000884229D0504527D0584525D050498842F4
:1018B00022D04F49183188421ED04D4930318842DC
:1018C0001AD04B494831884216D0484514D049496E
:1018D000884211D04749183188420DD090420BD030
:1018E00044494831884207D0704505D0984203D01A
:1018F00040499031884203D1016821F0080102E09B
:10190000016821F004010160216C84E7022707FAD5
:1019100008F717EA0C0F00974ED08F074CD50098A8
:101920000F04686003D5C80344D4616C73E788066C
:1019300040D42068B0422FD02D49483988422BD05E
:10194000504529D0584527D02949884224D02849D4
:101950001831884220D02649303188421CD0244991
:10196000483100E041E0884216D0484514D0214972
:10197000884211D01F49183188420DD090420BD0B7
:101980001C494831884207D0704505D0984203D0A1
:1019900018499031884203D1016821F0140102E016
:1019A000016821F00A010160002184F8341001204F
:1019B00084F83500E16B2EE7082202FA08F212EAF9
:1019C0000C0F12D0090710D5016821F00E0101603B
:1019D00094F85C100120002201F01F0100FA01F1CF
:1019E0006960606584F8342012E7BDE8FC9F000060
:1019F0007000024028040240085402582DE9F05FAC
:101A0000044600F053FC002C07467DD0E34E022133
:101A100020684FF00308DFF888934FF00005DFF8E7
:101A200084A3B042DFF880B334D0DC4A183290424D
:101A300030D048452ED050452CD058452AD0DA4ACF
:101A40001832904226D0D84A3032904222D0D64A1C
:101A5000483290421ED0D54A90421BD0D34A183209
:101A6000904217D0D14A3032904213D0CF4A4832F8
:101A700090420FD0CD4A603290420BD0CB4A7832A0
:101A8000904207D0C94A9032904203D0C74AA83248
:101A900090427DD184F8345084F83510B0422ED075
:101AA000BE49183188422AD0484528D0504526D012
:101AB000584524D0BC491831884220D0BA49303129
:101AC00088421CD0B8494831884218D0B74988426A
:101AD00015D0B6491831884211D0B4493031884206
:101AE0000DD0B2494831884209D0B04960318842AE
:101AF00005D0AE497831884201D0AC4990310168B7
:101B000021F00101016008E027E100BF00F0CEFBF9
:101B1000C01B052801D920211CE120680068C007EE
:101B2000F4D104F108002168D4E9053C8E4685C84B
:101B300009681043D4E907281F43636A38439C4F60
:101B400040EA0C001043394040EA0800042B40EA08
:101B5000010003D1D4E90B121143084395490968E8
:101B60006FF30F01B1F1005F0FD36168A1F129029A
:101B7000052A08D9163A032A05D9083A012A02D9B2
:101B80004F39032901D840F48010CEF8000000E05E
:101B900023E02068676A4069042F20F0070047EAC5
:101BA00000070DD1D4E90A01074349B12046FEF7E9
:101BB000B7FE28B140206065012184F83510CCE0E3
:101BC000206847612046FEF7C9FD94F85C203F215C
:101BD00002F01F029140816054E0774A90421BD08E
:101BE000754B1433984217D0734B2833984213D057
:101BF000714B3C3398420FD06F4B503398420BD00F
:101C00006D4B6433984207D06B4B7833984203D0C6
:101C1000694B8C3398427DD1684B84F8345084F8FA
:101C200035100168A26801EA030E402A73D0802AA9
:101C300072D00022D4E90378D4E9053142EAD70210
:101C400042EAD8085C4AD4E9077C48EAD30848EA63
:101C5000D10141EAD701524241EA1C11142341EA61
:101C60000E01016020681044B0FBF3F08000E065D5
:101C70002046FEF773FD94F85C20012102F01F025C
:101C8000914041602068B04257D0444918318842A1
:101C900053D0484551D050454FD058454DD042497A
:101CA0001831884249D040493031884245D03E49B8
:101CB0004831884241D03D4988423ED03B491831A5
:101CC00088423AD039493031884236D03749483194
:101CD000884232D03549603188422ED0334978313C
:101CE00088422AD031499031884226D02F49A831E4
:101CF000884222D0304988421FD02F49143188426F
:101D00001BD02D492831884217D02B493C318842BD
:101D100013D002E01DE017E018E027495031884257
:101D20000BD025496431884207D023497831884255
:101D300003D021498C31884229D12046FEF768FD25
:101D4000A06880280CD00CE0102273E74FF480428A
:101D500070E74021616584F835800120BDE8F09F7F
:101D60006560216E20790860D4E9190141606068DE
:101D7000401E072808D82046FEF798FDE06E056053
:101D8000D4E91C01416002E0E56625676567012032
:101D9000656584F835000020E0E70000100002408F
:101DA000400002405800024070000240100402400F
:101DB0003F8010FE0010005C085402580F00FEFF28
:101DC0002DE9F84F04008C464FF00000009013D02E
:101DD00094F83400012811D094F8355001200021E6
:101DE00084F83400012D0BD084F83410C202009026
:101DF00062650098BDE8F88F0120FBE70220F9E753
:101E00008C4D0226206884F83560A8428A4D6165B1
:101E10008A4E8B4FDFF82C82DFF82C92DFF82CA251
:101E2000DFF82CB226D0A84224D0B04222D0B8424B
:101E300020D040451ED048451CD050451AD05845AA
:101E400018D08449884215D082491831884211D06F
:101E50008049303188420DD07E494831884209D0CE
:101E60007C496031884205D07A497831884201D076
:101E700078499031016821F00101016061462046F6
:101E8000FEF778FD6B49206888422CD0A8422AD002
:101E9000B04228D0B84226D0404524D0484522D070
:101EA000504520D058451ED06A4A90421BD0694AFE
:101EB0001832904217D0674A3032904213D0654AA8
:101EC000483290420FD0634A603290420BD0614A50
:101ED0007832904207D05F4A9032904203D05D4AF8
:101EE000A83290420CD1026822F01E0242F0160283
:101EF0000260206C88B12068026842F008020BE0A2
:101F0000026822F00E0242F00A020260206C20B148
:101F10002068026842F004020260206888424BD0C8
:101F2000A84249D0B04247D0B84245D0404543D0FE
:101F3000484541D050453FD058453DD0454A904254
:101F40003AD0444A1832904236D0424A3032904217
:101F500032D0404A483290422ED03E4A60329042BF
:101F60002AD03C4A7832904226D03A4A9032904267
:101F700022D0384AA83290421ED0374A90421BD015
:101F8000354A1432904217D0334A2832904213D047
:101F9000314A3C3290420FD02F4A503290420BD0FF
:101FA0002D4A6432904207D02B4A7832904203D0B7
:101FB000294A8C3290420DD1206E0268D20303D59B
:101FC000026842F480720260E06E18B1026842F466
:101FD000807202602068884226D0A84224D0B04295
:101FE00022D0B84220D040451ED048451CD0504594
:101FF0001AD0584518D01749884215D015491831BC
:10200000884211D01349303188420DD011494831EE
:10201000884209D00F496031884205D00D49783196
:10202000884201D00B499031016841F00101016003
:10203000DFE600001000024028000240400002409D
:10204000580002407000024088000240A000024098
:10205000B800024010040240085402582DE9FC4F19
:1020600001257E4C00234FF0030A4FF0B04E4FF095
:102070000F0BEBE005FA03F637403A0077D04F68D4
:10208000012F05D0022F03D0112F01D0122F1AD10A
:1020900087684FEA4308D1F80CC00AFA08F927EA22
:1020A00009070CFA08FC4CEA070CC0F808C047689E
:1020B00091F804C0B743CCF3001C0CFA03FC4CEAC3
:1020C000070CC0F804C0C6684FEA430CD1F808807A
:1020D000E1460AFA0CF7BE43019708FA09F848EA04
:1020E0000608C0F80C804E68022E01D0122E12D1C4
:1020F000DE084FEA437C00EB860600960F69366ADD
:102100004FEADC6C0BFA0CF807FA0CF726EA080623
:102110003743009E37620E790768DDF804C006F089
:10212000030606FA09F627EA0C073E4306604E68E6
:10213000F6001CD54A4E376847F00207376036680C
:102140009F0706F00206009623F0030606F1B0464C
:10215000B1463F0FD6F80864DFF808810BFA07FC98
:10216000404526EA0C0603D14FF0000C41E06CE03C
:10217000DFF8F4C0604502D14FF0010C39E0DFF820
:10218000ECC0604502D14FF0020C32E0DFF8E0C055
:10219000604502D14FF0030C2BE0DFF8D8C060455A
:1021A00002D14FF0040C24E0DFF8CCC0604502D12E
:1021B0004FF0050C1DE0DFF8C4C0604502D14FF0C0
:1021C000060C16E0DFF8B8C0604502D14FF0070CEE
:1021D0000FE0DFF8B0C0604502D14FF0080C08E016
:1021E000DFF8A4C0604502D14FF0090C01E04FF0C8
:1021F0000A0C0CFA07FC4CEA060CC9F808C426685D
:102200004F6826EA0206FF0300D51643266066687B
:102210004F6826EA0206BF0300D516436660D1F870
:1022200004C07646DEF800705FEACC2C27EA02078D
:1022300000D517433760D1F804C077685FEA8C2C6B
:1022400027EA020700D5174377605B1C0A68174628
:10225000DA407FF40FAFBDE8FC8F0000800000582B
:10226000F4440258000002580004025800080258C2
:10227000000C0258001002580014025800180258AE
:10228000001C02580020025800240258006908402F
:1022900000D0012070470AB1816170470904FBE753
:1022A00001480068000C70470010005C014880681D
:1022B000704700001401002470B5040011D022689A
:1022C0004CF6CC4145F25550116021680860D4E9C4
:1022D000000141602168A0688860FFF7E7FF0546BC
:1022E0000DE0012070BD00BFFFF7E0FF401B30286C
:1022F00005D92068C068400701D0032070BD206860
:10230000C0684007F0D12068E16802698A4201D0C4
:10231000016102E04AF6AA210160002070BD016857
:102320004AF6AA2008600020704700000248816831
:10233000027811448160704714010024032010B515
:1023400000F0B0F801F04CF80F4A10491468136817
:10235000C4F3032203F00F038A5CC95C02F01F027E
:1023600001F01F01D0400A4A20FA01F11160094929
:102370000860002000F010F808B1012010BD00F046
:1023800051F8002010BD00001844025824770008BE
:10239000240100242001002410B5102804468AB02E
:1023A0002CD200220146362000F05CF8362000F0E6
:1023B0004BF8174804601748016841F010010160AC
:1023C000006809A900F010000890684600F094FF2A
:1023D0000598B0B100F0E0FF40000F4900220F4C1B
:1023E000B0FBF1F10E4840F2E7330460C0E903327C
:1023F000491EC0E9011201F063FB28B101200AB0B7
:1024000010BD00F0C9FFE8E7054801F0C3FBF6E79F
:1024100018010024E844025840420F000010004018
:10242000F0090024074882B0016841F00201016010
:10243000006800220F2100F002000090901E02B000
:1024400000F010B8F4440258002809DB410900F0FC
:102450001F028900012001F1E0219040C1F8000134
:10246000704700000E4BF0B41B680D46C3F3022307
:10247000C3F10706042E00D90426191D072901D22D
:10248000002300E0DB1E012404FA06F19C40491EF3
:102490002940641E994014402143F0BC04F006BA60
:1024A0000CED00E0064900F0070210B54FF6FF04FE
:1024B0000868044B204040EA02201843086010BD21
:1024C0000CED00E00000FA05134970B50A68D2432C
:1024D000520705D5096801F00701814213D118E0C0
:1024E0000A6822F0070202430A60FFF7DFFE0A4D86
:1024F0004FF47A760446083D07E000BFFFF7D6FEAA
:10250000001BB04201D9012070BD2868C04380047F
:10251000F4D4002070BD00000C48025810B500F043
:1025200019FF05490968054AC1F30211515C01F020
:102530001F01C84010BD0000204402582477000845
:10254000494930B5484C0B1D0A68143409681D68A8
:10255000246802F00303C5F30012C1F30531C4F38C
:10256000CC04002914FB02F200EE102AF8EE400A17
:1025700075D03F4A9FED3D1AB7EE000A6BB1DFED13
:102580003D1A012B01D0022B64D002EE101A116803
:10259000F8EE422A81EEA22A21E0334C283C23683F
:1025A0009B0612D5344B246801EE901A1168C4F3CF
:1025B000C104F8EE612AE34001EE903AC1F308014C
:1025C000F8EE611A81EEA22A0BE001EE901ADFED1F
:1025D0002B2A00BFF8EE611A116882EEA12AC1F31E
:1025E000080101EE901A1168F8EE611A40EE811AA6
:1025F00071EE800A62EE200AC1F3462101EE101A44
:10260000B8EE411A31EE001AC0EE811ABCEEE11AA2
:1026100080ED001A1168C1F3064101EE101AB8EE00
:10262000411A31EE001AC0EE811ABCEEE11A80EDBB
:10263000011A1168C1F3066101EE101AB8EE411AD1
:1026400031EE000A80EE801ABCEEC10A80ED020A6B
:1026500030BD04E001EE901ADFED092ABAE700214F
:10266000016041608160F3E72844025800000039AE
:10267000384402580024744A0090D0030024744C5B
:1026800020BCBE4B494930B5484C0B1D0A681C3470
:1026900009681D68246802F00303C5F30022C1F332
:1026A0000551C4F3CC04002914FB02F200EE102AF9
:1026B000F8EE400A75D03F4A9FED3D1AB7EE000A8A
:1026C0006BB1DFED3D1A012B01D0022B64D002EE7D
:1026D000101A1168F8EE422A81EEA22A21E0334C4A
:1026E000283C23689B0612D5344B246801EE901ACF
:1026F0001168C4F3C104F8EE612AE34001EE903A98
:10270000C1F30801F8EE611A81EEA22A0BE001EE96
:10271000901ADFED2B2A00BFF8EE611A116882EEE5
:10272000A12AC1F3080101EE901A1168F8EE611AAE
:1027300040EE811A71EE800A62EE200AC1F3462152
:1027400001EE101AB8EE411A31EE001AC0EE811AED
:10275000BCEEE11A80ED001A1168C1F3064101EEEA
:10276000101AB8EE411A31EE001AC0EE811ABCEE12
:10277000E11A80ED011A1168C1F3066101EE101A29
:10278000B8EE411A31EE000A80EE801ABCEEC10AA2
:1027900080ED020A30BD04E001EE901ADFED092A57
:1027A000BAE70021016041608160F3E728440258E4
:1027B00000000039404402580024744A0090D003BD
:1027C0000024744C20BCBE4B2DE9FC5F044650F83D
:1027D000241B002500902E460801FE4FDFF8F883E9
:1027E0001DD5606E50B1B0F5801F0CD0B0F5001F44
:1027F0000ED0B0F5401F1DD001250FE0386840F421
:102800000030386016E00221201D02F0F3FC03E0E6
:102810000098022102F07EFD05000BD02E46208894
:10282000C00523D5606D05281ED2DFE800F00C112D
:10283000161B1B00626ED8F8001021F440111143E2
:10284000C8F80010EBE7386840F40030386009E061
:102850000021201D02F0CEFC03E00098002102F0D0
:1028600059FD05466DB100E001252E462088800502
:1028700028D5A06D80281ED00CDC90B140280ED148
:1028800014E0626DD8F8001021F007011143C8F878
:102890000010EBE7C02813D0B0F5807F10D00125E1
:1028A0000FE0386840F40030386009E00021201D56
:1028B00002F0A0FC03E00098002102F02BFD054689
:1028C00095B12E462088DFF81093400509F10809DC
:1028D0002CD5D4F8A400B0F5800F20D00DDCA0B129
:1028E000B0F5001F0FD115E0A26DD8F8001021F44B
:1028F000E0711143C8F80010E4E7B0F5C00F13D041
:10290000B0F5000F10D001250FE0386840F400301A
:10291000386009E00021201D02F06CFC03E0009803
:10292000002102F0F7FC054675B12E46208800050F
:102930002DD5D4F8A800B0F1007F21D00EDCA8B1CD
:10294000B0F1807F10D116E0D4F8A420D9F800109F
:1029500021F460011143C9F80010E7E7B0F1407FAE
:1029600013D0B0F1806F10D001250FE0386840F42B
:102970000030386009E00021201D02F03BFC03E03C
:102980000098002102F0C6FC05466DB12E46206875
:1029900080011FD5A06CD8B110280FD0202812D0EC
:1029A000302815D0012514E0D4F8A820D9F800105B
:1029B00021F0E0611143C9F80010E8E7386840F4FD
:1029C0000030386004E00221201D02F013FC0546AF
:1029D0006DB12E462088C0042BD5E06DB0F5005FA8
:1029E00020D00DDCA0B1B0F5805F0FD115E07A48A2
:1029F000A26C001F016821F0300111430160E9E77A
:102A0000B0F5405F13D0B0F5804F10D001250FE036
:102A1000386840F40030386009E00021201D02F0E1
:102A2000E9FB03E00098002102F074FC054685B143
:102A30002E462088800429D5206EB0F5403F23D053
:102A400010DC08B3B0F5803F14D0B0F5003F0FD1D3
:102A500015E0E26DD8F8001021F4E0411143C8F808
:102A60000010E6E7B0F5802F0ED0B0F5A02F0BD008
:102A700001250AE00121201D02F0BCFB03E00098C3
:102A8000012102F047FC05468DB12E462088400406
:102A90002AD5D4F8AC00B0F1405F23D010DC08B3E5
:102AA000B0F1805F14D0B0F1005F0FD115E0226E5D
:102AB000D8F8001021F4E0211143C8F80010E5E730
:102AC000B0F1804F0ED0B0F1A04F0BD001250AE03D
:102AD0000121201D02F08EFB03E00098012102F08D
:102AE00019FC05466DB12E46208800041FD5E06E06
:102AF000D8B1B0F1805F0ED0B0F1005F10D00125E9
:102B000014E0D4F8AC20D9F8001021F0E0411143D2
:102B1000C9F80010E8E7386840F40030386004E095
:102B20000121201D02F066FB05466DB12E4620688E
:102B3000C0011ED5606CD0B101280ED0022811D082
:102B4000032814D0012513E0E26ED8F8001021F01C
:102B500040511143C8F80010E9E7386840F40030EC
:102B6000386004E00221201D02F044FB054685B1D7
:102B70002E462068DFF85CB04002ABF11C0B57D545
:102B80001648016841F480710160FFF78FFB8246AF
:102B90000EE01148626C001F016821F0030111432F
:102BA0000160E6E7FFF782FBA0EB0A0064283DD84E
:102BB0000A480068C005F5D57DBBDFF81CA0B4F855
:102BC000B0200AF1200ADAF8001002F4407001F493
:102BD000407105E02C440258504402580048025805
:102BE000814211D0DAF80010DAF8002021F44071A7
:102BF00042F48032CAF80020DAF8002022F4803251
:102C0000CAF80020CAF80010D4F8B000B0F5807FF0
:102C100021D1FFF74BFB019019E008E0FFF746FBDD
:102C20000199411A41F28830814210D903252E467C
:102C30002078DFF844A4C0073DD0A06F182838D012
:102C400026DC80B3082829D0102825D12CE0DAF81A
:102C500000008007E2D5D4F8B010C1F301200328AA
:102C600058460DD0016821F47C510160B4F8B020C1
:102C7000DAF80010C2F30B021143CAF80010D7E7CC
:102C8000FE4A036802EA111223F47C511143ECE777
:102C900020280ED028280CD001250BE00121201D72
:102CA00002F0A8FA04E004E00098012102F032FBEF
:102CB00005465DB12E46207880071ED5606F062838
:102CC00019D2DFE800F0160C11161616A26FDAF80A
:102CD000001021F038011143CAF80010EBE7012180
:102CE000201D02F087FA03E00098012102F012FB98
:102CF000054675B100E001252E46207840071FD516
:102D0000D4F89000062819D2DFE800F0160C11164E
:102D10001616626FDAF8001021F007011143CAF8A5
:102D20000010EAE70121201D02F064FA03E0009898
:102D3000012102F0EFFA05469DB100E001252E4683
:102D4000207880062BD5D4F88C00B0F1405F24D0D9
:102D500011DC10B3B0F1805F15D0B0F1005F10D17D
:102D600016E0D4F89020D9F8001021F007011143A3
:102D7000C9F80010E4E7B0F1804F0ED0B0F1A04FD9
:102D80000BD001250AE00021201D02F033FA03E0F8
:102D90000098022102F0BEFA05468DB12E46207839
:102DA00040062BD5D4F89800B0F5406F24D011DC44
:102DB00010B3B0F5806F15D0B0F5006F10D116E0EC
:102DC000D4F88C20DAF8001021F0E0411143CAF861
:102DD0000010E4E7B0F5805F0ED0B0F5A05F0BD037
:102DE00001250AE00021201D02F004FA03E000980A
:102DF000022102F08FFA05468DB12E46207800069A
:102E00002BD5D4F89C00B0F5C04F24D011DC10B302
:102E1000B0F5005F15D0B0F5804F10D116E0D4F8B2
:102E20009820D9F8001021F4E0511143C9F800109E
:102E3000E4E7B0F5004F0ED0B0F5204F0BD00125E0
:102E40000AE00021201D02F0D5F903E000980221DC
:102E500002F060FA05464DB12E46207800071ED5D7
:102E6000D4F88000B0F5805F0AD00FE0D4F89C2041
:102E7000D9F8001021F460411143C9F80010ECE7C3
:102E80000098022102F046FA00B10126D4F8802011
:102E9000DAF8001021F440511143CAF800102078EC
:102EA000C00613D5D4F89400B0F5807F05D1009802
:102EB000022102F02FFA00B10126D4F89420D9F8AB
:102EC000001021F440711143C9F80010206800037C
:102ED00016D5D4F8A00038B1B0F5803F09D0B0F5D0
:102EE000003F0BD001250AE00021201D02F082F9ED
:102EF00003E00098022102F00DFA054685B12E4646
:102F00002068400322D5D4F88400B0F5801F11D08A
:102F1000B0F5001F13D0B0F5401F15D0012514E007
:102F2000D4F8A020D9F8001021F440311143C9F899
:102F30000010E5E7386840F40030386004E000989D
:102F4000012102F0E7F9054655B12E462068C0037D
:102F50001CD5E06C70B1B0F5803F10D0012514E0B5
:102F6000D4F88420DAF8001021F440111143CAF893
:102F70000010EBE7386840F40030386004E00221CC
:102F8000201D02F037F90546CDB12E46206880009D
:102F900005D50098022102F0BDF900B10126206894
:102FA00080031BD5E06FB8B1B0F5807F10D0B0F5CD
:102FB000007F11D0B0F5407F0ED001250DE02E48E6
:102FC000E26C0838016821F4803111430160DDE7CB
:102FD000386840F400303860F5B32E462068C002EF
:102FE00007D5226FD8F8001021F000411143C8F82E
:102FF00000102068C00008D5D4F8B420DBF8001019
:1030000021F480411143CBF800102068800207D5DD
:10301000A26ED8F8001021F080711143C8F800109A
:10302000206840000CD5DBF8001021F40041CBF8FB
:103030000010DBF80010D4F8B8201143CBF80010D2
:103040002068002807DA0C48226D0838016821F052
:1030500040511143016000E014E02068000208D5EF
:10306000D4F88820DAF8001021F440011143CAF89E
:10307000001086B1012003E054440258CFFFFF0046
:10308000BDE8FC9FE26FDAF8001021F440711143B3
:10309000CAF80010A2E70020EDE700002DE9F05F7C
:1030A00004000F467ED0DFF83882D8F8000000F028
:1030B0000F00B8420CD2D8F8001021F00F013943AC
:1030C000C8F80010D8F8000000F00F00B84269D12D
:1030D0002078844D40070AD52069296801F07001E5
:1030E000884204D9296821F07001014329602078C1
:1030F0007C4E361D00070AD56069316801F0700109
:10310000884204D9316821F0700101433160207890
:10311000C0060AD5A069316801F4E061884204D98B
:10312000316821F4E061014331602078DFF8B4B107
:1031300080060BF1080B0CD5E1695846DBF800203E
:1031400002F07002914204D9026822F070020A4330
:103150000260207880070AD5E068296801F00F0135
:10316000884204D9296821F00F01014329602078A1
:10317000C0073ED05B49A2682868183920F4706007
:10318000104328606068022818D0032819D0096805
:10319000012819D0490700294ADADFF848A1AAF125
:1031A000080A00E044E0DAF8002022F007020243B7
:1031B000CAF80020FFF77AF8814612E0096889030F
:1031C000E9E709688901E6E7C905E4E7FFF76EF872
:1031D000A0EB090141F28830814202D90320BDE809
:1031E000F09F6168DAF8000000F03800B0EBC10F22
:1031F000ECD1207880070AD5E068296801F00F013A
:10320000884204D2296821F00F0101432960D8F8CF
:103210000010404601F00F01B9420BD9016821F0BE
:103220000F0139430160006800F00F00B84201D07F
:103230000120D4E7207840070AD52069296801F0E9
:103240007001884204D2296821F07001014329608D
:10325000207800070AD56069316801F07001884262
:1032600004D2316821F07001014331602078C0063A
:103270000AD5A069316801F4E061884204D231685E
:1032800021F4E06101433160207880060CD5E169CA
:103290005846DBF8002002F07002914204D2026826
:1032A00022F070020A43026000F09AF80E492A6880
:1032B0002B68C2F3032203F00F038A5CC95C02F09F
:1032C0001F0201F01F01D040084A20FA01F11160ED
:1032D0000749086007480068BDE8F05FFFF75CB881
:1032E00000200052184402582477000824010024CA
:1032F000200100241801002470B5144C3F22026004
:10330000124A24680832131D114D04F0070444606A
:1033100016681C1D06F470668660166806F00F06B7
:10332000C660126802F0700202611A6802F0700250
:1033300042611A6802F4E0628261226802F070025F
:10334000C261286800F00F00086070BD1044025888
:103350000020005230B500F043F80B4A0B490C4BEB
:1033600015681468C5F3032204F00F048A5C095D34
:1033700002F01F0201F01F01D040064A20FA01F1BD
:1033800019601060084630BD1844025824770008C0
:10339000240100242001002400B5FFF7DBFF0549CC
:1033A0000968054AC1F30211515C01F01F01C840D0
:1033B00000BD00001C4402582477000800B5FFF748
:1033C000C9FF05490968054AC1F30221515C01F0B2
:1033D0001F01C84000BD00001C44025824770008AB
:1033E000454970B545480968434B103B11F0380218
:1033F00008D00111082A03D0102A0BD0182A0BD0AC
:10340000084670BD19688906FBD51968C1F3C1016A
:10341000C84070BD3A4870BD3749374D18310C1D52
:1034200024350A68096826682D6802F0030406F04E
:103430000102C1F30511C5F3CC0515FB02F200EE44
:10344000102AB8EE400AE9B32F4ADFED2E0AB7EE94
:10345000001A6CB1DFED2D1A012C01D0022C43D0E3
:1034600002EE101A1068F8EE422A81EEA22A1EE03F
:103470001C68A40611D51B6801EE901A1168C3F3ED
:10348000C103F8EE612AD84001EE900AC1F30800AA
:10349000F8EE611A81EEA22A0BE001EE901ADFED40
:1034A0001C2A00BFF8EE611A106882EEA12AC0F350
:1034B000080001EE900AF8EE611A40EE201A31EE93
:1034C000810A00E015E022EE000A1068C0F34620F1
:1034D000401C00EE900AF8EE600A80EE201ABCEE66
:1034E000C10A10EE100A70BD01EE901ADFED092A34
:1034F000D8E7002070BD0000104402580090D003AF
:1035000040787D0100000039304402580024744A9C
:103510000024744C20BCBE4B2DE9F05F04007CD02D
:10352000FF4F2078FE4D1837DFF8F493103DC007A9
:1035300048D0D9F80000396800F03800102815D0BC
:10354000182803D101F0030002280FD06068B0F5FD
:10355000803F12D010B1B0F5A02F18D0286820F409
:1035600080302860286820F4802009E028688003E3
:1035700028D560680028D2D024E0286840F4803044
:103580002860606888B1FEF791FE064609E0286869
:1035900040F480202860F0E7FEF788FE801B642856
:1035A0007ED828688003F7D50CE0FEF77FFE06463C
:1035B00005E000BFFEF77AFE801B6428F0D828687B
:1035C0008003F7D4207841F20308D54E0C3E8007E3
:1035D00053D5D9F80000396810F038000ED01828FB
:1035E00001D188070AD0E068A8B3296821F0190141
:1035F00001432960FEF75AFE82461BE02868400717
:1036000002D5E06800288AD0FEF74AFE40451BD864
:103610002069402812D0316800E0CCE021F47C31F0
:1036200041EA0030306028E0FEF740FEA0EB0A00DF
:103630000228B5D828684007F6D5E5E7306820F4B9
:103640007C3040F40030EDE7207C316821F0FE4111
:1036500041EA0060E6E7FFE7286820F00100286003
:10366000FEF724FE824605E0FEF720FEA0EB0A00EE
:10367000022895D828684007F6D42078C0065FD580
:10368000D9F80000DFF898B2396800F03800ABF1E3
:10369000040B082812D0182805D101F0030000E01F
:1036A000EAE001280AD0E0690028286838D040F014
:1036B00080002860FEF7FAFD824623E02868C005F6
:1036C00023D5E069802876D11FE0206A202821D008
:1036D000316821F0F84141EA8060306030E000BF9D
:1036E00094F82010DBF8002022F07C5242EA0161BD
:1036F000CBF8001024E000BFFEF7D8FDA0EB0A00D5
:10370000022896D82868C005F6D5FEF7C9FD4045C1
:10371000E6D8DAE7306820F0F84040F08040DCE797
:1037200020F080002860FEF7C1FD064605E000BFDE
:10373000FEF7BCFD801B02289BD82868C005F7D483
:103740002078000729D576486169643000298046D1
:10375000016811D041F001010160FEF7A7FD0646A6
:1037600005E000BFFEF7A2FD801B0228C9D8D8F8EB
:1037700000008007F6D510E021F001010160FEF79E
:1037800095FD064605E000BFFEF790FD801B022870
:1037900072D8D8F800008007F6D42078800623D5A8
:1037A000A0690028286810D040F480502860FEF7F7
:1037B0007DFD064605E02CE1FEF778FD801B022822
:1037C0005AD828688004F7D50EE020F4805028608D
:1037D000FEF76CFD064604E0FEF768FD801B02283C
:1037E0004AD828688004F7D4207840074FD5DFF8FE
:1037F0003481D8F8001041F48071C8F80010FEF749
:1038000055FD064605E000BFFEF750FD801B64280D
:1038100032D8D8F80000C005F6D5414EA068603611
:1038200001280AD008B1052813D0306820F0010023
:103830003060306820F0040002E0306840F00100A1
:103840003060A06841F2883A90B1FEF72FFD8046C3
:103850000AE0306840F004003060EEE7FEF726FD35
:10386000A0EB0801514507D830688007F6D50EE077
:10387000FEF71CFD804607E084E000BFFEF716FD62
:10388000A0EB080151457DD830688007F6D4606A06
:10389000F0B3DFF88C80D9F8001008F12008C1F3EC
:1038A000C20103296FD00228286820F080702860A8
:1038B00003D0FEF7FBFC044680E0FEF7F7FC06466B
:1038C00005E000BFFEF7F2FC801B022873D82868D1
:1038D0008001F7D4E26A40F2F331386854F8283FA7
:1038E000884340EA021018433860217B4FF4FE0CF5
:1038F00022894FF0FE47208A4902267D521E401E33
:10390000A1F5007189B20CEA0040C2F3080200E0A0
:1039100081E01143761E0143014807EA066203E095
:1039200010440258004802581C3011433B4AC8F862
:103930000010016821F00101016011684FF6F8766E
:10394000236AB14341EAC30111600168A26921F011
:103950000C01114301600168E26921F00201114389
:103960000160016841F480310160016841F4003177
:103970000160016841F480210160016841F00101AA
:10398000016001E017E01DE0286840F080702860C9
:10399000FEF78CFC044604E0FEF788FC001B0228BE
:1039A00009D828688001F7D535E000BFFEF77EFC16
:1039B000001B022802D90320BDE8F09F286880017F
:1039C000F4D428E039680128D8F8000021D0A26A90
:1039D00001F0030393421CD1E26AC1F305118A424C
:1039E00017D1216BC0F30802491E8A4211D1616BC5
:1039F000C0F34622491E91420BD1A16BC0F306428F
:103A0000491E914205D1E16BC0F30660491E814217
:103A100001D00120D0E70020CEE700003444025856
:103A20007047704770470000F0B590F83C20012ABD
:103A300038D01D4E012480F83C40022280F83D2001
:103A400002681A4D5368B242D2F808C001D0AA42A7
:103A500003D14F6823F470033B430F6823F07003D6
:103A60001F4357600268B24210D0B2F1804F0DD0B0
:103A70000F4B9A420AD00F4B9A4207D00E4B9A42F4
:103A800004D0AA4202D00D4B9A4204D189682CF08E
:103A9000800319439160002180F83D4080F83C107C
:103AA0000846F0BD0220F0BD0000014000040140C6
:103AB0000004004000080040000C004000180040D6
:103AC00010B5040003D094F83D0010B107E00120C8
:103AD00010BD002084F83C00204600F023F80220AE
:103AE00084F83D002068211D01F0D2FE012084F8F9
:103AF000480084F83E0084F83F0084F8400084F8D1
:103B0000410084F8420084F8430084F8440084F8BB
:103B1000450084F8460084F8470084F83D00002002
:103B200010BD000008B501681648B1F1804F0BD0F8
:103B3000154A914210D1016841F00201016000680C
:103B400000F00200009008BD016841F00101016031
:103B5000006800F00100F5E70C4A914207D10168C6
:103B600041F004010160006800F00400EAE7084A3F
:103B70009142E8D1016841F008010160006800F05D
:103B80000800DFE7E8440258000400400008004055
:103B9000000C004090F83D10012901D00120704731
:103BA000154A022180F83D100168CB6843F00103FB
:103BB000CB600068904211D0B0F1804F0ED00F4919
:103BC00088420BD00E49884208D00E49884205D061
:103BD0000D49884202D00D49884207D181680C4ABC
:103BE0001140062906D0B1F5803F03D0016841F0AD
:103BF0000101016000207047000001400004004006
:103C000000080040000C0040000401400018004083
:103C10000700010070B5044690F83C00012814D05C
:103C2000394B012584F83C50022084F83D0022687D
:103C30009068184020F47F4090600868702828D071
:103C400010DC10F00F0F03D04BE04FF0020070BDFE
:103C50004FEA2012072A44D2DFE802F051515151B5
:103C600049323A00B0F1101F49D009DCB0F5805F4D
:103C700037D0B0F5005F17D0B0F5801F31D13EE0EE
:103C8000A0F5801120393AD0102938D0202928D128
:103C900035E04A682068D1E9021301F068FE206827
:103CA000816841F0770109E04A682068D1E9021390
:103CB00001F05DFE2068816841F48041816010E080
:103CC000CA684968206801F0EDFF2068502106E0CD
:103CD000CA684968206801F0F6FF2068602101F099
:103CE0004FFE002084F83D5084F83C0070BDCA6847
:103CF0004968206801F0D6FF20684021EFE722687C
:103D000001461046EBE7000088FFCEFF704770B514
:103D10000446006800250169C943890715D4C168B4
:103D2000C943890711D4EA1E026101212177206865
:103D300080698007204602D0FFF7E8FF04E000F02A
:103D400035F9204600F0F4F9257720680169C94368
:103D5000490717D4C168C943490713D402216FF03A
:103D60000402026121772068806910F4407F2046B8
:103D700002D0FFF7CBFF04E000F018F9204600F076
:103D8000D7F9257720680169C943090716D4C168A6
:103D9000C943090712D404216FF008020261217798
:103DA0002068C0698007204602D0FFF7AFFF04E01B
:103DB00000F0FCF8204600F0BBF925772068016987
:103DC000C943C90617D4C168C943C90613D4082119
:103DD0006FF01002026121772068C06910F4407F03
:103DE000204602D0FFF792FF04E000F0DFF8204603
:103DF00000F09EF9257720680169C943C90708D1F9
:103E0000C168C943C90704D1891E0161204600F079
:103E100017FA20680169C943090609D4C168C94372
:103E2000090605D46FF0800101612046FFF7F9FD16
:103E300020680169C943C90509D4C168C943090695
:103E400005D46FF4807101612046FFF7E9FD206819
:103E50000169C943490609D4C168C943490605D463
:103E60006FF040010161204600F0F4F9206801691B
:103E7000C94389060BD4C168C943890607D46FF0CA
:103E8000200101612046BDE87040FFF7CBBD70BD49
:103E9000F0B587B0054614216846FCF796FB2A6802
:103EA00000243B4902253B48B2F1804F3A4E22D0D4
:103EB0003A4B9A4246D10A6842F001020A600A6807
:103EC00002F0010205920A6842F002020A600968E3
:103ED00001F002010591C0210091CDE90154CDE925
:103EE00003456946FEF7BAF803200090CDE9015476
:103EF0006946304649E00A6842F001020A600A68F1
:103F000002F0010205920A6842F002020A600968A2
:103F1000012701F00201059120210091CDE9015412
:103F2000CDE903476946FEF799F840F6084000904E
:103F3000CDE90154CDE9034769463046FEF78EF8D6
:103F400007B0F0BD164B9A420FD1086840F0080048
:103F500008600868694600F0080005904FF470405A
:103F600000901048CDE901540FE00F4B9A42E7D181
:103F70000A6842F001020A60096801F00101059136
:103F80000F210091CDE901546946CDE90345D5E7FC
:103F9000E0440258000002580004025800040040A7
:103FA00000080040000C0258000C0040704770B53B
:103FB000044690F83C000D4601280BD0012084F8FF
:103FC0003C000C2A45D007DC5AB1042A1BD0082A31
:103FD00078D12CE0022070BD102A4ED0142A71D165
:103FE0005DE0206801F0D6FC2068816941F008019D
:103FF00081612068816921F00401816120682A695A
:104000008169114311E0206801F018FD2068816981
:1040100041F4006181612068816921F480618161DE
:1040200020682969826942EA012181614AE02068A9
:1040300001F050FD2068C16941F00801C1612068AC
:10404000C16921F00401C16120682A69C169114375
:1040500011E0206801F084FD2068C16941F400612D
:10406000C1612068C16921F48061C161206829694A
:10407000C26942EA0121C16124E0206801F0A6FD85
:104080002068416D41F0080141652068416D21F0D3
:104090000401416520682A69416D114311E02068DF
:1040A00001F0CAFD2068416D41F40061416520685E
:1040B000416D21F48061416520682969426D42EAC1
:1040C00001214165002084F83C0070BD10B504005A
:1040D00003D094F83D0010B107E0012010BD00208E
:1040E00084F83C00204600F022F8022084F83D00CD
:1040F0002068211D01F0CCFB012084F8480084F8E1
:104100003E0084F83F0084F8400084F8410084F8C1
:10411000420084F8430084F8440084F8450084F8A1
:10412000460084F8470084F83D00002010BD704729
:104130007047000010B504464FF0020269B104292F
:1041400012D0082917D00C291CD0102921D094F89E
:104150004300012824D0012010BD94F83E0001281E
:10416000F9D184F83E201DE094F83F000128F2D1F7
:1041700084F83F2016E094F840000128EBD184F841
:1041800040200FE094F841000128E4D184F8412058
:1041900008E094F842000128DDD184F8422001E0D3
:1041A00084F843200122206801F0D4FB1A492068DA
:1041B0001A4A88420AD0904208D0194B984205D03A
:1041C000184B984202D0184B984203D1436C43F4E9
:1041D000004343642068884210D0B0F1804F0DD076
:1041E000124988420AD01249884207D011498842B0
:1041F00004D0904202D01049884207D181680F4A0A
:104200001140062906D0B1F5803F03D0016841F086
:1042100001010160002010BD0000014000040140C8
:1042200000400140004401400048014000040040BB
:1042300000080040000C004000180040070001008A
:1042400000680349884201D1FEF770B8704700004A
:1042500000100040704730B590F88010012918D048
:10426000012280F880202421C0F88410002220241C
:1042700050F8641B0B680D6823F0005325F001050E
:104280000D60026050F8641C0B60046202771046F7
:1042900030BD022030BD7047704770B5044690F8BD
:1042A000800001281DD0012284F880202420C4F839
:1042B000840020680568026822F00102026020681C
:1042C000826822F060620A438260204601F00EFD9F
:1042D0002268202100201560C4F8841084F8800032
:1042E00070BD022070BD70B5044690F880000128B2
:1042F0001DD0012284F880202420C4F88400206886
:104300000568026822F0010202602068826822F0DB
:1043100060420A438260204601F0E8FC22682021C6
:1043200000201560C4F8841084F8800070BD02205D
:1043300070BD7047704770B5044600681026D4F809
:104340008410D4F888508268120612D5212910D121
:10435000816821F080018160A06F38B1FCF7E0FC3A
:1043600020B1A06FFCF7D0FF20281BD0204601F021
:1043700019FE20688168490612D5222D10D1816866
:1043800021F040018160E06F38B1FCF7C9FC20B139
:10439000E06FFCF7B9FF202804D0204601F0E6FDCD
:1043A000002070BDC4F88C60032070BD7047000011
:1043B0002DE9F04103680446002540F60F06D86950
:1043C00019689A68304209D186067DD501F0200629
:1043D00002F080573E4377D0216F39E1AF4EB04FA6
:1043E00016400F4037436FD0C70709D0CF0507D518
:1043F00001271F62D4F88C3043F00103C4F88C30DD
:1044000083070AD5D30708D0276802233B62D4F874
:104410008C3043F00403C4F88C3043070AD5D3072B
:1044200008D0276804233B62D4F88C3043F00203A1
:10443000C4F88C3003070CD501F02003334308D0B7
:10444000266808233362D4F88C3043F00803C4F89C
:104450008C3003050BD54B0109D526684FF400635A
:104460003362D4F88C3043F02003C4F88C30D4F895
:104470008C30002B34D0800609D501F0200002F0EA
:104480008051084303D0216F09B120468847216835
:10449000D4F88C008968490602D410F0280F21D086
:1044A000204601F063FD20688168490615D58168C2
:1044B00021F040018160E06F78B17A490165E06FD9
:1044C000FCF7E0FD002800E012E009D0E06F016D8C
:1044D00000E02046BDE8F04108472046FFF766FFB0
:1044E000BDE8F0812046FFF761FFC4F88C50F7E784
:1044F000E76E2026012F71D1C7066FD5CF066DD587
:104500001020186222689068400669D5E16F664BFA
:104510000868984234D0644B1833984230D0624BCC
:10452000303398422CD0604B4833984228D05E4BB1
:104530006033984224D05C4B7833984220D05A4B59
:10454000903398421CD0584BA833984218D0574B00
:10455000984215D0554B1833984211D0534B3033F5
:1045600098420DD0514B4833984209D04F4B60339D
:10457000984205D04D4B7833984201D04B4B903345
:1045800040680004000CABD0B4F85C308342A7D97B
:10459000A4F85E00C869B0F5807F18D0106820F4D8
:1045A000807010602068816821F0010181602068BE
:1045B000816821F040018160C4F88860E566206868
:1045C000016821F010010160E06FFCF7A9FBB4F86D
:1045D0005C00B4F85E10401A81B220E023E0FFE7EF
:1045E000B4F85C00B4F85E10B4F85E30401A81B2E2
:1045F000002BC8D00029C6D010682D4B20F4907035
:1046000010602068826802EA03028260C4F8886051
:10461000E56625672068026822F0100202602046E5
:10462000FFF739FE5CE7C70209D5570207D54FF4FB
:10463000801018622046BDE8F041FFF77BBE0706F8
:104640000AD501F0800702F40002174304D0616F1D
:1046500000297FF43EAF43E742060CD54A060AD54F
:104660001968204621F040011960C4F8846065672C
:1046700000F0EEF934E7020206D54A0004D52046E0
:10468000BDE8F041FFF755BEC001CBD50029C9DA1E
:104690002046BDE8F041FFF7FFBD0000010000101B
:1046A00020010004595E000810000240100402407E
:1046B000FEFFFFEF10B5040003D0D4F8840010B162
:1046C00007E0012010BD002084F88000204600F0A3
:1046D00027F82420C4F884002068016821F0010133
:1046E0000160204601F06CFC0128EBD0A06A10B1FB
:1046F000204601F01DFB2068416821F49041416093
:104700002068816821F02A0181602068016841F0F9
:10471000010101602046BDE8104001F06DBB0000C2
:104720002DE9F04786B0054614216846FBF74DFF9A
:104730000121814BD5F800C002227E4800248F025F
:104740004FF0400A9C4556D17A4B10331E6846F014
:1047500010061E601B6803F010030593036843F006
:10476000020303600068042300F0020005904FF488
:1047700040400090CDE9012170486946CDE90343EE
:10478000FDF76CFCDFF8B89129236E4AB84648461D
:1047900089E81C00C0E90347C9F81440C9F818406B
:1047A000C9F81C40C9F82040C9F82440FDF726F993
:1047B00008B1FCF785FA644E2A27C5F87C90C9F841
:1047C000385030465F4BC6E9034874611833B46112
:1047D000F4613462746286E88804FDF70FF908B169
:1047E000FCF76EFAAE6700220621B5632520FDF7BF
:1047F00039FE25203FE04F4E544B0836DFF85091EC
:104800009C454FF007033BD1D6F800C04CF4003C68
:10481000C6F800C0366806F400360596066846F00D
:1048200008060660006800F008000590602000900F
:10483000CDE90121CDE9034369464846FDF70EFC69
:10484000444E2B213F48303886E81300C6E9034721
:1048500074613046B461F46134627462FDF7CEF87D
:1048600008B1FCF72DFAEE6700220621B563262079
:10487000FDF7F8FD2620FDF7E7FD06B0BDE8F0875F
:10488000DFF8D480C445F8D1D6F800C04CF4802CB1
:10489000C6F800C0366806F480260596066846F01D
:1048A00008060660006800F0080005904FF44070AC
:1048B0000090CDE90121CDE9034369464846FDF763
:1048C000CDFB264E2D211F48603886E81300C6E92F
:1048D000034774613046B461F46134627462FDF779
:1048E0008DF808B1FCF7ECF9DFF874802E23EE6741
:1048F0004046B563134AC0E90347C8F81440483A34
:10490000C8F81840C8F81C40C8F8204088E80C04D3
:10491000C8F82440FDF772F808B1FCF7D1F9C5F8E2
:10492000788000220621C8F838502720FDF79AFD2C
:104930002720A0E7E044025800100140000402587C
:104940004405002470000240BC05002400440040DF
:10495000000C02583406002400480040AC06002435
:1049600024070024F0B4D0F88830202B1BD1B9B133
:10497000B2B190F88030012B15D0036801260B4DA1
:10498000002480F88060C466AB4206D05C682402D4
:1049900003D51C6844F080641C60F0BC01F0E6BCE8
:1049A0000120F0BC70470220FBE70000000C00581B
:1049B0007047704770B50446D0F8840020283FD176
:1049C00081B37AB394F88000012839D0A4F8542038
:1049D000A4F856200025A06F01232165212184F829
:1049E0008030C4F88C50C4F88410E8B115491346DF
:1049F000C163A16F14480864A16F1448C864A06F14
:104A000005652068A66F00F12802216D3046FDF78C
:104A1000D7F948B11021C4F88C10202084F88050B8
:104A2000C4F88400012070BD21684020086284F829
:104A300080502068816841F080018160002070BD55
:104A4000022070BD335F0008615F00086D5E0008E2
:104A500070477047FEE70120704700003A48FDF7B5
:104A60005EFC3A4C606B02F0CBFBA06B02F0C8FB23
:104A7000E06B02F0C5FB01223548D102FDF70BFCCB
:104A8000314800211030FFF755FB2F48042110302A
:104A9000FFF750FB2C4808211030FFF74BFB2A484A
:104AA0000C211030FFF746FB274800215C30FFF750
:104AB00041FB254804215C30FFF73CFB22480821DC
:104AC0005C30FFF737FB20480C215C30FFF732FBEE
:104AD0001D480021A830FFF72DFB1B480421A830FA
:104AE000FFF728FB18480821A830FFF723FB1648DA
:104AF0000C21A830FFF71EFB13480021F430FFF70C
:104B000019FB11480421F430FFF714FB0E4808216B
:104B1000F430FFF70FFB0C480C21F430FFF70AFBD1
:104B2000606B02F0F9FAA06B02F0F6FAE06B02F0AB
:104B3000F3FA0548FDF7F3FB206B02F061FB024836
:104B4000FDF7EDFBFBE70000540200240000002409
:104B5000000C0258194808B5016841F001010160D4
:104B600000680022062100F0010000900B20FDF7F4
:104B700079FC0B20FDF768FC002206210C20FDF7D4
:104B800071FC0C20FDF760FC002206210D20FDF7D2
:104B900069FC0D20FDF758FC002206210F20FDF7CF
:104BA00061FC0F20FDF750FC002206211020FDF7CC
:104BB00059FCBDE808401020FDF746BCD844025817
:104BC00070B586B014216846FBF7FFFC22480168E7
:104BD00041F004010160016801F0040105910168E0
:104BE00041F080010160016801F0800105910168D8
:104BF00041F001010160016801F0010105910168C6
:104C000041F002010160016801F0020105910168B3
:104C100041F00801016000684FF400650F4E00226A
:104C200000F00800294605903046FDF734FB0024CB
:104C3000694668100294CDE900043046FDF70EFA8B
:104C400001200095CDE90104694630460394FDF743
:104C500005FA06B070BD0000E0440258000C02588E
:104C600010B58EB000241C21009407A80194029472
:104C70000394049405940694FBF7A7FC2A484CF28D
:104C80004F31C7224FF08043C0E902410461846183
:104C9000C0E90032FEF714FF08B172B6FEE74FF428
:104CA0008050009020486946FEF7B4FF08B172B604
:104CB000FEE71D48FFF70AFA08B172B6FEE71A4888
:104CC00004A904940694FEF7AFFE08B172B6FEE79D
:104CD00007AA40F2DC51602082E81300124800224B
:104CE00007A90B94FFF763F908B172B6FEE70E4807
:104CF000042207A9FFF75BF908B172B6FEE70A487C
:104D0000082207A9FFF753F908B172B6FEE7064873
:104D10000C2207A9FFF74BF908B172B6FEE702486B
:104D2000FFF7B6F80EB010BD6402002410B58EB0C7
:104D300000241C21009407A8019402940394049475
:104D400005940694FBF741FC2B484CF24F31C722E7
:104D5000284BC0E9024104618461C0E90032FEF7DA
:104D6000AFFE08B172B6FEE74FF4805000902248C3
:104D70006946FEF74FFF08B172B6FEE71E48FFF71F
:104D8000A5F908B172B6FEE71B4804A9049406947D
:104D9000FEF74AFE08B172B6FEE707AA40F2DC5100
:104DA000602082E813001448002207A90B94FFF743
:104DB000FEF808B172B6FEE70F48042207A9FFF714
:104DC000F6F808B172B6FEE70B48082207A9FFF70C
:104DD000EEF808B172B6FEE707480C2207A9FFF704
:104DE000E6F808B172B6FEE70348FFF751F80EB0D7
:104DF00010BD000000040040B002002410B58EB0C9
:104E000000241C21009407A80194029403940494A4
:104E100005940694FBF7D9FB2B484CF24F31C7227F
:104E2000284BC0E9024104618461C0E90032FEF709
:104E300047FE08B172B6FEE74FF48050009022485A
:104E40006946FEF7E7FE08B172B6FEE71E48FFF7B7
:104E50003DF908B172B6FEE71B4804A90494069414
:104E6000FEF7E2FD08B172B6FEE707AA40F2DC5198
:104E7000602082E813001448002207A90B94FFF772
:104E800096F808B172B6FEE70F48042207A9FFF7AB
:104E90008EF808B172B6FEE70B48082207A9FFF7A3
:104EA00086F808B172B6FEE707480C2207A9FFF79B
:104EB0007EF808B172B6FEE70348FEF7E9FF0EB0D0
:104EC00010BD000000080040FC02002410B58EB0A8
:104ED00000241C21009407A80194029403940494D4
:104EE00005940694FBF771FB2B484CF24F31C72217
:104EF000284BC0E9024104618461C0E90032FEF739
:104F0000DFFD08B172B6FEE74FF4805000902248F2
:104F10006946FEF77FFE08B172B6FEE71E48FFF74E
:104F2000D5F808B172B6FEE71B4804A904940694AC
:104F3000FEF77AFD08B172B6FEE707AA40F2DC512F
:104F4000602082E813001448002207A90B94FFF7A1
:104F50002EF808B172B6FEE70F48042207A9FFF742
:104F600026F808B172B6FEE70B48082207A9FFF73A
:104F70001EF808B172B6FEE707480C2207A9FFF732
:104F800016F808B172B6FEE70348FEF781FF0EB0CF
:104F900010BD0000000C0040480300241748002109
:104FA00010B5154C0C224FF4E1330460C0E9013117
:104FB000C160C0E904128161C16101624162816224
:104FC000FFF778FB08B172B6FEE70C480021FFF747
:104FD0008AF908B172B6FEE708480021FFF75DF9CB
:104FE00008B172B6FEE70548FFF735F9002801D091
:104FF00072B6FEE710BD00000010014094030024CB
:105000001748002110B5154C0C224FF461230460A1
:10501000C0E90131C160C0E904128161C16101626E
:1050200041628162FFF746FB08B172B6FEE70C48A9
:105030000021FFF758F908B172B6FEE708480021D1
:10504000FFF72BF908B172B6FEE70548FFF703F941
:10505000002801D072B6FEE710BD000000440040F9
:10506000240400241748002110B5154C0C224FF4DD
:10507000E1330460C0E90131C160C0E9041281611B
:10508000C161016241628162FFF714FB08B172B62F
:10509000FEE70C480021FFF726F908B172B6FEE7DB
:1050A00008480021FFF7F9F808B172B6FEE7054895
:1050B000FFF7D1F8002801D072B6FEE710BD00005E
:1050C00000480040B4040024FEE70000F0B5059C51
:1050D000C3B1012B68D13548216803691B880B6077
:1050E000016963680988A1F6B8314942196001690C
:1050F000A368098819600069E1680088A0F6B830E3
:1051000040424CE0814201D9012500E0002540F6F3
:10511000B8330E189E4201D9012300E0002340F26B
:10512000DC56B14201D9012700E00027B04201D985
:10513000012600E000264FEAC50C0CEB830C0D188D
:10514000431A0CEB47073E44102E03F2DC53A5F242
:10515000DC5525D2DFE806F0081924242416240D96
:105160000D24162424241908206801606068016059
:1051700003E02168086061680860A0680360E06877
:1051800003600DE021680D6004E02068A1F6B831ED
:105190000560484261680D60A1680860E1680860C8
:1051A0002069026060690260F0BD00008C0000248C
:1051B000FEE710B5B0B0BC216846FBF706FA022046
:1051C0000C90002103220092C02419230993CDE9F9
:1051D0000A401022CDE90D010F911091CDE91D0279
:1051E0006846FDF7F1FA002801D072B6FEE730B04C
:1051F00010BD00002DE9F047454D044689464FF0AB
:10520000000A2868C04380070AD0414E283E306813
:1052100020F080603060FDF749F80746B04608E0AE
:105220000120BDE8F08700BFFDF740F8C01B022851
:1052300067D8D8F800000001F6D4206829684FF438
:10524000FE0721F47C313E0241EA00302860207ADA
:10525000A389B4F804C040022D4D2D495B1E227C69
:10526000ACF1010C1035091DA0F5007080B2521E82
:10527000CCF3080C07EA034340EA0C00184306EAA3
:105280000262104328600868626920F0C000104381
:1052900008600A68A06922F0200202430A60281D03
:1052A0000A6822F010020A6002684FF6F873E46997
:1052B0009A4342EAC40202600868B9F1000F40F064
:1052C00010020A6011D00868B9F1010F11D040F442
:1052D00000100860D8F80000444640F08060C8F82C
:1052E0000000FCF7E3FF05460DE0086840F40020ED
:1052F000EFE740F48010ECE7FCF7D8FF401B0228F2
:1053000001D903208DE720680001F5D5504688E7D4
:10531000284402582DE9F047454D044689464FF090
:10532000000A2868C04380070AD0414E283E3068F2
:1053300020F080503060FCF7B9FF0746B04608E027
:105340000120BDE8F08700BFFCF7B0FFC01B0228BA
:1053500067D8D8F800008000F6D4208829684FF478
:10536000FE0721F07C713E0241EA00502860207A5D
:10537000A389B4F804C040022D4D2D495B1E227C48
:10538000ACF1010C1835091DA0F5007080B2521E59
:10539000CCF3080C07EA034340EA0C00184306EA82
:1053A0000262104328600868626920F4406010437C
:1053B00008600A68A06922F4007202430A60281D8E
:1053C0000A6822F480720A6002684FF6F873E46992
:1053D0009A4342EAC40202600868B9F1000F40F43F
:1053E00080720A6011D00868B9F1010F11D040F045
:1053F00080700860D8F80000444640F08050C8F83B
:105400000000FCF753FF05460DE0086840F48000FB
:10541000EFE740F40000ECE7FCF748FF401B0228F0
:1054200001D903208DE720688000F5D5504688E734
:10543000284402582DE9F043344C00284FF001086D
:10544000DDE90965DDE907C7606B80F8008003D0FE
:105450004FF0050880F80080206D007878B92B485F
:10546000D4F838806430A8F80010D0F80080118893
:10547000A8F80010406851880180E06B0380A146C5
:10548000606D007888BB2248BCF8004000F10C0138
:1054900000F11802D0F8008000F12403A8F80040C1
:1054A000D0F80480BCF80240A8F800408068BCF83E
:1054B000044004800C68388820804C6878882080FC
:1054C0008968B888088011683088088051687088B9
:1054D00008809168B0880880196828880880596811
:1054E000688808809968A88808800020D9F840104A
:1054F0004C460880D9F8441008802621D9F80400C9
:1055000001F0C8F9A16C0870BDE8F0838C0000249C
:10551000540A00242DE9F043284C9C4625274FF0DF
:10552000FF09431C04F16408E164851CC4E914C24A
:105530000770821D80F82790061D80F82890971C20
:105540006363931D606000F10A0CA5639D1CC8F89D
:1055500000601E1DC8F8042000F11208E763AF1DAB
:10556000174901F10C02C1F800C000F1160C4B60A4
:1055700001F118038D60391D16608D1CC2F804807E
:1055800002F1180897608A1DC3F800C00E1D59600B
:105590000C319D60971C8B1CC8F80870C8E900622C
:1055A00000F1220CC4F840C0C4E91113262101F017
:1055B00071F9A16C0870BDE8F08300008C00002434
:1055C000540A0024384886B001F0FCF83748FBF74D
:1055D00079FB364903223648FFF7ECF93248183890
:1055E000FBF77AFB314C0025DFF8C8B04FF4806A36
:1055F000163C04F15606B71F04F14A0804F14409A9
:1056000051465846FCF742FEA0716078012819D136
:10561000E0792C2806D1254B40339A1F911F881F13
:1056200001F002F9E57165703C221F4901F2532037
:10563000FFF798F91E4890300068016841F01001AA
:1056400001602571A078012818D1207A182806D188
:10565000164A083A901E02F10C01FBF74DFB257229
:10566000A5701822104912481839FFF77BF9104825
:105670000068016841F0100101606571CDE90365C2
:10568000CDF800900595CDE90187084AE389A18905
:10569000121DA079FFF7CEFE03488330FCF73FFED2
:1056A000012001F0C6F9ABE7D10100241600002467
:1056B00094030024000C0258502010B580F3118888
:1056C000BFF34F8FBFF36F8F01F000FF18B1044994
:1056D0004FF080500860002080F3118810BD00005A
:1056E00004ED00E0F0B59DB04C216846FAF76DFF7F
:1056F000202113A8FAF769FF0220FCF7E5FE2549EF
:10570000002425480A6822F001020A60096801683D
:1057100041F440410160016801F440411B9101687E
:105720008904FCD51D4902200A6808250923C603FF
:10573000012722F00302921C0A600DF1280C059744
:1057400005210990A0228CE807000F90CDE91054A4
:105750000D90CDE900360E9068461294FDF7DCFE00
:1057600008B172B6FEE740201A903F210301CDE94F
:1057700016500322CDE9180313AB13A883E81600D3
:105780000221FDF78BFC002801D072B6FEE71DB0A8
:10579000F0BD00002C040058184802582844025854
:1057A0002E48F0B52E4A016841F47001016010687E
:1057B00000F00F00072804D2106820F00F00C01D71
:1057C000106028490020274C10340B68264D43F008
:1057D00001030B6020600B682B400B60136803F023
:1057E0000F03072B04D9136823F00F03DB1D13608D
:1057F0001C4C1E4A18341E4B261D371D2060194CA8
:105800001C4D28343060261D3860371D23603B1D39
:1058100035601C1D3A60251D2E1D1860331D226049
:105820002860326018600A680E4B134C22F4802204
:1058300060330A60186020686FF30F00B0F1005FFA
:1058400003D20E490120C1F8080143F2D2000C49ED
:10585000024B4A03803B08601A60F0BD88ED00E00F
:1058600000200052004402587FEDF6EA8002010158
:10587000000202020000FF010010005C00800051E5
:10588000004000520148FEF742BA0000F00900242F
:105890002DE9F047274B4FF0804A274D0268984288
:1058A000264E274F274C09D0504507D0A84205D097
:1058B000B04203D0B84201D0A04205D1D1F804C013
:1058C00022F070024CEA0202DFF87CC0DFF87C8034
:1058D0009842DFF87C900FD050450DD0A8420BD0F5
:1058E000B04209D0B84207D0A04205D0604503D0ED
:1058F000404501D0484503D1CD6822F440722A4387
:105900004D6922F080022A43026098428A68C2628E
:105910000A68826207D0A04205D0604503D04045A6
:1059200001D0484501D10969016301214161BDE808
:10593000F087000000000140000400400008004023
:10594000000C0040000401400040014000440140C0
:105950000048014010B5046A012301F01F018B408B
:105960009C4304628A40016A1143016210BD42EA0D
:10597000032283680A4323F47F410A43826070470D
:10598000034B82681A400A4342F007018160704766
:105990008FFFCFFF2DE9F04F026ADFF88880DFF834
:1059A000889022F00102DFF884A0DFF884B0214F54
:1059B0000262DFF884C0066A4268836926F0020644
:1059C0000D68B8428C6803EA0C0323F0030344EA31
:1059D000060445EA030507D0404505D0484503D0F5
:1059E000504501D0584505D1CB6824F00804234325
:1059F00023F00404B84207D0404505D0484503D001
:105A0000504501D0584505D122F44076D1E9053200
:105A100033431A4342608561496841630462BDE8CB
:105A2000F08F0000000401400040014000440140AC
:105A300000480140000001408FFFFEFFF0B5026A00
:105A40001E4E1F4C22F01002DFF878E00262056A59
:105A50004368826925F02005D1F808C0A0420F688C
:105A600002EA060222F4407245EA0C1542EA0722D5
:105A700001D0704506D1CE6825F0800545EA0615AF
:105A800025F04005A0420AD0704508D00E4CA04237
:105A900005D00E4CA04202D00D4CA04207D1D1E956
:105AA000054623F4406343EA840343EA86034360E4
:105AB0008261496881630562F0BD0000FF8FFFFECF
:105AC000000001400004014000400140004401404A
:105AD00000480140F0B5026A1C4D1D4E22F4807250
